:100000000C9476000C949E000C949E000C949E0020
:100010000C949E000C949E000C949E000C949E00E8
:100020000C949E000C949E000C949E000C949E00D8
:100030000C949E000C949E000C949E000C949E00C8
:100040000C9458040C949E000C94C8040C94A204C4
:100050000C949E000C949E000C949E000C949E00A8
:100060000C949E000C949E00456E7472616E646FD9
:1000700020656D20466F7277617264005361696E0E
:10008000646F20646520466F7277617264000000BF
:1000900000002300260029000000000024002700A3
:1000A0002A0000000000250028002B00040404049E
:1000B0000404040402020202020203030303030312
:1000C00001020408102040800102040810200102EF
:1000D00004081020000000080002010000030407CB
:1000E00000000000000000007005A10711241FBEE1
:1000F000CFEFD8E0DEBFCDBF22E0A6E4B1E001C083
:100100001D92A236B207E1F711E0A0E0B1E0E2E60D
:10011000F4E102C005900D92A634B107D9F710E0C2
:10012000C5E7D0E004C02197FE010E942208C43731
:10013000D107C9F70E9426070C94240A0C940000EA
:10014000833081F028F4813099F08230A1F0089555
:100150008730A9F08830B9F08430D1F480918000E4
:100160008F7D03C0809180008F77809380000895F9
:1001700084B58F7702C084B58F7D84BD089580914A
:10018000B0008F7703C08091B0008F7D8093B00066
:1001900008951F93CF93DF93282F30E0F901EC529D
:1001A000FF4F8491F901E054FF4FD491F901E455D8
:1001B000FF4FC491CC23C1F0162F81110E94A000E3
:1001C000EC2FF0E0EE0FFF1FEE55FF4FA591B4911D
:1001D0009FB7F894111104C08C91D095D82302C018
:1001E000EC91DE2BDC939FBFDF91CF911F9108959F
:1001F000CF93DF9390E0FC01E054FF4F2491FC018A
:10020000E455FF4F8491882361F190E0880F991F96
:10021000FC01E856FF4FC591D491FC01EE55FF4F0C
:10022000A591B491611109C09FB7F8948881209578
:1002300082238883EC912E230BC0623061F49FB738
:10024000F8948881322F309583238883EC912E2B6C
:100250002C939FBF06C08FB7F894E8812E2B28837C
:100260008FBFDF91CF910895AF92BF92CF92DF926F
:10027000EF92FF920F931F93CF93DF93CDB7DEB72B
:100280008E01015F1F4F6E0185E1C80ED11CF80180
:10029000E190F1908F01F701208130E0F901EC52FB
:1002A000FF4F8491F901E054FF4FB490F901E455F8
:1002B000FF4FA490AA2079F081110E94A000EA2D9E
:1002C000F0E0EE0FFF1FE257FF4FA591B491EC91C4
:1002D000BE2281E009F480E08170F7018183C016BD
:1002E000D106A9F6DF91CF911F910F91FF90EF906A
:1002F000DF90CF90BF90AF9008950F931F93CF934F
:10030000DF93D62F062F10E0FC01C08161E08C2F17
:100310000E94F8000115110509F447C00F3F1105AF
:1003200009F445C0EC2FF0E0EC52FF4FE491E330CC
:10033000F9F048F4E130B9F0E230A1F584B580621B
:1003400084BDD8BD3CC0E730E9F0E83019F1E430B5
:1003500049F58091800080628093800010938B002B
:1003600000938A002CC084B5806884BDD7BD27C0A7
:1003700080918000806880938000109389000093B2
:1003800088001DC08091B00080688093B000D09339
:10039000B30015C08091B00080628093B000D0930C
:1003A000B4000DC00038110514F460E001C061E034
:1003B0008C2FDF91CF911F910F910C94C900DF9189
:1003C000CF911F910F910895CF93DF93CDB7DEB7F3
:1003D00060E08D859E850E947D0169E18F85988909
:1003E0000E947D0160E089899A890E947D0169E10E
:1003F0008B899C89DF91CF910C947D013FB7F89454
:1004000080914F0190915001A0915101B091520102
:1004100026B5A89B05C02F3F19F00196A11DB11D5F
:100420003FBFBA2FA92F982F8827820F911DA11D9A
:10043000B11DBC01CD0142E0660F771F881F991FD7
:100440004A95D1F70895CF92DF92EF92FF920F93E2
:100450001F93CF93DF936C017A018B01C0E0D0E052
:10046000CE15DF0581F0D8016D918D01D601ED919A
:10047000FC910190F081E02DC6010995892B11F0C6
:100480002196EECF7E01C701DF91CF911F910F9191
:10049000FF90EF90DF90CF90089542E050E061E34D
:1004A00071E083E591E00C942302089580E090E0F0
:1004B0000895FC01538D448D252F30E0842F90E06A
:1004C000821B930B541710F0CF960895019708954F
:1004D000FC01918D828D981761F0828DDF01A80F4C
:1004E000B11D5D968C91928D9F5F9F73928F90E06E
:1004F00008958FEF9FEF0895FC01918D828D9817DD
:1005000031F0828DE80FF11D858D90E008958FEF19
:100510009FEF0895FC01918D228D892F90E0805CE2
:100520009F4F821B91098F739927089583E591E06E
:100530000E948A0221E0892B09F420E0822F08958D
:10054000FC01848DDF01A80FB11DA35ABF4F2C9170
:10055000848D90E001968F739927848FA689B7893F
:100560002C93A089B1898C91837080648C93938D36
:10057000848D981306C00288F389E02D80818F7DD9
:1005800080830895EF92FF920F931F93CF93DF9391
:10059000EC0181E0888F9B8D8C8D981305C0E889D4
:1005A000F989808185FD26C0F62E0B8D10E00F5F46
:1005B0001F4F0F731127E02E8C8DE8120CC00FB661
:1005C00007FCFACFE889F989808185FFF5CFCE0154
:1005D0000E94A002F1CF8B8DFE01E80FF11DE35ABE
:1005E000FF4FF0829FB7F8940B8FEA89FB898081D7
:1005F00080620AC09FB7F894EE89FF896083E8891A
:10060000F98980818370806480839FBF81E090E05E
:10061000DF91CF911F910F91FF90EF9008950F936D
:100620001F93CF93DF938C01C0E0D0E0F801EC0F73
:10063000FD1F6491662341F083E591E00E94C202B0
:10064000892B11F02196F2CFCE01DF91CF911F912E
:100650000F910895CF93DF93EC01888D8823C9F023
:10066000EA89FB89808185FD05C0A889B9898C91BB
:1006700086FD0FC00FB607FCF5CF808185FFF2CF56
:10068000A889B9898C9185FFEDCFCE010E94A00287
:10069000E7CFDF91CF91089580E090E0892B29F09A
:1006A0000E94960281110C94000008958F929F92EF
:1006B000AF92BF92CF92DF92EF92FF92CF93DF93F0
:1006C000CDB7DEB761E08D899E890E947D0161E032
:1006D0008F89988D0E947D0161E0898D9A8D0E949D
:1006E0007D0161E08B8D9C8D0E947D010E94FE0149
:1006F0004B015C0184EFC82EDD24D394E12CF12C56
:100700000E94FE01DC01CB0188199909AA09BB09E5
:10071000883E9340A105B10598F321E0C21AD108A3
:10072000E108F10888EE880E83E0981EA11CB11C38
:10073000C114D104E104F10419F78CE790E00E94A0
:100740000F03DF91CF91FF90EF90DF90CF90BF909C
:10075000AF909F908F900C944D02CF93DF93CDB7C5
:10076000DEB788E690E00E940F03DF91CF910C94F2
:100770004D02DF92EF92FF920F931F93CF93DF937F
:10078000EC017B01DA808D2D90E00196880F991F96
:100790000E9428088C01FC0190E0288139819D1578
:1007A00061F0AF01401B510BD901A40FB51F2D9172
:1007B0003C91219331939F5FF0CFF801E90FF11D38
:1007C000E90FF11DF182E0822115310519F0C9010F
:1007D0000E94C008198308838A818F5F8A83DF9112
:1007E000CF911F910F91FF90EF90DF900895CF93DD
:1007F000DF93EC018091460190914701892B69F4C8
:1008000082E090E00E9428082AE031E0FC01318378
:100810002083909347018093460160914601709137
:1008200047018A819B810E94B90380914801909180
:100830004901892B69F482E090E00E94280820E1B8
:1008400031E0FC013183208390934901809348017A
:1008500060914801709149018A819B81DF91CF911C
:100860000C94B9030E940F0ACF92DF92EF92FF928D
:100870000F931F93CF938C016B01C42F7C0182E0F7
:10088000E80EF11C63E371E0C7010E945B05B6014D
:10089000C7010E943A05F801C08360E08C2FCF9118
:1008A0001F910F91FF90EF90DF90CF900C94F80084
:1008B0001F920F920FB60F9211242F933F938F9395
:1008C0009F93AF93BF9380914B0190914C01A09166
:1008D0004D01B0914E0130914A0123E0230F2D3795
:1008E00020F40196A11DB11D05C026E8230F029634
:1008F000A11DB11D20934A0180934B0190934C019F
:10090000A0934D01B0934E0180914F019091500101
:10091000A0915101B09152010196A11DB11D80938A
:100920004F0190935001A0935101B0935201BF9198
:10093000AF919F918F913F912F910F900FBE0F908C
:100940001F9018951F920F920FB60F9211242F939C
:100950003F934F935F936F937F938F939F93AF9347
:10096000BF93EF93FF9383E591E00E94A002FF9174
:10097000EF91BF91AF919F918F917F916F915F9117
:100980004F913F912F910F900FBE0F901F90189590
:100990001F920F920FB60F9211242F938F939F9354
:1009A000EF93FF93E0916301F09164018081E09106
:1009B0006901F0916A0182FD12C0908180916C0101
:1009C0008F5F8F7320916D01821751F0E0916C0160
:1009D000F0E0ED5AFE4F958F80936C0101C080814D
:1009E000FF91EF919F918F912F910F900FBE0F90DC
:1009F0001F901895EF92FF920F931F93CF93DF9361
:100A0000EC017B018A0188819981009729F02A8174
:100A10003B8124173507F8F4B8016F5F7F4F0E94C0
:100A20004909009759F0998388831B830A832C8195
:100A30003D81232B81F4FC0110820DC088819981B6
:100A4000009711F00E94C008198218821D821C8232
:100A50001B821A8207C01D830C83B701888199818C
:100A60000E941D0ACE01DF91CF911F910F91FF903F
:100A7000EF900895CF93DF93EC01FB018617970762
:100A8000B1F0608171816115710529F04481558152
:100A90000E94FA040CC088819981009711F00E948D
:100AA000C008198218821D821C821B821A82CE0104
:100AB000DF91CF910895FC0111821082138212827E
:100AC000158214826115710551F0FB01019000201F
:100AD000E9F73197AF01461B570B0C94FA040895C0
:100AE0008F929F92AF92BF92CF92DF92EF92FF923E
:100AF0000F931F93CF93DF9300D000D000D0CDB7DA
:100B0000DEB764E371E08CE492E00E945B0569E388
:100B100071E082E592E00E945B0560E471E088E5A7
:100B200092E00E945B0564E371E08AE392E00E9438
:100B30005B0569E371E080E492E00E945B0560E49C
:100B400071E086E492E00E945B05109256011092DB
:100B5000550188EE93E0A0E0B0E0809357019093B8
:100B60005801A0935901B0935A0186E191E0909306
:100B700054018093530185EC90E090936001809341
:100B80005F0184EC90E0909362018093610180ECBE
:100B900090E0909364018093630181EC90E09093E6
:100BA00066018093650182EC90E0909368018093E8
:100BB000670186EC90E090936A018093690110923E
:100BC0006C0110926D0110926E0110926F0164E33E
:100BD00071E088E292E00E945B0569E371E08EE2D9
:100BE00092E00E945B0560E471E084E392E00E9481
:100BF0005B0564E371E086E192E00E945B0569E3D6
:100C000071E08CE192E00E945B0560E471E082E2B9
:100C100092E00E945B0564E371E084E092E00E9450
:100C20005B0569E371E08AE092E00E945B0560E4A5
:100C300071E080E192E00E945B058091F00190916B
:100C4000F101892BA1F586E090E00E9428088C0133
:100C500083E090E00E9428087C0180E090E00E9400
:100C60002808D70111969C938E9312961C92F80136
:100C7000F382E28283E090E00E9428087C0180E019
:100C800090E00E942808D70111969C938E931296AB
:100C90001C92F801F582E4828BE291E091838083DB
:100CA000C8010E94F7031093F1010093F001E09056
:100CB000F001F090F10186E1C82E82E0D82E04E226
:100CC00011E094EFA92E91E0B92E1A8219821C82AC
:100CD0001B821E821D82B601CE0101960E943A053A
:100CE00088E090E00E9428084C01D8014D918D01C8
:100CF000BE016F5F7F4F0E943404F5018192919293
:100D00005F0189819A810E94C008F6E0CF0ED11C54
:100D100081E007321807C9F681E090E00E942808B8
:100D20002BE0DC012C939093FB018093FA0181E08E
:100D300090E00E94280825E0FC0120839093FF01A9
:100D40008093FE0181E090E00E9428082AE0DC0107
:100D50002C939093FD018093FC0181E090E00E9430
:100D6000280829E0FC01208390930102809300026F
:100D700082E090E00E9428086C018BE090E00E94E5
:100D800028088C01DC0112961C92129787E08C9344
:100D900086E011968C9361E087E00E94F80060E0A5
:100DA000F80181810E94F80080E29EE4A0E0B0E0BA
:100DB000F80187839087A187B287D6010D931C9392
:100DC000D092F301C092F20186E090E00E942808E0
:100DD0008C0182EF91E0F80195838483F182E082B7
:100DE000D7012D913C91EDB7FEB772970FB6F894ED
:100DF000FEBF0FBEEDBFADB7BEB7119682E1E2EF09
:100E0000F1E001900D928A95E1F7D901ED91FC9105
:100E1000C701099510930302009302020FB6F894DC
:100E2000DEBF0FBECDBF26960FB6F894DEBF0FBE55
:100E3000CDBFDF91CF911F910F91FF90EF90DF9089
:100E4000CF90BF90AF909F908F900895789484B585
:100E5000826084BD84B5816084BD85B5826085BDB6
:100E600085B5816085BD80916E00816080936E0044
:100E70001092810080918100826080938100809136
:100E800081008160809381008091800081608093E7
:100E900080008091B10084608093B1008091B000A7
:100EA00081608093B00080917A00846080937A00A2
:100EB00080917A00826080937A0080917A008160CC
:100EC00080937A0080917A00806880937A001092F3
:100ED000C100E0916301F091640182E08083E091C0
:100EE0005F01F09160011082E0916101F091620177
:100EF0008FEC808310926B01E0916701F0916801A3
:100F000086E08083E0916501F091660180818061D7
:100F10008083E0916501F091660180818860808323
:100F2000E0916501F0916601808180688083E091A5
:100F30006501F091660180818F7D80830E944C0362
:100F4000FDCFCF93DF93C4E0D2E08C859D850E94D6
:100F5000C0088E819F810E94C008888199810E946B
:100F6000C008C6E1D2E08C859D850E94C0088E81B4
:100F70009F810E94C008888199810E94C008C8E2B0
:100F8000D2E08C859D850E94C0088E819F810E9441
:100F9000C008888199810E94C008CAE3D2E08C858C
:100FA0009D850E94C0088E819F810E94C008888113
:100FB00099810E94C008CCE4D2E08C859D850E9476
:100FC000C0088E819F810E94C00888819981DF912D
:100FD000CF910C94C0082F923F924F925F926F92E4
:100FE0007F928F929F92AF92BF92CF92DF92EF92B9
:100FF000FF920F931F93CF93DF93CDB7DEB7CA1B3A
:10100000DB0B0FB6F894DEBF0FBECDBF09942A8864
:10101000398848885F846E847D848C849B84AA840C
:10102000B984C884DF80EE80FD800C811B81AA8199
:10103000B981CE0FD11D0FB6F894DEBF0FBECDBF64
:10104000ED010895EE0FFF1F0590F491E02D099436
:101050000F931F93CF93DF938230910510F482E0BA
:1010600090E0E0916002F091610220E030E0A0E0C9
:10107000B0E0309719F14081518102811381481706
:101080005907C8F08417950769F4109731F0129644
:101090000C93129713961C9327C000936002109331
:1010A000610222C02115310519F04217530718F4C7
:1010B0009A01BD01EF01DF01F801DBCF21153105F8
:1010C000F9F0281B390B2430310580F48A819B818B
:1010D0006115710521F0FB019383828304C0909315
:1010E000610280936002FE01329644C0FE01E20F6D
:1010F000F31F8193919322503109398328833AC099
:1011000020915E0230915F02232B41F42091020175
:101110003091030130935F0220935E022091000121
:10112000309101012115310541F42DB73EB74091B1
:10113000040150910501241B350BE0915E02F091F2
:101140005F02E217F307A0F42E1B3F0B28173907A5
:1011500078F0AC014E5F5F4F2417350748F04E0F13
:101160005F1F50935F0240935E028193919302C090
:10117000E0E0F0E0CF01DF91CF911F910F91089552
:10118000CF93DF93009709F481C0FC01329713825B
:101190001282A0916002B0916102109781F42081C7
:1011A0003181820F931F20915E0230915F022817D8
:1011B000390751F5F0935F02E0935E0267C0ED01DD
:1011C00020E030E0CE17DF0740F44A815B819E01CA
:1011D00041155105F1F0EA01F5CFD383C283408177
:1011E0005181840F951FC817D90759F488819981B7
:1011F000840F951F0296918380838A819B819383BC
:1012000082832115310529F4F0936102E093600295
:101210003DC0E901FB83EA8349915991C40FD51F71
:10122000EC17FD0761F480819181840F951F029670
:10123000E90199838883828193819B838A83E0E09B
:10124000F0E012968D919C911397009719F0FD0193
:10125000DC01F7CF8D919C9111979D012E5F3F4F3F
:10126000820F931F20915E0230915F022817390789
:1012700069F4309729F4109261021092600202C062
:1012800013821282B0935F02A0935E02DF91CF912E
:101290000895A0E0B0E0EFE4F9E00C94EF07EC0172
:1012A000009721F4CB010E942808B4C0FC01E60F8E
:1012B000F71F9C0122503109E217F30708F4A8C078
:1012C000D9010D911C91119706171707B0F0053041
:1012D000110508F49BC0C80104978617970708F406
:1012E00095C002501109061B170B019311936D93C2
:1012F0007C93CF010E94C00889C05B01A01AB10A8B
:101300004C01800E911EA0916002B0916102612C8F
:10131000712CE12CF12C109709F446C08D919C9111
:101320001197A815B905B1F56C0142E0C40ED11CA6
:10133000CA14DB0478F14C018A189B08640142E06E
:10134000C40ED11C1296BC9012971396AC91B5E0C6
:10135000CB16D10440F0B282A38391828082D9015E
:101360006D937C9309C00E5F1F4F800F911FF90191
:1013700091838083EB2DFA2FE114F10431F0D70132
:101380001396FC93EE93129741C0F0936102E093A1
:1013900060023CC06816790608F43C017D01129693
:1013A0000D90BC91A02DB7CF80915E0290915F020D
:1013B00088169906E1F466167706C8F48091000154
:1013C00090910101009741F48DB79EB740910401BF
:1013D00050910501841B950BE817F907C8F4F093A9
:1013E0005F02E0935E02F901718360830FC0CB015D
:1013F0000E9428087C01009759F0A801BE010E94B4
:10140000140ACE010E94C008C70104C0CE0102C068
:1014100080E090E0CDB7DEB7EEE00C940B0881E001
:1014200090E0F8940C94240AFB01DC0102C00190C6
:101430000D9241505040D8F70895FB01DC01019016
:101440000D920020E1F7089510E0C5E7D0E004C058
:10145000FE010E9422082196C637D107C9F7F894E9
:02146000FFCFBC
:1014620000006202200000000000E4010000000011
:10147200340100000000C202230259022A038A0238
:1014820068027C020E100F00000000AD035603F745
:10149200030D0A004C6566740043656E7465720044
:0614A20052696768740046
:00000001FF
