:100000000C94E2000C940A010C940A010C940A016D
:100010000C940A010C940A010C940A010C940A0134
:100020000C940A010C940A010C940A010C940A0124
:100030000C940A010C940A010C940A010C940A0114
:100040000C94B1070C940A010C945C080C943608CB
:100050000C940A010C940A010C940A010C940A01F4
:100060000C940A010C940A01456E7472616E646FFF
:1000700020656D20466F7277617264005361696E0E
:10008000646F20646520466F727761726400576107
:100090006C6B696E670000000000230026002900D9
:1000A000456E7472616E646F20656D20416C696786
:1000B0006E696E675269676874005361696E646F38
:1000C00020646520416C69676E696E675269676874
:1000D0007400456E7472616E646F20656D204375A7
:1000E0007276656446726F6E745269676874005305
:1000F00061696E646F20646520437572766564463D
:10010000726F6E74526967687400456E7472616EC6
:10011000646F20656D20416C69676E696E674C6520
:100120006674005361696E646F20646520416C6978
:10013000676E696E674C65667400456E7472616EB9
:10014000646F20656D2043757276656446726F6ECC
:10015000744C656674005361696E646F2064652039
:1001600043757276656446726F6E744C6566740092
:1001700000000000240027002A00000000002500E5
:1001800028002B00040404040404040402020202F4
:10019000020203030303030301020408102040804A
:1001A00001020408102001020408102000000008C9
:1001B000000201000003040700000000000000002E
:1001C000710CA50B11241FBECFEFD8E0DEBFCDBF51
:1001D00023E0A0ECB1E001C01D92AC3BB207E1F717
:1001E00011E0A0E0B1E0EAE2F0E202C005900D9279
:1001F000A03CB107D9F710E0C1EED0E004C02197D0
:10020000FE010E94060EC03ED107C9F70E94E10917
:100210000C9408100C940000CF93DF93CDB7DEB799
:10022000EF81F8859181E985FA858181EB85FC85EF
:100230002181222329F0882321F081E0892701C030
:1002400080E0DF91CF910895CF93DF93CDB7DEB7F4
:10025000EF81F8858181E985FA852181EB85FC852F
:100260009181882331F0211103C081E0892701C0E9
:1002700080E0DF91CF910895CF93DF93CDB7DEB7C4
:10028000EF81F8859181E985FA852181EB85FC85EF
:100290008181882331F0211103C081E0892701C0C9
:1002A00080E0DF91CF910895CF93DF93CDB7DEB794
:1002B000EF81F8858181E985FA852181EB85FC85CF
:1002C0009181882331F0222319F081E0892701C030
:1002D00080E0DF91CF9108953FB7F8948091D901E4
:1002E0009091DA01A091DB01B091DC0126B5A89BC9
:1002F00005C02F3F19F00196A11DB11D3FBFBA2FB8
:10030000A92F982F8827820F911DA11DB11DBC0117
:10031000CD0142E0660F771F881F991F4A95D1F7DC
:100320000895CF92DF92EF92FF920F931F93CF9396
:10033000DF936C017A018B01C0E0D0E0CE15DF05C0
:1003400081F0D8016D918D01D601ED91FC91019064
:10035000F081E02DC6010995892B11F02196EECF91
:100360007E01C701DF91CF911F910F91FF90EF9018
:10037000DF90CF900895089580E090E00895FC010B
:10038000538D448D252F30E0842F90E0821B930BFA
:10039000541710F0CF96089501970895FC01918DA0
:1003A000828D981761F0828DDF01A80FB11D5D96D7
:1003B0008C91928D9F5F9F73928F90E008958FEF45
:1003C0009FEF0895FC01918D828D981731F0828DF9
:1003D000E80FF11D858D90E008958FEF9FEF089550
:1003E000FC01918D228D892F90E0805C9F4F821BB4
:1003F00091098F739927089589EE91E00E94F00189
:1004000021E0892B09F420E0822F0895FC01848DDE
:10041000DF01A80FB11DA35ABF4F2C91848D90E02E
:1004200001968F739927848FA689B7892C93A08909
:10043000B1898C91837080648C93938D848D981393
:1004400006C00288F389E02D80818F7D8083089526
:10045000EF92FF920F931F93CF93DF93EC0181E014
:10046000888F9B8D8C8D981305C0E889F9898081D0
:1004700085FD26C0F62E0B8D10E00F5F1F4F0F730A
:100480001127E02E8C8DE8120CC00FB607FCFACFB6
:10049000E889F989808185FFF5CFCE010E940602A7
:1004A000F1CF8B8DFE01E80FF11DE35AFF4FF08273
:1004B0009FB7F8940B8FEA89FB89808180620AC01C
:1004C0009FB7F894EE89FF896083E889F989808174
:1004D0008370806480839FBF81E090E0DF91CF9143
:1004E0001F910F91FF90EF900895CF93DF93EC0150
:1004F000888D8823C9F0EA89FB89808185FD05C044
:10050000A889B9898C9186FD0FC00FB607FCF5CF7D
:10051000808185FFF2CFA889B9898C9185FFEDCFC5
:10052000CE010E940602E7CFDF91CF91089580E0CF
:1005300090E0892B29F00E94FC0181110C940000AD
:100540000895DC0116968C91169712962C911297AD
:1005500013969C911397E22FF92FE80FF11DE80FE6
:10056000F11D7183608316968C9116978F5F169696
:100570008C930895CF93DF93EC0181E08887E88125
:10058000F9810680F781E02DCE010995E881F98196
:100590000480F581E02DCE01DF91CF910994809107
:1005A000E1019091E201892B69F486E090E00E94DC
:1005B0000C0E21E931E0FC01318320839093E201AC
:1005C0008093E1018091E1019091E2010895809191
:1005D000DF019091E001892B69F482E090E00E94B4
:1005E0000C0E2BE831E0FC01318320839093E00175
:1005F0008093DF018091DF019091E0010895809167
:10060000D0019091D101892B69F482E090E00E94A1
:100610000C0E20E631E0FC01318320839093D10160
:100620008093D0018091D0019091D1010895CF9312
:10063000DF93EC018091E3019091E401892B69F44F
:1006400082E090E00E940C0E27E931E0FC0131834A
:1006500020839093E4018093E3016091E301709122
:10066000E401CE010E94A1020E94FF02BC01CE0162
:10067000DF91CF910C94A102CF93DF93EC01809195
:10068000DD019091DE01892B69F482E090E00E9407
:100690000C0E25E831E0FC01318320839093DE01CC
:1006A0008093DD016091DD017091DE01CE010E9439
:1006B000A1020E94FF02BC01CE01DF91CF910C94F8
:1006C000A1028091CE019091CF01892B69F482E043
:1006D00090E00E940C0E2AE531E0FC01318320837A
:1006E0009093CF018093CE018091CE019091CF0164
:1006F0000895CF93DF93EC010E946103BC01CE010A
:10070000DF91CF910C94A102CF93DF93EC010E9473
:100710006103BC01CE01DF91CF910C94A102CF9374
:10072000DF93EC010E946103BC01CE010E94A10293
:100730000E94FF02BC01CE01DF91CF910C94A10277
:10074000CF93DF93EC0188E191E099838883188649
:1007500088E290E00E940C0E9B838A8388E290E0FE
:100760000E940C0E9D838C831E821F82DF91CF918D
:100770000895CF93DF938091D4019091D501892B77
:1007800079F489E090E00E940C0EEC010E94A00335
:1007900084E791E099838883D093D501C093D401F5
:1007A0008091D4019091D501DF91CF910895EF927E
:1007B000FF920F931F93CF93DF93EC010E94CF0220
:1007C0007C010E94B9038C0186E090E00E940C0E2F
:1007D000FC01F182E0821383028315821482BC0142
:1007E000CE01DF91CF911F910F91FF90EF900C946C
:1007F0007009CF93DF938091D2019091D301892B1F
:1008000079F489E090E00E940C0EEC010E94A003B4
:1008100086E691E099838883D093D301C093D20177
:100820008091D2019091D301DF91CF910895EF9201
:10083000FF920F931F93CF93DF93EC010E94CF029F
:100840007C010E94F9038C0186E090E00E940C0E6E
:10085000FC01F182E0821383028315821482BC01C1
:10086000CE01DF91CF911F910F91FF90EF900C94EB
:100870007009EF92FF920F931F93CF93DF93EC01D8
:100880008091C2019091C301892B69F482E090E0CC
:100890000E940C0E26E231E0FC013183208390930C
:1008A000C3018093C201E090C201F090C3010E9495
:1008B000F9038C0186E090E00E940C0EFC01F182AD
:1008C000E0821383028315821482BC01CE010E9450
:1008D00070098091C4019091C501892B69F482E06F
:1008E00090E00E940C0E2CE231E0FC013183208369
:1008F0009093C5018093C401E090C401F090C501BC
:100900000E94B9038C0186E090E00E940C0EFC016D
:10091000F182E0821383028315821482BC01CE012E
:100920000E9470098091C6019091C701892B69F4DA
:1009300082E090E00E940C0E22E331E0FC01318362
:1009400020839093C7018093C601E090C601F09088
:10095000C7018091C8019091C901892B81F489E078
:1009600090E00E940C0E8C010E94A00388E391E0AD
:10097000F801918380831093C9010093C80100910D
:10098000C8011091C90186E090E00E940C0EFC01A4
:10099000F182E0821383028315821482BC01CE01AE
:1009A0000E9470098091CA019091CB01892B69F452
:1009B00082E090E00E940C0E26E431E0FC013183DD
:1009C00020839093CB018093CA01E090CA01F090FC
:1009D000CB018091CC019091CD01892B81F489E0EC
:1009E00090E00E940C0E8C010E94A0038CE491E028
:1009F000F801918380831093CD010093CC01009185
:100A0000CC011091CD0186E090E00E940C0EFC011B
:100A1000F182E0821383028315821482BC01CE012D
:100A2000DF91CF911F910F91FF90EF900C9470097F
:100A3000CF93DF938091C0019091C101892B79F40C
:100A400089E090E00E940C0EEC010E94A0038AE075
:100A500091E099838883D093C101C093C0018091B4
:100A6000C0019091C101DF91CF910895EF92FF9263
:100A70000F931F93CF93DF93EC010E94E7027C0159
:100A80000E9418058C0186E090E00E940C0EFC018B
:100A9000F182E0821383028315821482BC01CE01AD
:100AA000DF91CF911F910F91FF90EF900C947009FF
:100AB000EF92FF920F931F93CF93DF93EC010E946D
:100AC000E7027C010E9418058C0186E090E00E94FC
:100AD0000C0EFC01F182E0821383028315821482E2
:100AE000BC01CE01DF91CF911F910F91FF90EF904C
:100AF0000C947009CF93DF93CDB7DEB786E591E014
:100B0000DF91CF910C944C09CF93DF93CDB7DEB733
:100B1000DC0118962C911897211106C0ED91FC91DB
:100B20000084F185E02D09950E94CF022FB7F8943B
:100B30004091E5015091E6016091E7017091E80173
:100B40002FBFFC01558344838AE391E0DF91CF916D
:100B50000C944C09CF93DF93CDB7DEB783E291E0DD
:100B6000DF91CF910C944C09CF93DF93CDB7DEB7D3
:100B7000DC0118962C911897211106C0ED91FC917B
:100B80000084F185E02D09958AE091E0DF91CF9115
:100B90000C944C09CF93DF93CDB7DEB78FEE90E086
:100BA000DF91CF910C944C09CF93DF93CDB7DEB793
:100BB000DC0118962C911897211106C0ED91FC913B
:100BC0000084F185E02D09950E94CF022FB7F8949B
:100BD0004091E5015091E6016091E7017091E801D3
:100BE0002FBFFC015583448382ED90E0DF91CF91CC
:100BF0000C944C09CF93DF93CDB7DEB78AEB90E02E
:100C0000DF91CF910C944C09CF93DF93CDB7DEB732
:100C1000DC0118962C911897211106C0ED91FC91DA
:100C20000084F185E02D099580EA90E0DF91CF9175
:100C30000C944C09CF93DF93CDB7DEB78EE890E0EC
:100C4000DF91CF910C944C09CF93DF93CDB7DEB7F2
:100C500088E690E0DF91CF910C944C09AF92BF925F
:100C6000CF92DF92EF92FF920F931F93CF93DF9378
:100C7000CDB7DEB78E01015F1F4F6E0185E1C80E53
:100C8000D11CF801E190F1908F01F701208130E053
:100C9000F901E455FE4F8491F901E856FE4FB490F6
:100CA000F901EC57FE4FA490AA2079F081110E941F
:100CB0008909EA2DF0E0EE0FFF1FEA56FF4FA591DC
:100CC000B491EC91BE2281E009F480E08170F701DB
:100CD0008183C016D106A9F6DF91CF911F910F91A4
:100CE000FF90EF90DF90CF90BF90AF9008950E945B
:100CF000F30FEF92FF920F931F93CF93DF93EC01CB
:100D00007B018A0188819981009729F02A813B81A2
:100D100024173507F8F4B8016F5F7F4F0E942D0F3D
:100D2000009759F0998388831B830A832C813D8126
:100D3000232B81F4FC0110820DC0888199810097DA
:100D400011F00E94A40E198218821D821C821B823F
:100D50001A8207C01D830C83B701888199810E9484
:100D60000110CE01DF91CF911F910F91FF90EF9075
:100D70000895CF93DF9390E0FC01E856FE4F249155
:100D8000FC01EC57FE4F8491882361F190E0880FBD
:100D9000991FFC01E059FE4FC591D491FC01E65822
:100DA000FE4FA591B491611109C09FB7F894888155
:100DB000209582238883EC912E230BC0623061F44E
:100DC0009FB7F8948881322F309583238883EC91E4
:100DD0002E2B2C939FBF06C08FB7F894E8812E2B43
:100DE00028838FBFDF91CF9108950F931F93CF93E7
:100DF000DF93D62F062F10E0FC01C08161E08C2F1D
:100E00000E94B9060115110509F447C00F3F1105ED
:100E100009F445C0EC2FF0E0E455FE4FE491E330D7
:100E2000F9F048F4E130B9F0E230A1F584B5806220
:100E300084BDD8BD3CC0E730E9F0E83019F1E430BA
:100E400049F58091800080628093800010938B0030
:100E500000938A002CC084B5806884BDD7BD27C0AC
:100E600080918000806880938000109389000093B7
:100E700088001DC08091B00080688093B000D0933E
:100E8000B30015C08091B00080628093B000D09311
:100E9000B4000DC00038110514F460E001C061E039
:100EA0008C2FDF91CF911F910F910C94B209DF919C
:100EB000CF911F910F9108958F929F92AF92BF9201
:100EC000CF92DF92EF92FF92CF93DF93CDB7DEB751
:100ED00061E08D899E890E94F50661E08F89988D79
:100EE0000E94F50661E0898D9A8D0E94F50661E009
:100EF0008B8D9C8D0E94F5060E946C014B015C015C
:100F000084EFC82EDD24D394E12CF12C0E946C01D7
:100F1000DC01CB0188199909AA09BB09883E9340D5
:100F2000A105B10598F321E0C21AD108E108F10842
:100F300088EE880E83E0981EA11CB11CC114D10458
:100F4000E104F10419F78CE790E0DF91CF91FF9075
:100F5000EF90DF90CF90BF90AF909F908F900C94C8
:100F60004C091F920F920FB60F9211242F933F93AB
:100F70008F939F93AF93BF938091E5019091E6018A
:100F8000A091E701B091E8013091D80123E0230F4F
:100F90002D3720F40196A11DB11D05C026E8230FB1
:100FA0000296A11DB11D2093D8018093E501909375
:100FB000E601A093E701B093E8018091D9019091F7
:100FC000DA01A091DB01B091DC010196A11DB11DF8
:100FD0008093D9019093DA01A093DB01B093DC01F7
:100FE000BF91AF919F918F913F912F910F900FBE25
:100FF0000F901F901895CF93DF93EC01FB0186179C
:101000009707B1F0608171816115710529F0448104
:1010100055810E9479060CC088819981009711F052
:101020000E94A40E198218821D821C821B821A82C1
:10103000CE01DF91CF910895FC01808191810C94C4
:10104000A40EFC0111821082138212821582148276
:101050006115710551F0FB0101900020E9F731970E
:10106000AF01461B570B0C94790608951F920F92FF
:101070000FB60F9211242F933F934F935F936F936B
:101080007F938F939F93AF93BF93EF93FF9389EEDB
:1010900091E00E940602FF91EF91BF91AF919F9165
:1010A0008F917F916F915F914F913F912F910F9011
:1010B0000FBE0F901F9018951F920F920FB60F92B0
:1010C00011242F938F939F93EF93FF93E091F90156
:1010D000F091FA018081E091FF01F091000282FD20
:1010E00012C09081809102028F5F8F732091030262
:1010F000821751F0E0910202F0E0E751FE4F958F28
:101100008093020201C08081FF91EF919F918F91A6
:101110002F910F900FBE0F901F901895CF93DF93D4
:10112000CDB7DEB7DF91CF910895CF93DF93CDB7E1
:10113000DEB7E985FA858181DF91CF910895CF935C
:10114000DF93CDB7DEB72FB7F8944091E50150910A
:10115000E6016091E7017091E8012FBFFC01538324
:10116000428384819581481B590B81E04B3F510597
:1011700008F480E0DF91CF910895CF93DF93CDB74E
:10118000DEB768E28D859E850E94F50660E08F855A
:1011900098890E94F50660E089899A890E94F5067F
:1011A00068E28B899C89DF91CF910C94F506CF92F0
:1011B000DF92EF92FF920F931F93CF938C016B01FD
:1011C000C42F7C0182E0E80EF11C6FEB71E0C701D7
:1011D0000E942108B601C7010E94FB07F801C083E5
:1011E00060E08C2FCF911F910F91FF90EF90DF90D7
:1011F000CF900C94B9060F931F93CF93DF93EC011C
:101200008B0188819981DC014D915C91EC81FD819C
:101210002DB73EB7225131090FB6F8943EBF0FBE2D
:101220002DBFADB7BEB7119622E101900D922A9560
:10123000E1F7DA011296ED91FC91139709958881F7
:1012400099819B838A8319830883F80120813181E6
:10125000EC81FD818DB79EB742970FB6F8949EBF83
:101260000FBE8DBFADB7BEB7119682E101900D9252
:101270008A95E1F7D901ED91FC91C8010995EDB787
:10128000FEB7B4960FB6F894FEBF0FBEEDBFDF9168
:10129000CF911F910F9108950F931F93CF93DF93D9
:1012A0008C01C0E0D0E0F801EC0FFD1F64916623D3
:1012B00041F089EE91E00E942802892B11F02196DD
:1012C000F2CF42E050E06DEB71E089EE91E00E94D8
:1012D00091018C0F9D1FDF91CF911F910F91089568
:1012E000DC0117968C91179714962C9114971596EC
:1012F0009C911597E22FF92FE80FF11DE80FF11DD2
:101300007183608317968C9117978F5F17968C93D4
:101310000895833081F028F4813099F08230A1F073
:1013200008958730A9F08830B9F08430D1F48091E5
:1013300080008F7D03C0809180008F778093800034
:10134000089584B58F7702C084B58F7D84BD0895DC
:101350008091B0008F7703C08091B0008F7D809323
:10136000B00008951F93CF93DF93282F30E0F90149
:10137000E455FE4F8491F901E856FE4FD491F901EE
:10138000EC57FE4FC491CC23C1F0162F81110E945F
:101390008909EC2FF0E0EE0FFF1FE658FE4FA591F4
:1013A000B4919FB7F894111104C08C91D095D823B3
:1013B00002C0EC91DE2BDC939FBFDF91CF911F9198
:1013C0000895CF93DF9300D000D000D0CDB7DEB723
:1013D000789484B5826084BD84B5816084BD85B510
:1013E000826085BD85B5816085BD80916E0081601C
:1013F00080936E00109281008091810082608093C2
:1014000081008091810081608093810080918000C3
:101410008160809380008091B10084608093B100EE
:101420008091B00081608093B00080917A008460E8
:1014300080937A0080917A00826080937A00809114
:101440007A00816080937A0080917A00806880932E
:101450007A001092C1000E9418057C0182E190E0A0
:101460000E940C0E8C0126E8A22E22E0B22E3EE74E
:10147000C32E31E0D32E4C0122E0820E911C1A8241
:1014800019821C821B821E821D82B501CE0101962B
:101490000E94FB0788E090E00E940C0E3C01D60100
:1014A0004D916D01BE016F5F7F4F0E94D708F4011F
:1014B000619271924F01CE0101960E941C08F6E0E4
:1014C000AF0EB11C21E8C21621E0D206C1F681E0C0
:1014D00090E00E940C0E2BE0DC012C93F801918728
:1014E000808781E090E00E940C0E25E0DC012C93C7
:1014F000F8019587848781E090E00E940C0E2AE035
:10150000DC012C93F8019387828781E090E00E94B0
:101510000C0E29E0DC012C93F8019787868786E082
:1015200090E00E940C0E6C0187E0D6018C9396E04F
:10153000B92E1196BC9261E00E94B90660E0F601F6
:1015400081810E94B906D801CD92DC9286E090E0BC
:101550000E940C0E6C01FC0115830483F182E08271
:10156000D7012D913C91EDB7FEB772970FB6F89465
:10157000FEBF0FBEEDBFADB7BEB7119682E1F80159
:1015800001900D928A95E1F7D901ED91FC91C70187
:101590000995F801D18AC08A1093D7010093D6012A
:1015A000D701ED91FC910084F185E02DC7010995EB
:1015B000E091F901F091FA0182E08083E091F50178
:1015C000F091F6011082E091F701F091F8018FECB3
:1015D000808310920102E091FD01F091FE01B08242
:1015E000E091FB01F091FC01808180618083E091BA
:1015F000FB01F091FC01808188608083E091FB0118
:10160000F091FC01808180688083E091FB01F09182
:10161000FC0180818F7D80830FB6F894DEBF0FBE02
:10162000CDBFE091D601F091D701C088D188D60115
:10163000ED90FC9011971496AD90BC90159710E02A
:10164000F7018681181710F0B12C71C09281838147
:10165000E92FF82FE10FF11DE10FF11D808191813C
:10166000FC01408151812DB73EB7225131090FB69F
:10167000F8943EBF0FBE2DBFADB7BEB7119622E1A5
:10168000F50101900D922A95E1F7DA01ED91FC91B7
:1016900009951F5F0FB6F894DEBF0FBECDBFD0CF48
:1016A0000B2D10E0000F111F1496ED91FC91159772
:1016B000E00FF11F0190F081E02D80819181FC010C
:1016C00040815181D6011496ED91FC9115972DB76B
:1016D0003EB7225131090FB6F8943EBF0FBE2DBF61
:1016E000ADB7BEB7119622E101900D922A95E1F7B0
:1016F000DA01ED91FC9109950FB6F894DEBF0FBEAB
:10170000CDBFD70114962D913C911597F901E00FAB
:10171000F11F0190F081E02D882389F062817381AF
:101720006115710519F0C6010E94FB08B394D70139
:1017300017968C911797B81608F4B2CF03C064813E
:101740007581EECF0E9497026CCF84EA92E00E94EE
:101750001C088EE992E00E941C0888E992E00E9431
:101760001C0882E992E00E941C088CE892E00E942A
:101770001C0886E892E00E941C0886EB92E00E941A
:101780001C0880EB92E00E941C088AEA92E00E940A
:101790001C0888EC92E00E941C0882EC92E00E94F7
:1017A0001C088CEB92E00E941C088AED92E00E94DB
:1017B0001C0884ED92E00E941C088EEC92E00E94CE
:1017C0001C088CEE92E00E941C0886EE92E00E94BB
:1017D0001C0880EE92E00E941C088EEF92E00E94AE
:1017E0001C0888EF92E00E941C0882EF92E00E94A1
:1017F0001C0880E193E00E941C088AE093E00E94AC
:101800001C0884E093E00E941C0882E293E00E949E
:101810001C088CE193E00E941C0886E193E00E9482
:101820001C0884E393E00E941C088EE293E00E946F
:101830001C0888E293E00E941C0886E493E00E9462
:101840001C0880E493E00E941C088AE393E00E9455
:101850001C0888E593E00E941C0882E593E00E9442
:101860001C088CE493E00E941C088AE693E00E9426
:101870001C0884E693E00E941C088EE593E00E9419
:101880001C088CE793E00E941C0886E793E00E9406
:101890001C0880E793E00E941C088EE893E00E94F9
:1018A0001C0888E893E00E941C0882E893E00E94EC
:1018B0001C0880EA93E00E941C088AE993E00E94D9
:1018C0001C0884E993E00E941C0882EB93E00E94CC
:1018D0001C088CEA93E00E941C0886EA93E00C94B2
:1018E0001C086BEA71E086EA93E00E94210860EB35
:1018F00071E08CEA93E00E94210867EB71E082EBD3
:1019000093E00E9421086BEA71E084E993E00E9471
:10191000210860EB71E08AE993E00E94210867EBFF
:1019200071E080EA93E00E9421086BEA71E082E8AE
:1019300093E00E94210860EB71E088E893E00E9448
:10194000210867EB71E08EE893E00E9421086BEAC2
:1019500071E080E793E00E94210860EB71E086E788
:1019600093E00E94210867EB71E08CE793E00E940E
:1019700021086BEA71E08EE593E00E94210860EB9C
:1019800071E084E693E00E94210867EB71E08AE64B
:1019900093E00E9421086BEA71E08CE493E00E94DE
:1019A000210860EB71E082E593E00E94210867EB7B
:1019B00071E088E593E00E9421086BEA71E08AE318
:1019C00093E00E94210860EB71E080E493E00E94C4
:1019D000210867EB71E086E493E00E9421086BEA3E
:1019E00071E088E293E00E94210860EB71E08EE2F2
:1019F00093E00E94210867EB71E084E393E00E948A
:101A000021086BEA71E086E193E00E94210860EB17
:101A100071E08CE193E00E94210867EB71E082E2C3
:101A200093E00E9421086BEA71E084E093E00E9459
:101A3000210860EB71E08AE093E00E94210867EBE7
:101A400071E080E193E00E9421086BEA71E082EF8F
:101A500092E00E94210860EB71E088EF92E00E9422
:101A6000210867EB71E08EEF92E00E9421086BEA9B
:101A700071E080EE92E00E94210860EB71E086EE5A
:101A800092E00E94210867EB71E08CEE92E00E94E8
:101A900021086BEA71E08EEC92E00E94210860EB75
:101AA00071E084ED92E00E94210867EB71E08AED1D
:101AB00092E00E9421086BEA71E08CEB92E00E94B8
:101AC000210860EB71E082EC92E00E94210867EB54
:101AD00071E088EC92E00E942108E9EEF1E01382C7
:101AE000128288EE93E0A0E0B0E084839583A68321
:101AF000B7838DE991E09183808385EC90E09587B1
:101B0000848784EC90E09787868780EC90E0918BC7
:101B1000808B81EC90E0938B828B82EC90E0958BB4
:101B2000848B86EC90E0978B868B118E128E138EB1
:101B3000148E6BEA71E08AEA92E00E94210860EB61
:101B400071E080EB92E00E94210867EB71E086EB88
:101B500092E00E9421086BEA71E086E892E00E9420
:101B6000210860EB71E08CE892E00E94210867EBAD
:101B700071E082E992E00E9421086BEA71E088E955
:101B800092E00E94210860EB71E08EE992E00E94F1
:101B9000210867EB71E084EA92E00C9421082F920F
:101BA0003F924F925F926F927F928F929F92AF92ED
:101BB000BF92CF92DF92EF92FF920F931F93CF933A
:101BC000DF93CDB7DEB7CA1BDB0B0FB6F894DEBFD1
:101BD0000FBECDBF09942A88398848885F846E84F7
:101BE0007D848C849B84AA84B984C884DF80EE8041
:101BF000FD800C811B81AA81B981CE0FD11D0FB64A
:101C0000F894DEBF0FBECDBFED010895EE0FFF1FAC
:101C10000590F491E02D09940F931F93CF93DF93D8
:101C20008230910510F482E090E0E091BA03F091E7
:101C3000BB0320E030E0A0E0B0E0309719F1408134
:101C400051810281138148175907C8F084179507FD
:101C500069F4109731F012960C93129713961C9317
:101C600027C00093BA031093BB0322C0211531058E
:101C700019F04217530718F49A01BD01EF01DF0173
:101C8000F801DBCF21153105F9F0281B390B243081
:101C9000310580F48A819B816115710521F0FB017A
:101CA0009383828304C09093BB038093BA03FE01A5
:101CB000329644C0FE01E20FF31F819391932250AC
:101CC0003109398328833AC02091B8033091B90390
:101CD000232B41F420910201309103013093B90389
:101CE0002093B803209100013091010121153105A5
:101CF00041F42DB73EB74091040150910501241BDA
:101D0000350BE091B803F091B903E217F307A0F4A3
:101D10002E1B3F0B2817390778F0AC014E5F5F4F41
:101D20002417350748F04E0F5F1F5093B9034093B7
:101D3000B8038193919302C0E0E0F0E0CF01DF911E
:101D4000CF911F910F910895CF93DF93009709F4DE
:101D500081C0FC01329713821282A091BA03B09124
:101D6000BB03109781F420813181820F931F209152
:101D7000B8033091B9032817390751F5F093B90327
:101D8000E093B80367C0ED0120E030E0CE17DF0735
:101D900040F44A815B819E0141155105F1F0EA0151
:101DA000F5CFD383C28340815181840F951FC8171B
:101DB000D90759F488819981840F951F02969183E0
:101DC00080838A819B81938382832115310529F445
:101DD000F093BB03E093BA033DC0E901FB83EA83C0
:101DE00049915991C40FD51FEC17FD0761F480810B
:101DF0009181840F951F0296E901998388838281DE
:101E000093819B838A83E0E0F0E012968D919C9110
:101E10001397009719F0FD01DC01F7CF8D919C918C
:101E200011979D012E5F3F4F820F931F2091B803A2
:101E30003091B9032817390769F4309729F41092C3
:101E4000BB031092BA0302C013821282B093B9038B
:101E5000A093B803DF91CF910895A0E0B0E0E3E351
:101E6000FFE00C94D30DEC01009721F4CB010E940C
:101E70000C0EB4C0FC01E60FF71F9C012250310983
:101E8000E217F30708F4A8C0D9010D911C9111972E
:101E900006171707B0F00530110508F49BC0C801FC
:101EA00004978617970708F495C002501109061B7E
:101EB000170B019311936D937C93CF010E94A40E95
:101EC00089C05B01A01AB10A4C01800E911EA0913D
:101ED000BA03B091BB03612C712CE12CF12C10974B
:101EE00009F446C08D919C911197A815B905B1F5DB
:101EF0006C0142E0C40ED11CCA14DB0478F14C0121
:101F00008A189B08640142E0C40ED11C1296BC9052
:101F100012971396AC91B5E0CB16D10440F0B28283
:101F2000A38391828082D9016D937C9309C00E5F57
:101F30001F4F800F911FF90191838083EB2DFA2FA2
:101F4000E114F10431F0D7011396FC93EE9312974C
:101F500041C0F093BB03E093BA033CC06816790616
:101F600008F43C017D0112960D90BC91A02DB7CFD5
:101F70008091B8039091B90388169906E1F466162A
:101F80007706C8F48091000190910101009741F417
:101F90008DB79EB74091040150910501841B950BAC
:101FA000E817F907C8F4F093B903E093B803F9010F
:101FB000718360830FC0CB010E940C0E7C010097DF
:101FC00059F0A801BE010E94F80FCE010E94A40E94
:101FD000C70104C0CE0102C080E090E0CDB7DEB7FB
:101FE000EEE00C94EF0D81E090E0F8940C94081072
:101FF000FB01DC0102C001900D9241505040D8F726
:102000000895FB01DC0101900D920020E1F7089595
:1020100010E0C1EED0E004C0FE010E94060E219641
:0A202000C23ED107C9F7F894FFCFC4
:10202A000000BC0320000000000024065C078F03A8
:10203A003904BA02000000007706770677067706A9
:10204A00BA02000000002401000000003C01000068
:10205A00000054010000000084057A057903170482
:10206A00BA02000000000C0100000000D405CA05F5
:10207A008403D703BA02000000001A060000000019
:10208A002E0600000000B405AA0517033605BA0299
:10209A00000000000406FA053C035805BA020E10B7
:1020AA000F00000000BD08000000009508000000B5
:1020BA00009F08000000008E08000000002802911E
:1020CA0001BF017502F001CE01E2014C65667400A0
:1020DA0043656E746572005269676874000D0A0080
:00000001FF
