:100000000C9453000C947B000C947B000C947B00AC
:100010000C947B000C947B000C947B000C947B0074
:100020000C947B000C947B000C947B000C947B0064
:100030000C947B000C947B000C947B000C947B0054
:100040000C94E2010C947B000C9452020C942C0250
:100050000C947B000C947B000C947B000C947B0034
:100060000C947B000C947B0000000000250028000D
:100070002B0000000000240027002A0004040404D0
:100080000404040402020202020203030303030342
:10009000010204081020408001020408102001021F
:1000A00004081020840211241FBECFEFD8E0DEBF69
:1000B000CDBF11E0A0E0B1E0E8E6FAE002C00590B3
:1000C0000D92A234B107D9F721E0A2E4B1E001C05A
:1000D0001D92A03FB207E1F710E0C3E5D0E004C0F5
:1000E0002197FE010E940604C235D107C9F70E947C
:1000F00050030C9432050C9400003FB7F8948091A3
:10010000470190914801A0914901B0914A0126B55B
:10011000A89B05C02F3F19F00196A11DB11D3FBF3F
:10012000BA2FA92F982F8827820F911DA11DB11DCD
:10013000BC01CD0142E0660F771F881F991F4A95C9
:10014000D1F70895CF92DF92EF92FF920F931F9312
:10015000CF93DF936C017A018B01C0E0D0E0CE1524
:10016000DF0581F0D8016D918D01D601ED91FC91F3
:100170000190F081E02DC6010995892B11F021969F
:10018000EECF7E01C701DF91CF911F910F91FF90BC
:10019000EF90DF90CF900895089580E090E008956B
:1001A000FC01538D448D252F30E0842F90E0821B7D
:1001B000930B541710F0CF96089501970895FC0102
:1001C000918D828D981761F0828DDF01A80FB11D8E
:1001D0005D968C91928D9F5F9F73928F90E00895B2
:1001E0008FEF9FEF0895FC01918D828D981731F06C
:1001F000828DE80FF11D858D90E008958FEF9FEFC0
:100200000895FC01918D228D892F90E0805C9F4F95
:10021000821B91098F73992708958BE491E00E94C6
:10022000010121E0892B09F420E0822F0895FC01CF
:10023000848DDF01A80FB11DA35ABF4F2C91848D6F
:1002400090E001968F739927848FA689B7892C93A4
:10025000A089B1898C91837080648C93938D848DF7
:10026000981306C00288F389E02D80818F7D8083FA
:100270000895EF92FF920F931F93CF93DF93EC01BA
:1002800081E0888F9B8D8C8D981305C0E889F98952
:10029000808185FD26C0F62E0B8D10E00F5F1F4F6D
:1002A0000F731127E02E8C8DE8120CC00FB607FCDF
:1002B000FACFE889F989808185FFF5CFCE010E94C8
:1002C0001701F1CF8B8DFE01E80FF11DE35AFF4FAF
:1002D000F0829FB7F8940B8FEA89FB898081806256
:1002E0000AC09FB7F894EE89FF896083E889F9898D
:1002F00080818370806480839FBF81E090E0DF9184
:10030000CF911F910F91FF90EF900895CF93DF93BE
:10031000EC01888D8823C9F0EA89FB89808185FDFD
:1003200005C0A889B9898C9186FD0FC00FB607FC5E
:10033000F5CF808185FFF2CFA889B9898C9185FF9F
:10034000EDCFCE010E941701E7CFDF91CF91089545
:1003500080E090E0892B29F00E940D0181110C941E
:1003600000000895CF93DF93009779F0FC0101908E
:100370000020E9F73197AF01481B590BBC018BE412
:1003800091E00E94A200EC0102C0C0E0D0E042E097
:1003900050E062E271E08BE491E00E94A2008C0FD9
:1003A0009D1FDF91CF91089585E291E00C94B201F9
:1003B0008AE291E00C94B2018CE391E00C94B201DA
:1003C0000E942D051F920F920FB60F9211242F93AA
:1003D0003F938F939F93AF93BF93809143019091ED
:1003E0004401A0914501B09146013091420123E0C2
:1003F000230F2D3720F40196A11DB11D05C026E85D
:10040000230F0296A11DB11D209342018093430149
:1004100090934401A0934501B09346018091470118
:1004200090914801A0914901B0914A010196A11D06
:10043000B11D8093470190934801A0934901B09367
:100440004A01BF91AF919F918F913F912F910F9052
:100450000FBE0F901F9018951F920F920FB60F921C
:1004600011242F933F934F935F936F937F938F93B9
:100470009F93AF93BF93EF93FF938BE491E00E9420
:100480001701FF91EF91BF91AF919F918F917F9154
:100490006F915F914F913F912F910F900FBE0F90F1
:1004A0001F9018951F920F920FB60F9211242F9341
:1004B0008F939F93EF93FF93E0915B01F0915C0129
:1004C0008081E0916101F091620182FD12C0908112
:1004D000809164018F5F8F7320916501821751F0C5
:1004E000E0916401F0E0E55BFE4F958F809364013D
:1004F00001C08081FF91EF919F918F912F910F907B
:100500000FBE0F901F9018950F931F93CF93DF93FB
:1005100010924E0110924D0188EE93E0A0E0B0E001
:1005200080934F0190935001A0935101B0935201D9
:100530008AE091E090934C0180934B0185EC90E030
:10054000909358018093570184EC90E090935A0166
:100550008093590180EC90E090935C0180935B0163
:1005600081EC90E090935E0180935D0182EC90E0DD
:100570009093600180935F0186EC90E0909362011C
:1005800080936101109264011092650110926601DE
:100590001092670182E090E00E940C04EC018CE173
:1005A00091E09983888382E090E00E940C048C01A2
:1005B0008BE090E00E940C04DC0112961C921297D2
:1005C00087E08C9386E011968C931197E7E9F0E031
:1005D0004491E3E8F0E084918823A1F090E0880F53
:1005E000991FFC01EE58FF4F25913491FC01E85909
:1005F000FF4F859194918FB7F894F9019081942BD6
:1006000090838FBF11962C91119730E0F901E0573C
:10061000FF4F8491F901E458FF4F24912223D9F030
:1006200030E0220F331FF901EE58FF4F45915491EE
:10063000F901E859FF4F259134916FB7F894FA0109
:100640009081782F7095892F87238083F90180818D
:10065000872380836FBF40E25EE460E070E017961E
:100660004D935D936D937C931A97F801B183A083AA
:100670001093E9010093E80186E090E00E940C04E9
:1006800028EE31E0FC0131832083D383C283909331
:10069000EB018093EA01DF91CF911F910F910895B3
:1006A000789484B5826084BD84B5816084BD85B54D
:1006B000826085BD85B5816085BD80916E00816059
:1006C00080936E00109281008091810082608093FF
:1006D0008100809181008160809381008091800001
:1006E0008160809380008091B10084608093B1002C
:1006F0008091B00081608093B00080917A00846026
:1007000080937A0080917A00826080937A00809151
:100710007A00816080937A0080917A00806880936B
:100720007A001092C100E0915B01F0915C0182E0DF
:100730008083E0915701F09158011082E0915901B6
:10074000F0915A018FEC808310926301E0915F0178
:10075000F091600186E08083E0915D01F0915E019F
:10076000808180618083E0915D01F0915E018081F4
:1007700088608083E0915D01F0915E0180818068F6
:100780008083E0915D01F0915E0180818F7D8083A7
:100790000E947D006B017C0184EF882E9924939444
:1007A000A12CB12C0E947D00DC01CB018C199D098C
:1007B000AE09BF09883E9340A105B10598F321E039
:1007C000821A9108A108B10888EEC80E83E0D81EED
:1007D000E11CF11C81149104A104B10419F7E0910A
:1007E000EA01F091EB01828193810190F081E02D8B
:1007F0004081518162817381DC01ED91FC91028025
:10080000F381E02D09950E94A801C2CFEE0FFF1FD2
:100810000590F491E02D09940F931F93CF93DF93EC
:100820008230910510F482E090E0E091EE01F091C9
:10083000EF0120E030E0A0E0B0E0309719F1408116
:1008400051810281138148175907C8F08417950711
:1008500069F4109731F012960C93129713961C932B
:1008600027C00093EE011093EF0122C0211531053E
:1008700019F04217530718F49A01BD01EF01DF0187
:10088000F801DBCF21153105F9F0281B390B243095
:10089000310580F48A819B816115710521F0FB018E
:1008A0009383828304C09093EF018093EE01FE0155
:1008B000329644C0FE01E20FF31F819391932250C0
:1008C0003109398328833AC02091EC013091ED0140
:1008D000232B41F420910201309103013093ED016B
:1008E0002093EC0120910001309101012115310587
:1008F00041F42DB73EB74091040150910501241BEE
:10090000350BE091EC01F091ED01E217F307A0F453
:100910002E1B3F0B2817390778F0AC014E5F5F4F55
:100920002417350748F04E0F5F1F5093ED01409399
:10093000EC018193919302C0E0E0F0E0CF01DF9100
:10094000CF911F910F910895CF93DF93009709F4F2
:1009500081C0FC01329713821282A091EE01B09106
:10096000EF01109781F420813181820F931F209134
:10097000EC013091ED012817390751F5F093ED01A5
:10098000E093EC0167C0ED0120E030E0CE17DF0717
:1009900040F44A815B819E0141155105F1F0EA0165
:1009A000F5CFD383C28340815181840F951FC8172F
:1009B000D90759F488819981840F951F02969183F4
:1009C00080838A819B81938382832115310529F459
:1009D000F093EF01E093EE013DC0E901FB83EA8370
:1009E00049915991C40FD51FEC17FD0761F480811F
:1009F0009181840F951F0296E901998388838281F2
:100A000093819B838A83E0E0F0E012968D919C9124
:100A10001397009719F0FD01DC01F7CF8D919C91A0
:100A200011979D012E5F3F4F820F931F2091EC0184
:100A30003091ED012817390769F4309729F41092A5
:100A4000EF011092EE0102C013821282B093ED0109
:100A5000A093EC01DF91CF91089581E090E0F894AC
:080A60000C943205F894FFCF5D
:100A68000000F0012000000000003901A200D000C1
:100A780086010101DF00F30000000000DC01D8015D
:100A8800D4010D0A004578697400466F7277617267
:100A98006420434152494E484F4F4F00456E74659C
:020AA8007200DA
:00000001FF
