:100000000C9462000C948A000C948A000C948A0070
:100010000C948A000C948A000C948A000C948A0038
:100020000C948A000C948A000C948A000C948A0028
:100030000C948A000C948A000C948A000C948A0018
:100040000C9433080C948A000C94A3080C947D083B
:100050000C948A000C948A000C948A000C948A00F8
:100060000C948A000C948A000000000023002600F3
:10007000290000000000240027002A0000000000E2
:10008000250028002B0004040404040404040202D4
:100090000202020203030303030301020408102007
:1000A0004080010204081020010204081020000012
:1000B0000008000201000003040700000000000027
:1000C00000007D0A11241FBECFEFD8E0DEBFCDBFF8
:1000D00011E0A0E0B1E0E0EBF7E102C005900D9285
:1000E000AC3FB107D9F722E0ACEFB1E001C01D92FF
:1000F000A63CB207E1F710E0C2E6D0E004C02197C9
:10010000FE010E94AA0AC136D107C9F70E94D5088C
:100110000C94D60B0C9400000F931F93CF93DF9396
:10012000EC018B0188819981DC014D915C91EC811E
:10013000FD812DB73EB7225131090FB6F8943EBF6D
:100140000FBE2DBFADB7BEB7119622E101900D9243
:100150002A95E1F7DA011296ED91FC911397099532
:10016000888199819B838A8319830883F801208180
:100170003181EC81FD818DB79EB742970FB6F8941F
:100180009EBF0FBE8DBFADB7BEB7119682E1019085
:100190000D928A95E1F7D901ED91FC91C80109957D
:1001A000EDB7FEB7B4960FB6F894FEBF0FBEEDBF25
:1001B000DF91CF911F910F910895DC0116968C91DC
:1001C000169719962C9119971A969C911A97E22FC7
:1001D000F92FE80FF11DE80FF11D7183608316966A
:1001E0008C9116978F5F16968C930895CF93DF931B
:1001F000CDB7DEB72FB7F8944091BE025091BF0241
:100200006091C0027091C1022FBFFC0153834283F1
:1002100084819581481B590B81E04B3F510508F4BF
:1002200080E0DF91CF910895CF93DF93CDB7DEB714
:10023000EF81F8858181DF91CF910895833081F03E
:1002400028F4813099F08230A1F008958730A9F028
:100250008830B9F08430D1F4809180008F7D03C064
:10026000809180008F7780938000089584B58F7788
:1002700002C084B58F7D84BD08958091B0008F77D2
:1002800003C08091B0008F7D8093B00008951F93CC
:10029000CF93DF93282F30E0F901E255FF4F84918F
:1002A000F901E656FF4FD491F901EA57FF4FC49187
:1002B000CC23C1F0162F81110E941E01EC2FF0E01B
:1002C000EE0FFF1FE458FF4FA591B4919FB7F8942C
:1002D000111104C08C91D095D82302C0EC91DE2B73
:1002E000DC939FBFDF91CF911F910895CF93DF9350
:1002F00090E0FC01E656FF4F2491FC01EA57FF4FC6
:100300008491882361F190E0880F991FFC01EE58D9
:10031000FF4FC591D491FC01E458FF4FA591B491D2
:10032000611109C09FB7F894888120958223888342
:10033000EC912E230BC0623061F49FB7F894888152
:10034000322F309583238883EC912E2B2C939FBFE3
:1003500006C08FB7F894E8812E2B28838FBFDF91DA
:10036000CF910895CF93DF93CDB7DEB7ED81FE81B6
:100370008181EF81F8852181E985FA859181882342
:1003800031F0211103C081E0892701C080E0DF91B5
:10039000CF910895CF93DF93CDB7DEB7ED81FE8186
:1003A0008181EF81F8852181E985FA859181882312
:1003B00031F0222319F081E0892701C080E0DF912C
:1003C000CF910895CF93DF93CDB7DEB7ED81FE8156
:1003D0009181EF81F8858181E985FA852181222348
:1003E00029F0882321F081E0892701C080E0DF9196
:1003F000CF910895CF93DF93CDB7DEB7ED81FE8126
:100400009181EF81F8852181E985FA8581818823B1
:1004100031F0211103C081E0892701C080E0DF9124
:10042000CF910895CF93DF93CDB7DEB7DF91CF9112
:100430000895AF92BF92CF92DF92EF92FF920F9307
:100440001F93CF93DF93CDB7DEB78E01035F1F4FAE
:100450006E0183E1C80ED11CF801E190F1908F018B
:10046000F701208130E0F901E255FF4F8491F90155
:10047000E656FF4FB490F901EA57FF4FA490AA2027
:1004800079F081110E941E01EA2DF0E0EE0FFF1FAE
:10049000E859FF4FA591B491EC91BE2281E009F497
:1004A00080E08170F7018183C016D106A9F6DF9143
:1004B000CF911F910F91FF90EF90DF90CF90BF9061
:1004C000AF9008950F931F93CF93DF93D62F062FEE
:1004D00010E0FC01C08161E08C2F0E9476010115C3
:1004E000110509F447C00F3F110509F445C0EC2F71
:1004F000F0E0E255FF4FE491E330F9F048F4E130E9
:10050000B9F0E230A1F584B5806284BDD8BD3CC0AD
:10051000E730E9F0E83019F1E43049F580918000E6
:1005200080628093800010938B0000938A002CC01F
:1005300084B5806884BDD7BD27C080918000806865
:100540008093800010938900009388001DC08091E3
:10055000B00080688093B000D093B30015C0809144
:10056000B00080628093B000D093B4000DC000381A
:10057000110514F460E001C061E08C2FDF91CF9190
:100580001F910F910C944701DF91CF911F910F9113
:100590000895CF93DF93CDB7DEB768E28B859C8556
:1005A0000E94620260E08D859E850E94620260E08A
:1005B0008F8598890E94620268E289899A89DF9111
:1005C000CF910C946202CF93DF93CDB7DEB760E09A
:1005D0008B859C850E94620268E28D859E850E94C3
:1005E000620268E28F8598890E94620260E08989D0
:1005F0009A89DF91CF910C946202CF93DF93CDB7AC
:10060000DEB760E08B859C850E94620269E18D8582
:100610009E850E94620260E08F8598890E94620236
:1006200069E189899A89DF91CF910C9462023FB781
:10063000F8948091B2029091B302A091B402B0916B
:10064000B50226B5A89B05C02F3F19F00196A11D44
:10065000B11D3FBFBA2FA92F982F8827820F911D58
:10066000A11DB11DBC01CD0142E0660F771F881F9F
:10067000991F4A95D1F70895CF92DF92EF92FF929A
:100680000F931F93CF93DF936C017A018B01C0E02E
:10069000D0E0CE15DF0581F0D8016D918D01D60136
:1006A000ED91FC910190F081E02DC6010995892B17
:1006B00011F02196EECF7E01C701DF91CF911F91FE
:1006C0000F91FF90EF90DF90CF900895089580E014
:1006D00090E00895FC01538D448D252F30E0842F48
:1006E00090E0821B930B541710F0CF96089501975A
:1006F0000895FC01918D828D981761F0828DDF0144
:10070000A80FB11D5D968C91928D9F5F9F73928F04
:1007100090E008958FEF9FEF0895FC01918D828DF9
:10072000981731F0828DE80FF11D858D90E00895C6
:100730008FEF9FEF0895FC01918D228D892F90E01E
:10074000805C9F4F821B91098F739927089582E1E6
:1007500092E00E949B0321E0892B09F420E0822F84
:100760000895FC01848DDF01A80FB11DA35ABF4F6E
:100770002C91848D90E001968F739927848FA689A0
:10078000B7892C93A089B1898C91837080648C93F4
:10079000938D848D981306C00288F389E02D8081A3
:1007A0008F7D80830895EF92FF920F931F93CF93D5
:1007B000DF93EC0181E0888F9B8D8C8D981305C0B1
:1007C000E889F989808185FD26C0F62E0B8D10E021
:1007D0000F5F1F4F0F731127E02E8C8DE8120CC096
:1007E0000FB607FCFACFE889F989808185FFF5CF3C
:1007F000CE010E94B103F1CF8B8DFE01E80FF11DF8
:10080000E35AFF4FF0829FB7F8940B8FEA89FB8978
:10081000808180620AC09FB7F894EE89FF89608367
:10082000E889F98980818370806480839FBF81E03B
:1008300090E0DF91CF911F910F91FF90EF9008957D
:10084000CF93DF93EC01888D8823C9F0EA89FB8977
:10085000808185FD05C0A889B9898C9186FD0FC06E
:100860000FB607FCF5CF808185FFF2CFA889B98943
:100870008C9185FFEDCFCE010E94B103E7CFDF91D0
:10088000CF91089580E090E0892B29F00E94A70382
:1008900081110C9400000895DC0115968C91159738
:1008A00017962C91179718969C911897E22FF92F6D
:1008B000E80FF11DE80FF11D7183608315968C918F
:1008C00015978F5F15968C9308958F929F92AF9294
:1008D000BF92CF92DF92EF92FF92CF93DF93CDB78B
:1008E000DEB761E08B899C890E94620261E08D899C
:1008F0009E890E94620261E08F89988D0E94620247
:1009000061E0898D9A8D0E9462020E9417034B015B
:100910005C0184EFC82EDD24D394E12CF12C0E94DD
:100920001703DC01CB0188199909AA09BB09883E84
:100930009340A105B10598F321E0C21AD108E1085E
:10094000F10888EE880E83E0981EA11CB11CC1142A
:10095000D104E104F10419F7DF91CF91FF90EF90FA
:10096000DF90CF90BF90AF909F908F900895CF93DE
:10097000DF93EC0181E08A83E881F9810084F185CD
:10098000E02DCE010995E881F9810680F781E02DFF
:10099000CE01DF91CF910994CF93DF93CDB7DEB72E
:1009A000DC0112962C911297211108C0ED91FC9157
:1009B0000480F581E02DDF91CF910994DF91CF91F3
:1009C0000895CF93DF93CDB7DEB722E1FE013596D0
:1009D000DF0101900D922A95E1F7DF91CF910C9400
:1009E000CC04CF93DF93CDB7DEB722E1FE0135967D
:1009F000DF0101900D922A95E1F7DF91CF910C94E0
:100A0000CC04CF93DF93CDB7DEB722E1FE0135965C
:100A1000DF0101900D922A95E1F7DF91CF910C94BF
:100A2000CC04CF93DF93CDB7DEB7DF91CF9108959C
:100A30008091BA029091BB02892B69F486E090E024
:100A40000E94B00A29EA31E0FC01318320839093AF
:100A5000BB028093BA028091BA029091BB020895C2
:100A6000CF93DF93CDB7DEB72DB73EB72251310913
:100A70000FB6F8943EBF0FBE2DBFADB7BEB71196EF
:100A800022E1FE01359601900D922A95E1F70E9430
:100A9000CC040E9418052FB7F8944091BE025091E3
:100AA000BF026091C0027091C1022FBFFC0155834B
:100AB00044830FB6F894DEBF0FBECDBFDF91CF9158
:100AC0000895CF93DF93CDB7DEB72DB73EB7225150
:100AD00031090FB6F8943EBF0FBE2DBFADB7BEB7FC
:100AE000119622E1FE01359601900D922A95E1F7CB
:100AF0000E94CC040E9418052FB7F8944091BE02C2
:100B00005091BF026091C0027091C1022FBFFC01E1
:100B1000558344830FB6F894DEBF0FBECDBFDF917F
:100B2000CF9108958091B8029091B902892B69F410
:100B300082E090E00E94B00A23EA31E0FC013183B8
:100B400020839093B9028093B8028091B80290916B
:100B5000B902089580910C0290910D02892B69F4DD
:100B600082E090E00E94B00A20E631E0FC0131838F
:100B7000208390930D0280930C0280910C0290913F
:100B80000D020895CF93DF93EC018091BC02909108
:100B9000BD02892B69F482E090E00E94B00A2FEA3E
:100BA00031E0FC01318320839093BD028093BC022D
:100BB0006091BC027091BD02CE010E944C040E9463
:100BC000AA05BC01CE01DF91CF910C944C04CF93C8
:100BD000DF93EC018091B6029091B702892B69F402
:100BE00082E090E00E94B00A2DE931E0FC013183FF
:100BF00020839093B7028093B6026091B602709101
:100C0000B702CE010E944C040E94AA05BC01CE018D
:100C1000DF91CF910C944C0480910A0290910B02C9
:100C2000892B69F482E090E00E94B00A2AE531E065
:100C3000FC013183208390930B0280930A02809100
:100C40000A0290910B020895CF93DF93EC010E946A
:100C50000C06BC01CE01DF91CF910C944C04CF93D4
:100C6000DF93EC010E940C06BC01CE01DF91CF9115
:100C70000C944C04CF93DF93EC010E940C06BC0152
:100C8000CE010E944C040E94AA05BC01CE01DF9156
:100C9000CF910C944C04CF93DF93EC018AE091E068
:100CA000998388837C836B831A821D821E8288E2EB
:100CB00090E00E94B00A98878F8388E290E00E94BB
:100CC000B00A9A878987DF91CF910895CF93DF93F8
:100CD0008091100290911102892B89F48BE090E0B1
:100CE0000E94B00AEC0161EB71E00E944B0684E7C0
:100CF00091E099838883D0931102C0931002809170
:100D0000100290911102DF91CF910895EF92FF921E
:100D10000F931F93CF93DF93EC010E9418057C0182
:100D20000E9466068C0186E090E00E94B00AFC01F9
:100D3000F182E0821383028315821482BC01CE010A
:100D4000DF91CF911F910F91FF90EF900C94DD00F8
:100D5000CF93DF9380910E0290910F02892B89F43B
:100D60008BE090E00E94B00AEC016FEB71E00E9412
:100D70004B0686E691E099838883D0930F02C09357
:100D80000E0280910E0290910F02DF91CF91089593
:100D9000EF92FF920F931F93CF93DF93EC010E948A
:100DA00018057C010E94A8068C0186E090E00E9454
:100DB000B00AFC01F182E08213830283158214825F
:100DC000BC01CE01DF91CF911F910F91FF90EF9069
:100DD0000C94DD00EF92FF920F931F93CF93DF935C
:100DE000EC018091FE019091FF01892B69F482E072
:100DF00090E00E94B00A26E231E0FC0131832083BA
:100E00009093FF018093FE01E090FE01F090FF01BE
:100E10000E94A8068C0186E090E00E94B00AFC01C6
:100E2000F182E0821383028315821482BC01CE0119
:100E30000E94DD008091000290910102892B69F4EB
:100E400082E090E00E94B00A2CE231E0FC013183A4
:100E500020839093010280930002E0900002F090C2
:100E600001020E9466068C0186E090E00E94B00AB2
:100E7000FC01F182E0821383028315821482BC019B
:100E8000CE010E94DD008091020290910302892B25
:100E900069F482E090E00E94B00A22E331E0FC01B4
:100EA000318320839093030280930202E090020238
:100EB000F09003028091040290910502892B91F435
:100EC0008BE090E00E94B00A8C016CEC71E00E9413
:100ED0004B0688E391E0F80191838083109305022B
:100EE00000930402009104021091050286E090E054
:100EF0000E94B00AFC01F182E08213830283158212
:100F00001482BC01CE010E94DD0080910602909106
:100F10000702892B69F482E090E00E94B00A26E47F
:100F200031E0FC0131832083909307028093060215
:100F3000E0900602F0900702809108029091090269
:100F4000892B91F48BE090E00E94B00A8C016CED4B
:100F500071E00E944B068CE491E0F801918380835C
:100F600010930902009308020091080210910902EF
:100F700086E090E00E94B00AFC01F182E0821383D7
:100F8000028315821482BC01CE01DF91CF911F91A3
:100F90000F91FF90EF900C94DD00CF93DF93809141
:100FA000FC019091FD01892B89F48BE090E00E9477
:100FB000B00AEC016DEE71E00E944B0688E191E011
:100FC00099838883D093FD01C093FC018091FC013B
:100FD0009091FD01DF91CF910895EF92FF920F93D1
:100FE0001F93CF93DF93EC010E9492057C010E9436
:100FF000CD078C0186E090E00E94B00AFC01F182EE
:10100000E0821383028315821482BC01CE01DF913A
:10101000CF911F910F91FF90EF900C94DD00EF9214
:10102000FF920F931F93CF93DF93EC010E949205E1
:101030007C010E94CD078C0186E090E00E94B00AFE
:10104000FC01F182E0821383028315821482BC01C9
:10105000CE01DF91CF911F910F91FF90EF900C94F3
:10106000DD000E94D10B1F920F920FB60F92112438
:101070002F933F938F939F93AF93BF938091BE0223
:101080009091BF02A091C002B091C1023091B10213
:1010900023E0230F2D3720F40196A11DB11D05C0BB
:1010A00026E8230F0296A11DB11D2093B102809363
:1010B000BE029093BF02A093C002B093C102809180
:1010C000B2029091B302A091B402B091B502019620
:1010D000A11DB11D8093B2029093B302A093B402FC
:1010E000B093B502BF91AF919F918F913F912F9196
:1010F0000F900FBE0F901F9018951F920F920FB672
:101100000F9211242F933F934F935F936F937F938D
:101110008F939F93AF93BF93EF93FF9382E192E0FE
:101120000E94B103FF91EF91BF91AF919F918F9179
:101130007F916F915F914F913F912F910F900FBED3
:101140000F901F9018951F920F920FB60F921124B7
:101150002F938F939F93EF93FF93E0912202F0914F
:1011600023028081E0912802F091290282FD12C0C1
:10117000908180912B028F5F8F7320912C028217B8
:1011800051F0E0912B02F0E0EE5EFD4F958F8093E1
:101190002B0201C08081FF91EF919F918F912F9140
:1011A0000F900FBE0F901F901895789484B58260B1
:1011B00084BD84B5816084BD85B5826085BD85B5FB
:1011C000816085BD80916E00816080936E00109279
:1011D00081008091810082608093810080918100F4
:1011E0008160809381008091800081608093800085
:1011F0008091B10084608093B1008091B0008160E3
:101200008093B00080917A00846080937A0080910E
:101210007A00826080937A0080917A008160809366
:101220007A0080917A00806880937A001092C100E1
:101230000E94CD077C0182E190E00E94B00AEC019F
:1012400026E9A22E21E0B22E00E911E04C0184E053
:1012500090E00E94B00A6C01D5018D915D01F8010A
:10126000219131918F01D60113963C932E931297C1
:101270008C9360E00E947601F401C192D1924F01FB
:10128000F1E006391F0719F781E090E00E94B00AEB
:101290002BE0DC012C939F838E8381E090E00E9401
:1012A000B00A25E0FC0120839B878A8781E090E0DB
:1012B0000E94B00A2AE0DC012C939987888781E09C
:1012C00090E00E94B00A29E0FC0120839D878C8772
:1012D00086E090E00E94B00A8C0187E0D8018C93F0
:1012E00096E0D92E1196DC9261E00E94760160E0D2
:1012F000F80181810E9476011F870E8786E090E0C9
:101300000E94B00A8C01DC011596DC93CE931497F1
:10131000ED92FC92F701208131818DB79EB7429703
:101320000FB6F8949EBF0FBE8DBFADB7BEB7119676
:1013300082E1FE0101900D928A95E1F7D901ED91CC
:10134000FC91C7010995198B088BD093B002C0930B
:10135000AF02E0912202F091230282E08083E091CB
:101360001E02F0911F021082E0912002F0912102F2
:101370008FEC808310922A02E0912602F0912702DE
:10138000D082E0912402F0912502808180618083E7
:10139000E0912402F0912502808188608083E091B1
:1013A0002402F0912502808180688083E0912402EC
:1013B000F091250280818F7D8083EDB7FEB7729614
:1013C0000FB6F894FEBF0FBEEDBFE091AF02F091F3
:1013D000B002E088F188D7010D911C911197149605
:1013E000CD90DC901597C0E0F8018581C81710F00A
:1013F000D12C75C097818085E92FF82FEC0FF11D56
:10140000EC0FF11D80819181FC01408151812DB74C
:101410003EB7225131090FB6F8943EBF0FBE2DBF23
:10142000ADB7BEB7119622E1F60101900D922A9553
:10143000E1F7DA01ED91FC910995CF5FEDB7FEB7C9
:1014400072960FB6F894FEBF0FBEEDBFCDCFCD2D77
:10145000D0E0CC0FDD1F1996ED91FC911A97EC0F9F
:10146000FD1F0190F081E02D80819181FC01408180
:101470005181D7011496ED91FC9115972DB73EB788
:10148000225131090FB6F8943EBF0FBE2DBFADB744
:10149000BEB7119622E101900D922A95E1F7DA018B
:1014A000ED91FC910995EDB7FEB772960FB6F894E1
:1014B000FEBF0FBEEDBFD80119962D913C911A9732
:1014C000C20FD31FE881F981882389F0628173817B
:1014D0006115710519F0C7010E948C00D394D801E1
:1014E00016968C911697D81608F4B1CF03C0648174
:1014F0007581EECF0E94420468CFE2E1F2E01382F0
:10150000128288EE93E0A0E0B0E084839583A68306
:10151000B78382E891E09183808385EC90E09587A2
:10152000848784EC90E09787868780EC90E0918BAD
:10153000808B81EC90E0938B828B82EC90E0958B9A
:10154000848B86EC90E0978B868B118E128E138E97
:10155000148E0895EE0FFF1F0590F491E02D09946D
:101560000F931F93CF93DF938230910510F482E0A5
:1015700090E0E091C402F091C50220E030E0A0E0EC
:10158000B0E0309719F140815181028113814817F1
:101590005907C8F08417950769F4109731F012962F
:1015A0000C93129713961C9327C00093C4021093B8
:1015B000C50222C02115310519F04217530718F44E
:1015C0009A01BD01EF01DF01F801DBCF21153105E3
:1015D000F9F0281B390B2430310580F48A819B8176
:1015E0006115710521F0FB019383828304C0909300
:1015F000C5028093C402FE01329644C0FE01E20F90
:10160000F31F8193919322503109398328833AC083
:101610002091C2023091C302232B41F42091020198
:10162000309103013093C3022093C2022091000144
:10163000309101012115310541F42DB73EB740919C
:10164000040150910501241B350BE091C202F09179
:10165000C302E217F307A0F42E1B3F0B281739072C
:1016600078F0AC014E5F5F4F2417350748F04E0FFE
:101670005F1F5093C3024093C2028193919302C0B3
:10168000E0E0F0E0CF01DF91CF911F910F9108953D
:10169000CF93DF93009709F481C0FC013297138246
:1016A0001282A091C402B091C502109781F42081EA
:1016B0003181820F931F2091C2023091C3022817FB
:1016C000390751F5F093C302E093C20267C0ED0100
:1016D00020E030E0CE17DF0740F44A815B819E01B5
:1016E00041155105F1F0EA01F5CFD383C283408162
:1016F0005181840F951FC817D90759F488819981A2
:10170000840F951F0296918380838A819B819383A6
:1017100082832115310529F4F093C502E093C402B8
:101720003DC0E901FB83EA8349915991C40FD51F5C
:10173000EC17FD0761F480819181840F951F02965B
:10174000E90199838883828193819B838A83E0E086
:10175000F0E012968D919C911397009719F0FD017E
:10176000DC01F7CF8D919C9111979D012E5F3F4F2A
:10177000820F931F2091C2023091C30228173907AC
:1017800069F4309729F41092C5021092C40202C085
:1017900013821282B093C302A093C202DF91CF9151
:1017A000089581E090E0F8940C94D60BF894FFCF64
:1017B0000000C602200000000000CC041105B704A0
:1017C000310831080000000001056504B7043A063D
:1017D000EA0600000000B20100000000FA0100006B
:1017E0000000CA010000000061051202B7042F06C4
:1017F000C80600000000E2010000000030051202EF
:10180000B7042406860600000000FD020000000068
:10181000190200000000F1041202B704E7050F08E6
:1018200000000000E1041202B704C205ED07000049
:101830000000D3033C036A0320049B0379038D0358
:10184000C701F501B9010E100F00000000E302000E
:10185000000000140100000000F60000000000C9B4
:1018600002416C69676E696E67526967687400410E
:101870006C69676E696E674C656674004375727655
:10188000656446726F6E744C65667400437572765B
:10189000656446726F6E74526967687400466F7251
:0C18A000776172640043656E746572002D
:00000001FF
