:100000000C945E000C9486000C9486000C94860080
:100010000C9486000C9486000C9486000C94860048
:100020000C9486000C9486000C9486000C94860038
:100030000C9486000C9486000C9486000C94860028
:100040000C94A5030C9486000C9415040C94EF03F7
:100050000C9486000C9486000C9486000C94860008
:100060000C9486000C9486000000000024002700F9
:100070002A0000000000250028002B0004040404CE
:100080000404040402020202020203030303030342
:10009000010204081020408001020408102001021F
:1000A00004081020000000080002010000030407FB
:1000B00000000000000000004704560611241FBE87
:1000C000CFEFD8E0DEBFCDBF22E0A6E4B1E001C0B3
:1000D0001D92A431B207E1F711E0A0E0B1E0E6E83B
:1000E000F2E102C005900D92A634B107D9F710E0F5
:1000F000CDE5D0E004C02197FE010E940507CC3574
:10010000D107C9F70E948C050C9436090C940000A5
:1001100090E0FC01EC55FF4F2491FC01E057FF4FAC
:100120003491FC01E458FF4FE491EE2309F43CC004
:10013000222339F1233091F038F42130A9F0223014
:1001400001F584B58F7D12C0273091F02830A1F0E1
:100150002430B9F4809180008F7D03C080918000AD
:100160008F77809380000DC084B58F7784BD09C0E0
:100170008091B0008F7703C08091B0008F7D809315
:10018000B000F0E0EE0FFF1FEE58FF4FA591B491C5
:100190009FB7F894611104C08C913095382302C048
:1001A000EC913E2B3C939FBF0895CF93DF9390E05B
:1001B000FC01E057FF4F2491FC01E458FF4F84916C
:1001C000882361F190E0880F991FFC01E859FF4FE7
:1001D000C591D491FC01EE58FF4FA591B4916111E6
:1001E00009C09FB7F8948881209582238883EC9179
:1001F0002E230BC0623061F49FB7F8948881322FB0
:10020000309583238883EC912E2B2C939FBF06C0BF
:100210008FB7F894E8812E2B28838FBFDF91CF9181
:1002200008951F93CF93DF93182FEB0161E00E9495
:10023000D500209711F460E004C0CF3FD10539F418
:1002400061E0812FDF91CF911F910C948800E12F05
:10025000F0E0EC55FF4FE491E330F9F048F4E13081
:10026000B9F0E230A1F584B5806284BDC8BD34C068
:10027000E730E9F0E83019F1E43049F58091800089
:10028000806280938000D0938B00C0938A0024C04A
:1002900084B5806884BDC7BD1FC080918000806820
:1002A00080938000D0938900C093880015C080910E
:1002B000B00080688093B000C093B3000DC08091FF
:1002C000B00080628093B000C093B40005C0C03815
:1002D000D1050CF0B5CFAFCFDF91CF911F9108952D
:1002E0003FB7F89480914B0190914C01A0914D0142
:1002F000B0914E0126B5A89B05C02F3F19F001967D
:10030000A11DB11D3FBFBA2FA92F982F8827820F9B
:10031000911DA11DB11DBC01CD0142E0660F771FEB
:10032000881F991F4A95D1F70895CF92DF92EF92D7
:10033000FF920F931F93CF93DF936C017A018B0190
:10034000C0E0D0E0CE15DF0581F0D8016D918D01C0
:10035000D601ED91FC910190F081E02DC601099547
:10036000892B11F02196EECF7E01C701DF91CF914D
:100370001F910F91FF90EF90DF90CF900895089517
:1003800080E090E00895FC01538D448D252F30E0EE
:10039000842F90E0821B930B541710F0CF96089592
:1003A00001970895FC01918D828D981761F0828DDF
:1003B000DF01A80FB11D5D968C91928D9F5F9F7399
:1003C000928F90E008958FEF9FEF0895FC01918D3B
:1003D000828D981731F0828DE80FF11D858D90E0A8
:1003E00008958FEF9FEF0895FC01918D228D892F45
:1003F00090E0805C9F4F821B91098F73992708952D
:100400008FE491E00E94F40121E0892B09F420E0BF
:10041000822F0895FC01848DDF01A80FB11DA35A1E
:10042000BF4F2C91848D90E001968F739927848F14
:10043000A689B7892C93A089B1898C918370806437
:100440008C93938D848D981306C00288F389E02DD8
:1004500080818F7D80830895EF92FF920F931F9389
:10046000CF93DF93EC0181E0888F9B8D8C8D981367
:1004700005C0E889F989808185FD26C0F62E0B8D9F
:1004800010E00F5F1F4F0F731127E02E8C8DE812C5
:100490000CC00FB607FCFACFE889F989808185FF87
:1004A000F5CFCE010E940A02F1CF8B8DFE01E80F3D
:1004B000F11DE35AFF4FF0829FB7F8940B8FEA8942
:1004C000FB89808180620AC09FB7F894EE89FF891A
:1004D0006083E889F98980818370806480839FBF0D
:1004E00081E090E0DF91CF911F910F91FF90EF900D
:1004F0000895CF93DF93EC01888D8823C9F0EA89B2
:10050000FB89808185FD05C0A889B9898C9186FD0C
:100510000FC00FB607FCF5CF808185FFF2CFA88909
:10052000B9898C9185FFEDCFCE010E940A02E7CFF9
:10053000DF91CF91089580E090E0892B29F00E940F
:10054000000281110C9400000895CF93DF93CDB782
:10055000DEB7EF85F88960E070E080810E941101CC
:10056000E989FA8963E270E080810E941101EB89D8
:10057000FC8960E070E080810E941101ED89FE89B4
:1005800063E270E08081DF91CF910C941101CF93F1
:10059000DF93009779F0FC0101900020E9F7319793
:1005A000AF01481B590BBC018FE491E00E949501FB
:1005B000EC0102C0C0E0D0E042E050E065E271E052
:1005C0008FE491E00E9495018C0F9D1FDF91CF91E8
:1005D0000895CF93DF93CDB7DEB788E291E0DF9146
:1005E000CF910C94C702CF93DF93CDB7DEB78DE2E6
:1005F00091E0DF91CF910C94C7020E942109EF9204
:10060000FF920F931F93CF93DF93EC017B018A013D
:1006100088819981009729F02A813B812417350729
:10062000F8F4B8016F5F7F4F0E945B08009759F0A4
:10063000998388831B830A832C813D81232B81F43A
:10064000FC0110820DC088819981009711F00E94F1
:10065000D207198218821D821C821B821A8207C04F
:100660001D830C83B701888199810E942F09CE01D7
:10067000DF91CF911F910F91FF90EF900895CF934D
:10068000DF93EC01FB0186179707B1F06081718160
:100690006115710529F0448155810E94FF020CC04B
:1006A00088819981009711F00E94D20719821882DF
:1006B0001D821C821B821A82CE01DF91CF91089588
:1006C000FC0111821082138212821582148261153C
:1006D000710551F0FB0101900020E9F73197AF015E
:1006E000461B570B0C94FF020895AF92BF92CF9216
:1006F000DF92EF92FF920F931F93CF93DF93EC0162
:100700005B0169017A018C010C5F1F4F67E271E0A8
:10071000C8010E946003B501C8010E943F03C8825E
:10072000D982EA82FB82C701B6010E940B07862F9D
:1007300060E0DF91CF911F910F91FF90EF90DF90DC
:10074000CF90BF90AF900C94D5001F920F920FB630
:100750000F9211242F933F938F939F93AF93BF9347
:100760008091470190914801A0914901B0914A01BF
:100770003091460123E0230F2D3720F40196A11D6F
:10078000B11D05C026E8230F0296A11DB11D2093BF
:1007900046018093470190934801A0934901B0938B
:1007A0004A0180914B0190914C01A0914D01B09173
:1007B0004E010196A11DB11D80934B0190934C01F8
:1007C000A0934D01B0934E01BF91AF919F918F9136
:1007D0003F912F910F900FBE0F901F9018951F9271
:1007E0000F920FB60F9211242F933F934F935F9365
:1007F0006F937F938F939F93AF93BF93EF93FF93E9
:100800008FE491E00E940A02FF91EF91BF91AF91B6
:100810009F918F917F916F915F914F913F912F9118
:100820000F900FBE0F901F9018951F920F920FB64A
:100830000F9211242F938F939F93EF93FF93E09147
:100840005F01F09160018081E0916501F0916601A6
:1008500082FD12C09081809168018F5F8F7320911B
:100860006901821751F0E0916801F0E0E15BFE4F11
:10087000958F8093680101C08081FF91EF919F91D6
:100880008F912F910F900FBE0F901F901895AF92E0
:10089000BF92CF92DF92EF92FF920F931F93CF936D
:1008A000DF9300D000D000D0CDB7DEB71092520158
:1008B0001092510188EE93E0A0E0B0E080935301E4
:1008C00090935401A0935501B09356018AE091E0B2
:1008D0009093500180934F0185EC90E090935C01E0
:1008E00080935B0184EC90E090935E0180935D01C6
:1008F00080EC90E09093600180935F0181EC90E048
:10090000909362018093610182EC90E09093640186
:100910008093630186EC90E090936601809365017B
:10092000109268011092690110926A0110926B0195
:1009300063E371E08CEE91E00E94600368E371E094
:1009400082EF91E00E9460036FE371E088EF91E035
:100950000E94600382E090E00E943A077C018FE1F0
:1009600091E0D7018D939C9382E090E00E943A073A
:100970006C018BE090E00E943A078C01FC0112822E
:1009800087E0808386E0818361E087E00E94D50074
:1009900060E0D80111968C910E94D50080E29EE41F
:1009A000A0E0B0E0F80187839087A187B287D601E5
:1009B0000D931C93D092FF01C092FE0186E090E05F
:1009C0000E943A078C018EEF91E0F80191838083B9
:1009D000F382E282D7012D913C91EDB7FEB7729779
:1009E0000FB6F894FEBF0FBEEDBFADB7BEB7119600
:1009F00082E1EEEFF1E001900D928A95E1F7D901E5
:100A0000ED91FC91C701099510930102009300023A
:100A10000CEE11E082E0C82E82E0D82E0FB6F894DA
:100A2000DEBF0FBECDBF98E1E92E91E0F92E809197
:100A3000F0019091F1010197970128513140281759
:100A40003907E8F181E090E00E943A072BE0DC01F1
:100A50002C93909309028093080281E090E00E9419
:100A60003A0725E0FC01208390930D0280930C024D
:100A700081E090E00E943A072AE0DC012C939093F9
:100A80000B0280930A0281E090E00E943A0729E07D
:100A9000FC01208390930F0280930E0226960FB6DE
:100AA000F894DEBF0FBECDBFDF91CF911F910F91A4
:100AB000FF90EF90DF90CF90BF90AF9008951A8293
:100AC00019821C821B821E821D82B801CE010196F2
:100AD0000E943F038AE090E00E943A075C01D70140
:100AE0006D917D01062E000C770B880B990B0E94EF
:100AF0006A069B01AC01BE016F5F7F4FC5010E947A
:100B00007503F601A192B1926F0189819A810E94C9
:100B1000D2070A5F1F4F8BCF789484B5826084BD63
:100B200084B5816084BD85B5826085BD85B58160F1
:100B300085BD80916E00816080936E00109281006F
:100B4000809181008260809381008091810081602A
:100B500080938100809180008160809380008091EB
:100B6000B10084608093B1008091B0008160809377
:100B7000B00080917A00846080937A0080917A003E
:100B8000826080937A0080917A00816080937A00FD
:100B900080917A00806880937A001092C100E09181
:100BA0005F01F091600182E08083E0915B01F09150
:100BB0005C011082E0915D01F0915E018FEC808319
:100BC00010926701E0916301F091640186E08083F7
:100BD000E0916101F0916201808180618083E09108
:100BE0006101F0916201808188608083E091610100
:100BF000F0916201808180688083E0916101F091D1
:100C0000620180818F7D80830E9470016B017C0175
:100C10008CED882E85E0982EA12CB12C0E947001BD
:100C2000DC01CB018C199D09AE09BF09883E9340B8
:100C3000A105B10598F321E0821A9108A108B10835
:100C400038EEC30E33E0D31EE11CF11C8114910475
:100C5000A104B10419F7E0910002F0910102828130
:100C60009381DC01CD91DC910190F081E02D2DB7D5
:100C70003EB7225131090FB6F8943EBF0FBE2DBFCB
:100C8000ADB7BEB7119622E101900D922A95E1F71A
:100C9000EA81FB8109950E949B028DB79EB742961F
:100CA0000FB6F8949EBF0FBE8DBFAECFCF93DF932C
:100CB000CCEED1E08C859D850E94D2078E819F81EC
:100CC0000E94D20788819981DF91CF910C94D2073D
:100CD000E89409C097FB3EF49095809570956195D6
:100CE0007F4F8F4F9F4F9923A9F0F92F96E9BB278C
:100CF0009395F695879577956795B795F111F8CF08
:100D0000FAF4BB0F11F460FF1BC06F5F7F4F8F4F72
:100D10009F4F16C0882311F096E911C0772321F068
:100D20009EE8872F762F05C0662371F096E8862F00
:100D300070E060E02AF09A95660F771F881FDAF757
:100D4000880F9695879597F9089557FD9058440F09
:100D5000551F59F05F3F71F04795880F97FB991F1A
:100D600061F09F3F79F087950895121613061406D7
:100D7000551FF2CF4695F1DF08C016161706180664
:100D8000991FF1CF86957105610508940895E8943F
:100D9000BB2766277727CB0197F908952F923F92BB
:100DA0004F925F926F927F928F929F92AF92BF927B
:100DB000CF92DF92EF92FF920F931F93CF93DF9327
:100DC000CDB7DEB7CA1BDB0B0FB6F894DEBF0FBE84
:100DD000CDBF09942A88398848885F846E847D84D1
:100DE0008C849B84AA84B984C884DF80EE80FD80D3
:100DF0000C811B81AA81B981CE0FD11D0FB6F89449
:100E0000DEBF0FBECDBFED010895EE0FFF1F0590B1
:100E1000F491E02D09940E94AD0688F09F5798F058
:100E2000B92F9927B751B0F0E1F0660F771F881FEF
:100E3000991F1AF0BA95C9F714C0B13091F00E9409
:100E4000C706B1E008950C94C706672F782F88274E
:100E5000B85F39F0B93FCCF3869577956795B39530
:100E6000D9F73EF490958095709561957F4F8F4F9F
:100E70009F4F08950F931F93CF93DF938230910577
:100E800010F482E090E0E0911202F091130220E071
:100E900030E0A0E0B0E0309719F14081518102814B
:100EA000138148175907C8F08417950769F41097FC
:100EB00031F012960C93129713961C9327C000934F
:100EC00012021093130222C02115310519F04217A6
:100ED000530718F49A01BD01EF01DF01F801DBCFE0
:100EE00021153105F9F0281B390B2430310580F428
:100EF0008A819B816115710521F0FB0193838283B7
:100F000004C09093130280931202FE01329644C0F3
:100F1000FE01E20FF31F819391932250310939832F
:100F200028833AC02091100230911102232B41F402
:100F3000209102013091030130931102209310029D
:100F400020910001309101012115310541F42DB7A7
:100F50003EB74091040150910501241B350BE091EF
:100F60001002F0911102E217F307A0F42E1B3F0BC1
:100F70002817390778F0AC014E5F5F4F241735070B
:100F800048F04E0F5F1F509311024093100281935F
:100F9000919302C0E0E0F0E0CF01DF91CF911F918B
:100FA0000F910895CF93DF93009709F481C0FC015E
:100FB000329713821282A0911202B09113021097FD
:100FC00081F420813181820F931F20911002309192
:100FD00011022817390751F5F0931102E09310021E
:100FE00067C0ED0120E030E0CE17DF0740F44A8112
:100FF0005B819E0141155105F1F0EA01F5CFD383E4
:10100000C28340815181840F951FC817D90759F4B5
:1010100088819981840F951F0296918380838A81AC
:101020009B81938382832115310529F4F093130268
:10103000E09312023DC0E901FB83EA834991599193
:10104000C40FD51FEC17FD0761F480819181840FD7
:10105000951F0296E90199838883828193819B83FE
:101060008A83E0E0F0E012968D919C9113970097AF
:1010700019F0FD01DC01F7CF8D919C9111979D0135
:101080002E5F3F4F820F931F20911002309111026B
:101090002817390769F4309729F410921302109237
:1010A000120202C013821282B0931102A0931002A6
:1010B000DF91CF910895A0E0B0E0E1E6F8E00C9474
:1010C000D206EC01009721F4CB010E943A07B4C08C
:1010D000FC01E60FF71F9C0122503109E217F307CC
:1010E00008F4A8C0D9010D911C9111970617170794
:1010F000B0F00530110508F49BC0C80104978617AD
:10110000970708F495C002501109061B170B0193AD
:1011100011936D937C93CF010E94D20789C05B012C
:10112000A01AB10A4C01800E911EA0911202B0913A
:101130001302612C712CE12CF12C109709F446C09C
:101140008D919C911197A815B905B1F56C0142E0FC
:10115000C40ED11CCA14DB0478F14C018A189B0818
:10116000640142E0C40ED11C1296BC9012971396F3
:10117000AC91B5E0CB16D10440F0B282A38391824A
:101180008082D9016D937C9309C00E5F1F4F800F41
:10119000911FF90191838083EB2DFA2FE114F10463
:1011A00031F0D7011396FC93EE93129741C0F09360
:1011B0001302E09312023CC06816790608F43C0161
:1011C0007D0112960D90BC91A02DB7CF8091100299
:1011D0009091110288169906E1F466167706C8F414
:1011E0008091000190910101009741F48DB79EB765
:1011F0004091040150910501841B950BE817F907F4
:10120000C8F4F0931102E0931002F9017183608336
:101210000FC0CB010E943A077C01009759F0A8014A
:10122000BE010E942609CE010E94D207C70104C058
:10123000CE0102C080E090E0CDB7DEB7EEE00C94C6
:10124000EE0681E090E0F8940C943609FB01DC0195
:1012500002C001900D9241505040D8F70895FB0113
:10126000DC0101900D920020E1F7089510E0CDE53A
:10127000D0E004C0FE010E9405072196CE35D107BB
:06128000C9F7F894FFCF4E
:10128600000014022000000000002C029501C3019A
:101296007902F401D201E6010E0F1000000000F3FE
:1012A60002A502E9020D0A004578697400456E74CC
:1012B6006572004C6566740043656E746572005213
:0612C60069676874000076
:00000001FF
