:100000000C945E000C9486000C9486000C94860080
:100010000C9486000C9486000C9486000C94860048
:100020000C9486000C9486000C9486000C94860038
:100030000C9486000C9486000C9486000C94860028
:100040000C9484030C9486000C94F4030C94CE035B
:100050000C9486000C9486000C9486000C94860008
:100060000C9486000C9486000000000024002700F9
:100070002A0000000000250028002B0004040404CE
:100080000404040402020202020203030303030342
:10009000010204081020408001020408102001021F
:1000A00004081020000000080002010000030407FB
:1000B00000000000000000005404260411241FBEAC
:1000C000CFEFD8E0DEBFCDBF22E0AEE4B1E001C0AB
:1000D0001D92A836B207E1F711E0A0E0B1E0E2E935
:1000E000F2E102C005900D92AE34B107D9F710E0ED
:1000F000CDE5D0E004C02197FE010E940B07CC356E
:10010000D107C9F70E94CB050C943C090C94000060
:1001100090E0FC01EC55FF4F2491FC01E057FF4FAC
:100120003491FC01E458FF4FE491EE2309F43CC004
:10013000222339F1233091F038F42130A9F0223014
:1001400001F584B58F7D12C0273091F02830A1F0E1
:100150002430B9F4809180008F7D03C080918000AD
:100160008F77809380000DC084B58F7784BD09C0E0
:100170008091B0008F7703C08091B0008F7D809315
:10018000B000F0E0EE0FFF1FEE58FF4FA591B491C5
:100190009FB7F894611104C08C913095382302C048
:1001A000EC913E2B3C939FBF0895CF93DF9390E05B
:1001B000FC01E057FF4F2491FC01E458FF4F84916C
:1001C000882361F190E0880F991FFC01E859FF4FE7
:1001D000C591D491FC01EE58FF4FA591B4916111E6
:1001E00009C09FB7F8948881209582238883EC9179
:1001F0002E230BC0623061F49FB7F8948881322FB0
:10020000309583238883EC912E2B2C939FBF06C0BF
:100210008FB7F894E8812E2B28838FBFDF91CF9181
:1002200008951F93CF93DF93182FEB0161E00E9495
:10023000D500209711F460E004C0CF3FD10539F418
:1002400061E0812FDF91CF911F910C948800E12F05
:10025000F0E0EC55FF4FE491E330F9F048F4E13081
:10026000B9F0E230A1F584B5806284BDC8BD34C068
:10027000E730E9F0E83019F1E43049F58091800089
:10028000806280938000D0938B00C0938A0024C04A
:1002900084B5806884BDC7BD1FC080918000806820
:1002A00080938000D0938900C093880015C080910E
:1002B000B00080688093B000C093B3000DC08091FF
:1002C000B00080628093B000C093B40005C0C03815
:1002D000D1050CF0B5CFAFCFDF91CF911F9108952D
:1002E000CF92DF92EF92FF920F931F93CF93DF9302
:1002F0006C017A018B01C0E0D0E0CE15DF0581F002
:10030000D8016D918D01D601ED91FC910190F081A4
:10031000E02DC6010995892B11F02196EECF7E01C3
:10032000C701DF91CF911F910F91FF90EF90DF9068
:10033000CF900895089580E090E00895FC01538DDA
:10034000448D252F30E0842F90E0821B930B5417AF
:1003500010F0CF96089501970895FC01918D828D3C
:10036000981761F0828DDF01A80FB11D5D968C9109
:10037000928D9F5F9F73928F90E008958FEF9FEF14
:100380000895FC01918D828D981731F0828DE80FD0
:10039000F11D858D90E008958FEF9FEF0895FC018A
:1003A000918D228D892F90E0805C9F4F821B910957
:1003B0008F739927089587E591E00E94CF0121E08E
:1003C000892B09F420E0822F0895FC01848DDF0140
:1003D000A80FB11DA35ABF4F2C91848D90E00196B8
:1003E0008F739927848FA689B7892C93A089B189A7
:1003F0008C91837080648C93938D848D981306C048
:100400000288F389E02D80818F7D80830895EF92AB
:10041000FF920F931F93CF93DF93EC0181E0888FBE
:100420009B8D8C8D981305C0E889F989808185FDA5
:1004300026C0F62E0B8D10E00F5F1F4F0F73112794
:10044000E02E8C8DE8120CC00FB607FCFACFE889BD
:10045000F989808185FFF5CFCE010E94E501F1CFBA
:100460008B8DFE01E80FF11DE35AFF4FF0829FB71D
:10047000F8940B8FEA89FB89808180620AC09FB75C
:10048000F894EE89FF896083E889F9898081837017
:10049000806480839FBF81E090E0DF91CF911F91C6
:1004A0000F91FF90EF900895CF93DF93EC01888D2B
:1004B0008823C9F0EA89FB89808185FD05C0A88968
:1004C000B9898C9186FD0FC00FB607FCF5CF8081EE
:1004D00085FFF2CFA889B9898C9185FFEDCFCE0138
:1004E0000E94E501E7CFDF91CF91089580E090E091
:1004F000892B29F00E94DB0181110C9400000895E2
:10050000CF93DF93009779F0FC0101900020E9F789
:100510003197AF01481B590BBC0187E591E00E9460
:100520007001EC0102C0C0E0D0E042E050E065E2C2
:1005300071E087E591E00E9470018C0F9D1FDF91B3
:10054000CF910895CF93DF93CDB7DEB788E291E0E6
:10055000DF91CF910C948002CF93DF93CDB7DEB7BC
:10056000EB85FC8560E070E080810E941101ED85E3
:10057000FE8568E270E080810E941101EF85F889B4
:1005800060E070E080810E941101E989FA8968E2E7
:1005900070E080810E9411018DE291E0DF91CF91A6
:1005A0000C948002CF93DF93CDB7DEB785E391E063
:1005B000DF91CF910C9480020E942709EF92FF9265
:1005C0000F931F93CF93DF93EC017B018A01888106
:1005D0009981009729F02A813B8124173507F8F487
:1005E000B8016F5F7F4F0E946108009759F09983AF
:1005F00088831B830A832C813D81232B81F4FC019A
:1006000010820DC088819981009711F00E94D8074F
:10061000198218821D821C821B821A8207C01D83C8
:100620000C83B701888199810E943509CE01DF9141
:10063000CF911F910F91FF90EF900895CF93DF938B
:10064000EC01FB0186179707B1F06081718161159C
:10065000710529F0448155810E94DE020CC0888119
:100660009981009711F00E94D807198218821D8283
:100670001C821B821A82CE01DF91CF910895FC016A
:100680001182108213821282158214826115710503
:1006900051F0FB0101900020E9F73197AF01461BB3
:1006A000570B0C94DE020895AF92BF92CF92DF9267
:1006B000EF92FF920F931F93CF93DF93EC015B01B7
:1006C00069017A018C010C5F1F4F67E271E0C8017C
:1006D0000E943F03B501C8010E941E03C882D9824F
:1006E000EA82FB82C701B6010E941107862F60E0F3
:1006F000DF91CF911F910F91FF90EF90DF90CF90FE
:10070000BF90AF900C94D5001F920F920FB60F922E
:1007100011242F933F938F939F93AF93BF93809117
:10072000530190915401A0915501B091560130911F
:10073000520123E0230F2D3720F40196A11DB11D96
:1007400005C026E8230F0296A11DB11D209352017A
:100750008093530190935401A0935501B093560197
:1007600080914E0190914F01A0915001B0915101A3
:100770000196A11DB11D80934E0190934F01A0934E
:100780005001B0935101BF91AF919F918F913F91D3
:100790002F910F900FBE0F901F9018951F920F92E0
:1007A0000FB60F9211242F933F934F935F936F9344
:1007B0007F938F939F93AF93BF93EF93FF9387E5BF
:1007C00091E00E94E501FF91EF91BF91AF919F9160
:1007D0008F917F916F915F914F913F912F910F90EA
:1007E0000FBE0F901F9018951F920F920FB60F9289
:1007F00011242F938F939F93EF93FF93E0916701C1
:10080000F09168018081E0916D01F0916E0182FDAF
:1008100012C09081809170018F5F8F732091710160
:10082000821751F0E0917001F0E0E95AFE4F958F88
:100830008093700101C08081FF91EF919F918F9112
:100840002F910F900FBE0F901F901895CF93DF93AD
:10085000CEE2D2E08C859D850E94D8078E819F8153
:100860000E94D807888199810E94D807C0E4D2E00D
:100870008C859D850E94D8078E819F810E94D80714
:10088000888199810E94D807C2E5D2E08C859D8538
:100890000E94D8078E819F810E94D8078881998104
:1008A000DF91CF910C94D8078F929F92AF92BF9215
:1008B000CF92DF92EF92FF920F931F93CF93DF932C
:1008C00000D000D000D0CDB7DEB710925A01109200
:1008D000590188EE93E0A0E0B0E080935B01909333
:1008E0005C01A0935D01B0935E018AE091E090937A
:1008F00058018093570185EC90E0909364018093B8
:10090000630184EC90E0909366018093650180EC34
:1009100090E0909368018093670181EC90E0909360
:100920006A018093690182EC90E090936C0180935E
:100930006B0186EC90E090936E0180936D011092B4
:1009400070011092710110927201109273016BE3A9
:1009500071E082E592E00E943F0360E471E088E587
:1009600092E00E943F0367E471E08EE592E00E940E
:100970003F036BE371E080E492E00E943F0360E498
:1009800071E086E492E00E943F0367E471E08CE44A
:1009900092E00E943F036BE371E08EE292E00E94DE
:1009A0003F0360E471E084E392E00E943F0367E468
:1009B00071E08AE392E00E943F0382E090E00E94AF
:1009C00040072FE131E0DC012D933C9390931B0213
:1009D00080931A0280E4E82E82E0F82E08E111E00C
:1009E00094EFC92E91E0D92E2BE1822E21E0922E98
:1009F0001A8219821C821B821E821D82B701CE01BF
:100A000001960E941E038AE090E00E9440075C016C
:100A1000D8016D918D01062E000C770B880B990B78
:100A20000E9470069B01AC01BE016F5F7F4FC50144
:100A30000E945403F601A192B1926F0189819A81BB
:100A40000E94D807F6E0EF0EF11C8016910681F6A1
:100A500081E090E00E9440072BE0FC01208390930E
:100A6000FB018093FA0181E090E00E94400725E0BD
:100A7000DC012C939093FF018093FE0181E090E0D4
:100A80000E9440071AE0FC0110839093FD018093BF
:100A9000FC0181E090E00E94400729E0DC012C93FA
:100AA0009093010280930002EAE1F2E0A2E0B2E05A
:100AB00001900D921A95E1F782E090E00E944007C4
:100AC0007C018BE090E00E9440078C01FC011282C7
:100AD00087E0808386E0818361E087E00E94D50023
:100AE00060E0D80111968C910E94D50080E29EE4CE
:100AF000A0E0B0E0F80187839087A187B287D70193
:100B00000D931C93F0921702E092160286E090E09B
:100B10000E9440078C01809102029091030224EF11
:100B200031E0F8013183208393838283DC014D918E
:100B30005C91EDB7FEB7B6970FB6F894FEBF0FBE47
:100B4000EDBFADB7BEB7119626E2E4EFF1E001903C
:100B50000D922A95E1F7DA01ED91FC910995109338
:100B60001902009318020FB6F894DEBF0FBECDBF76
:100B700026960FB6F894DEBF0FBECDBFDF91CF91A2
:100B80001F910F91FF90EF90DF90CF90BF90AF90AB
:100B90009F908F900895789484B5826084BD84B5C9
:100BA000816084BD85B5826085BD85B5816085BD68
:100BB00080916E00816080936E0010928100809120
:100BC00081008260809381008091810081608093A8
:100BD0008100809180008160809380008091B100CD
:100BE00084608093B1008091B00081608093B000F8
:100BF00080917A00846080937A0080917A0082608C
:100C000080937A0080917A00816080937A0080914D
:100C10007A00806880937A001092C100E0916701A9
:100C2000F091680182E08083E0916301F0916401BA
:100C30001082E0916501F09166018FEC8083109243
:100C40006F01E0916B01F0916C0186E08083E0918F
:100C50006901F0916A01808180618083E09169017E
:100C6000F0916A01808188608083E0916901F09150
:100C70006A01808180688083E0916901F0916A0156
:100C800080818F7D8083E0911802F091190282812A
:100C90009381DC01CD91DC910190F081E02D2DB7A5
:100CA0003EB7265231090FB6F8943EBF0FBE2DBF96
:100CB000ADB7BEB7119626E201900D922A95E1F7E5
:100CC000EA81FB8109958DB79EB786960FB6F89499
:100CD0009EBF0FBE8DBF0E947602D5CFE89409C09B
:100CE00097FB3EF490958095709561957F4F8F4F5F
:100CF0009F4F9923A9F0F92F96E9BB279395F69575
:100D0000879577956795B795F111F8CFFAF4BB0FF2
:100D100011F460FF1BC06F5F7F4F8F4F9F4F16C056
:100D2000882311F096E911C0772321F09EE8872FE0
:100D3000762F05C0662371F096E8862F70E060E09C
:100D40002AF09A95660F771F881FDAF7880F969515
:100D5000879597F9089557FD9058440F551F59F0FE
:100D60005F3F71F04795880F97FB991F61F09F3F98
:100D700079F087950895121613061406551FF2CFC1
:100D80004695F1DF08C0161617061806991FF1CF11
:100D900086957105610508940895E894BB27662738
:100DA0007727CB0197F908952F923F924F925F9248
:100DB0006F927F928F929F92AF92BF92CF92DF926B
:100DC000EF92FF920F931F93CF93DF93CDB7DEB7D0
:100DD000CA1BDB0B0FB6F894DEBF0FBECDBF099464
:100DE0002A88398848885F846E847D848C849B84BB
:100DF000AA84B984C884DF80EE80FD800C811B81C9
:100E0000AA81B981CE0FD11D0FB6F894DEBF0FBEF7
:100E1000CDBFED010895EE0FFF1F0590F491E02D79
:100E200009940E94B30688F09F5798F0B92F99272C
:100E3000B751B0F0E1F0660F771F881F991F1AF0C5
:100E4000BA95C9F714C0B13091F00E94CD06B1E057
:100E500008950C94CD06672F782F8827B85F39F056
:100E6000B93FCCF3869577956795B395D9F73EF45E
:100E700090958095709561957F4F8F4F9F4F089506
:100E80000F931F93CF93DF938230910510F482E08C
:100E900090E0E0916602F091670220E030E0A0E08F
:100EA000B0E0309719F140815181028113814817D8
:100EB0005907C8F08417950769F4109731F0129616
:100EC0000C93129713961C9327C0009366021093FD
:100ED000670222C02115310519F04217530718F493
:100EE0009A01BD01EF01DF01F801DBCF21153105CA
:100EF000F9F0281B390B2430310580F48A819B815D
:100F00006115710521F0FB019383828304C09093E6
:100F1000670280936602FE01329644C0FE01E20F32
:100F2000F31F8193919322503109398328833AC06A
:100F30002091640230916502232B41F4209102013B
:100F400030910301309365022093640220910001E7
:100F5000309101012115310541F42DB73EB7409183
:100F6000040150910501241B350BE0916402F091BE
:100F70006502E217F307A0F42E1B3F0B2817390771
:100F800078F0AC014E5F5F4F2417350748F04E0FE5
:100F90005F1F50936502409364028193919302C056
:100FA000E0E0F0E0CF01DF91CF911F910F91089524
:100FB000CF93DF93009709F481C0FC01329713822D
:100FC0001282A0916602B0916702109781F420818D
:100FD0003181820F931F209164023091650228179E
:100FE000390751F5F0936502E093640267C0ED01A3
:100FF00020E030E0CE17DF0740F44A815B819E019C
:1010000041155105F1F0EA01F5CFD383C283408148
:101010005181840F951FC817D90759F48881998188
:10102000840F951F0296918380838A819B8193838D
:1010300082832115310529F4F0936702E09366025B
:101040003DC0E901FB83EA8349915991C40FD51F43
:10105000EC17FD0761F480819181840F951F029642
:10106000E90199838883828193819B838A83E0E06D
:10107000F0E012968D919C911397009719F0FD0165
:10108000DC01F7CF8D919C9111979D012E5F3F4F11
:10109000820F931F2091640230916502281739074F
:1010A00069F4309729F4109267021092660202C028
:1010B00013821282B0936502A0936402DF91CF91F4
:1010C0000895A0E0B0E0E7E6F8E00C94D806EC0163
:1010D000009721F4CB010E944007B4C0FC01E60F49
:1010E000F71F9C0122503109E217F30708F4A8C04A
:1010F000D9010D911C91119706171707B0F0053013
:10110000110508F49BC0C80104978617970708F4D7
:1011100095C002501109061B170B019311936D9393
:101120007C93CF010E94D80789C05B01A01AB10A45
:101130004C01800E911EA0916602B0916702612C55
:10114000712CE12CF12C109709F446C08D919C91E3
:101150001197A815B905B1F56C0142E0C40ED11C78
:10116000CA14DB0478F14C018A189B08640142E040
:10117000C40ED11C1296BC9012971396AC91B5E098
:10118000CB16D10440F0B282A38391828082D90130
:101190006D937C9309C00E5F1F4F800F911FF90163
:1011A00091838083EB2DFA2FE114F10431F0D70104
:1011B0001396FC93EE93129741C0F0936702E0936D
:1011C00066023CC06816790608F43C017D0112965F
:1011D0000D90BC91A02DB7CF8091640290916502D3
:1011E00088169906E1F466167706C8F48091000126
:1011F00090910101009741F48DB79EB74091040191
:1012000050910501841B950BE817F907C8F4F0937A
:101210006502E0936402F901718360830FC0CB0122
:101220000E9440077C01009759F0A801BE010E946E
:101230002C09CE010E94D807C70104C0CE0102C00C
:1012400080E090E0CDB7DEB7EEE00C94F40681E0EC
:1012500090E0F8940C943C09FB01DC0102C0019081
:101260000D9241505040D8F70895FB01DC010190E8
:101270000D920020E1F7089510E0CDE5D0E004C024
:10128000FE010E940B072196CE35D107C9F7F894CD
:02129000FFCF8E
:1012920000006802200000000000070270019E01A9
:1012A2005402CF01AD01C1010E0F1000000000D2A7
:1012B20002AC02A2020D0A004578697400466F7200
:1012C2007761726400456E746572004C65667400E5
:0E12D20043656E7465720052696768740000AF
:00000001FF
