:100000000C9461000C947E000C947E000C947E0095
:100010000C947E000C947E000C947E000C947E0068
:100020000C947E000C947E000C947E000C947E0058
:100030000C947E000C947E000C947E000C947E0048
:100040000C9409080C947E000C947E000C947E00A5
:100050000C947E000C947E000C947E000C947E0028
:100060000C947E000C947E0000000000230026000B
:10007000290000000000240027002A0000000000E2
:10008000250028002B0004040404040404040202D4
:100090000202020203030303030301020408102007
:1000A0004080010204081020010204081020000012
:1000B0000008000201000003040700000000000027
:1000C000000011241FBECFEFD8E0DEBFCDBF12E08D
:1000D000A0E0B1E0E2EDF8E102C005900D92A031A0
:1000E000B107D9F722E0A0E1B2E001C01D92A3342C
:1000F000B207E1F70E9498080C94670C0C9400007A
:100100000F931F93CF93DF93EC018B01888199812B
:10011000DC014D915C91EC81FD812DB73EB7225100
:1001200031090FB6F8943EBF0FBE2DBFADB7BEB7B5
:10013000119622E101900D922A95E1F7DA011296CB
:10014000ED91FC9113970995888199819B838A830E
:1001500019830883F80120813181EC81FD818DB7FD
:100160009EB742970FB6F8949EBF0FBE8DBFADB736
:10017000BEB7119682E101900D928A95E1F7D901FF
:10018000ED91FC91C8010995EDB7FEB7B4960FB695
:10019000F894FEBF0FBEEDBFDF91CF911F910F917D
:1001A0000895DC0116968C91169719962C91199743
:1001B0001A969C911A97E22FF92FE80FF11DE80F7C
:1001C000F11D7183608316968C9116978F5F16963A
:1001D0008C930895CF93DF93CDB7DEB7EF81F88589
:1001E0008181DF91CF910895CF93DF93CDB7DEB7B3
:1001F0002FB7F89440913B0250913C0260913D0230
:1002000070913E022FBFFC0153834283848195810C
:10021000481B590B81E04D32514008F480E0DF91DA
:10022000CF910895833081F028F4813099F08230A5
:10023000A1F008958730A9F08830B9F08430D1F466
:10024000809180008F7D03C0809180008F778093A4
:100250008000089584B58F7702C084B58F7D84BDFA
:1002600008958091B0008F7703C08091B0008F7D9A
:100270008093B00008951F93CF93DF93282F30E031
:10028000F901E255FF4F8491F901E656FF4FD491F1
:10029000F901EA57FF4FC491CC23C1F0162F811109
:1002A0000E941201EC2FF0E0EE0FFF1FE458FF4F09
:1002B000A591B4919FB7F894111104C08C91D09579
:1002C000D82302C0EC91DE2BDC939FBFDF91CF914E
:1002D0001F910895CF93DF9390E0FC01E656FF4F06
:1002E0002491FC01EA57FF4F8491882361F190E04B
:1002F000880F991FFC01EE58FF4FC591D491FC0166
:10030000E458FF4FA591B491611109C09FB7F894CB
:100310008881209582238883EC912E230BC0623044
:1003200061F49FB7F8948881322F309583238883B6
:10033000EC912E2B2C939FBF06C08FB7F894E881C9
:100340002E2B28838FBFDF91CF9108950895CF93EF
:10035000DF93CDB7DEB7DF91CF910895CF93DF93D1
:10036000CDB7DEB7ED81FE818181EF81F8852181F6
:10037000E985FA859181882331F0222319F081E003
:10038000892701C080E0DF91CF910895CF93DF935B
:10039000CDB7DEB7ED81FE819181EF81F885818156
:1003A000E985FA852181222329F0882321F081E043
:1003B000892701C080E0DF91CF910895AF92BF926D
:1003C000CF92DF92EF92FF920F931F93CF93DF9321
:1003D000CDB7DEB78E01035F1F4F6E0183E1C80EFC
:1003E000D11CF801E190F1908F01F701208130E0FC
:1003F000F901E255FF4F8491F901E656FF4FB490A1
:10040000F901EA57FF4FA490AA2079F081110E94C8
:100410001201EA2DF0E0EE0FFF1FE859FF4FA59102
:10042000B491EC91BE2281E009F480E08170F70183
:100430008183C016D106A9F6DF91CF911F910F914C
:10044000FF90EF90DF90CF90BF90AF900895CF9343
:10045000DF93CDB7DEB7ED81FE819181EF81F88525
:100460002181E985FA858181882331F0211103C03A
:1004700081E0892701C080E0DF91CF910895CF937B
:10048000DF93CDB7DEB7ED81FE818181EF81F88505
:100490002181E985FA859181882331F0211103C0FA
:1004A00081E0892701C080E0DF91CF9108950F930B
:1004B0001F93CF93DF93D62F062F10E0FC01C0814E
:1004C00061E08C2F0E946A010115110509F447C0F3
:1004D0000F3F110509F445C0EC2FF0E0E255FF4F46
:1004E000E491E330F9F048F4E130B9F0E230A1F5FD
:1004F00084B5806284BDD8BD3CC0E730E9F0E83007
:1005000019F1E43049F58091800080628093800089
:1005100010938B0000938A002CC084B5806884BD42
:10052000D7BD27C0809180008068809380001093A1
:100530008900009388001DC08091B000806880937E
:10054000B000D093B30015C08091B000806280935A
:10055000B000D093B4000DC00038110514F460E071
:1005600001C061E08C2FDF91CF911F910F910C940E
:100570003B01DF91CF911F910F910895CF93DF93AE
:10058000CDB7DEB768E28B859C850E94570260E09C
:100590008D859E850E94570260E08F8598890E9414
:1005A000570268E289899A89DF91CF910C945702AA
:1005B000CF93DF93CDB7DEB760E08B859C850E943B
:1005C000570268E28D859E850E94570268E28F85FA
:1005D00098890E94570260E089899A89DF91CF91BA
:1005E0000C945702CF93DF93CDB7DEB760E08B85D5
:1005F0009C850E94570269E18D859E850E94570265
:1006000060E08F8598890E94570269E189899A89FB
:10061000DF91CF910C9457023FB7F89480912D024F
:1006200090912E02A0912F02B091300226B5A89B86
:1006300005C02F3F19F00196A11DB11D3FBFBA2F74
:10064000A92F982F8827820F911DA11DB11DBC01D4
:10065000CD0142E0660F771F881F991F4A95D1F799
:100660000895DC0115968C91159717962C91179784
:1006700018969C911897E22FF92FE80FF11DE80FBB
:10068000F11D7183608315968C9115978F5F159678
:100690008C930895CF93DF93EC0161E08E819F816D
:1006A0000E94570261E0888599850E94570261E0A7
:1006B0008A859B850E94570261E08C859D85DF912C
:1006C000CF910C945702CF93DF93CDB7DEB7CE0115
:1006D00005960E944A03DF91CF9108958F929F92D1
:1006E000AF92BF92CF92DF92EF92FF92CF93DF93C0
:1006F000CDB7DEB7CE010D960E944A030E940C03CF
:100700004B015C018AEFC82ED12CE12CF12C0E9408
:100710000C03DC01CB0188199909AA09BB09883EA1
:100720009340A105B10598F321E0C21AD108E10870
:10073000F10888EE880E83E0981EA11CB11CC1143C
:10074000D104E104F10419F7DF91CF91FF90EF900C
:10075000DF90CF90BF90AF909F908F900895CF93F0
:10076000DF93EC0181E08A83E881F9810084F185DF
:10077000E02DCE010995E881F9810680F781E02D11
:10078000CE01DF91CF910994CF93DF93CDB7DEB740
:10079000DC0112962C911297211108C0ED91FC9169
:1007A0000480F581E02DDF91CF910994DF91CF9105
:1007B0000895CF93DF93CDB7DEB722E1FE013596E2
:1007C000DF0101900D922A95E1F7DF91CF910C9412
:1007D000C403CF93DF93CDB7DEB722E1FE01359698
:1007E000DF0101900D922A95E1F7DF91CF910C94F2
:1007F000C403CF93DF93CDB7DEB722E1FE01359678
:10080000DF0101900D922A95E1F7DF91CF910C94D1
:10081000C403CF93DF93CDB7DEB722E1FE01359657
:10082000DF0101900D922A95E1F7DF91CF910C94B1
:10083000C403CF93DF93CDB7DEB7DF91CF91089597
:100840008091240290912502892B69F482E090E046
:100850000E94410B24E731E0FC0131832083909317
:10086000250280932402809124029091250208950C
:10087000CF93DF93EC018091390290913A02892B5A
:1008800069F482E090E00E94410B27EB31E0FC012B
:100890003183208390933A02809339026091390228
:1008A00070913A02CE01DF91CF910C943103CF9336
:1008B000DF93EC018091370290913802892B69F423
:1008C00082E090E00E94410B21EB31E0FC0131839A
:1008D00020839093380280933702609137027091A1
:1008E0003802CE010E9431030E942004BC01CE01D7
:1008F000DF91CF910C9431038091350290913602B3
:10090000892B69F486E090E00E94410B2BEA31E0EC
:10091000FC013183208390933602809335028091CD
:100920003502909136020895CF93DF93CDB7DEB7AD
:100930002DB73EB7225131090FB6F8943EBF0FBE16
:100940002DBFADB7BEB7119622E1FE0135960190DD
:100950000D922A95E1F70E94C4030E947C042FB7F0
:10096000F89440913B0250913C0260913D0270919D
:100970003E022FBFFC01558344830FB6F894DEBFBF
:100980000FBECDBFDF91CF910895CF93DF93CDB749
:10099000DEB72DB73EB7225131090FB6F8943EBFEE
:1009A0000FBE2DBFADB7BEB7119622E1FE01359641
:1009B00001900D922A95E1F70E94C4030E947C04E5
:1009C0002FB7F89440913B0250913C0260913D0258
:1009D00070913E022FBFFC01558344830FB6F894FB
:1009E000DEBF0FBECDBFDF91CF910895809133025E
:1009F00090913402892B69F482E090E00E94410BCF
:100A000025EA31E0FC013183208390933402809306
:100A1000330280913302909134020895CF93DF9393
:100A2000EC018091310290913202892B69F482E0CD
:100A300090E00E94410B2FE931E0FC0131832083DB
:100A400090933202809331026091310270913202B0
:100A5000CE010E9431030E942004BC01CE01DF912F
:100A6000CF910C9431038091220290912302892B23
:100A700069F482E090E00E94410B2EE631E0FC0137
:100A8000318320839093230280932202809122025B
:100A9000909123020895CF93DF93EC010E943305D8
:100AA000BC01CE01DF91CF910C943103CF93DF9342
:100AB000EC010E943305BC01CE01DF91CF910C9473
:100AC0003103CF93DF93EC010E943305BC01CE01CB
:100AD0000E9431030E942004BC01CE01DF91CF911E
:100AE0000C943103CF93DF93EC018AE091E099837A
:100AF00088837C836B831A821D821E8288E290E049
:100B00000E94410B98878F8388E290E00E94410BFE
:100B10009A878987DF91CF910895CF93DF93809152
:100B2000280290912902892B89F48BE090E00E94A1
:100B3000410BEC0169EB71E00E94720588E891E0DD
:100B400099838883D0932902C09328028091280238
:100B500090912902DF91CF910895EF92FF920F9328
:100B60001F93CF93DF93EC010E947C047C010E94D1
:100B70008D058C0186E090E00E94410BFC01F18222
:100B8000E0821383028315821482BC01CE01DF91BF
:100B9000CF911F910F91FF90EF900C94D100CF93C4
:100BA000DF938091260290912702892B89F48BE0B4
:100BB00090E00E94410BEC0167EC71E00E9472052D
:100BC0008AE791E099838883D0932702C093260215
:100BD0008091260290912702DF91CF910895EF92A4
:100BE000FF920F931F93CF93DF93EC010E947C043D
:100BF0007C010E94CF058C0186E090E00E94410BB1
:100C0000FC01F182E0821383028315821482BC010D
:100C1000CE01DF91CF911F910F91FF90EF900C9437
:100C2000D100EF92FF920F931F93CF93DF93EC01CC
:100C30008091120290911302892B69F482E090E076
:100C40000E94410B26E231E0FC0131832083909326
:100C5000130280931202E0901202F09013020E949D
:100C6000CF058C0186E090E00E94410BFC01F182EF
:100C7000E0821383028315821482BC01CE010E949C
:100C8000D1008091140290911502892B69F482E0C1
:100C900090E00E94410B2CE231E0FC013183208383
:100CA0009093150280931402E0901402F0901502C4
:100CB0000E948D058C0186E090E00E94410BFC01B2
:100CC000F182E0821383028315821482BC01CE017B
:100CD0000E94D1008091160290911702892B69F42D
:100CE00082E090E00E94410B22E331E0FC0131837D
:100CF00020839093170280931602E0901602F090E2
:100D000017028091180290911902892B91F48BE0BF
:100D100090E00E94410B8C0164ED71E00E9472052D
:100D200088E391E0F8019183808310931902009386
:100D30001802009118021091190286E090E00E94BA
:100D4000410BFC01F182E08213830283158214823D
:100D5000BC01CE010E94D10080911A0290911B0229
:100D6000892B69F482E090E00E94410B26E431E097
:100D7000FC013183208390931B0280931A02E09040
:100D80001A02F0901B0280911C0290911D02892B87
:100D900091F48BE090E00E94410B8C0164EE71E0D5
:100DA0000E9472058CE491E0F80191838083109396
:100DB0001D0200931C0200911C0210911D0286E08E
:100DC00090E00E94410BFC01F182E08213830283D8
:100DD00015821482BC01CE010E94D10080911E02B6
:100DE00090911F02892B69F482E090E00E94410BF0
:100DF0002AE531E0FC013183208390931F02809328
:100E00001E02E0901E02F0901F028091200290913D
:100E10002102892B91F48BE090E00E94410B8C0120
:100E200065EF71E00E94720580E691E0F801918320
:100E300080831093210200932002009120021091E0
:100E4000210286E090E00E94410BFC01F182E082E9
:100E50001383028315821482BC01CE01DF91CF91EE
:100E60001F910F91FF90EF900C94D100CF93DF93DF
:100E70008091100290911102892B89F48BE090E00F
:100E80000E94410BEC0160E072E00E94720588E173
:100E900091E099838883D0931102C09310028091CE
:100EA000100290911102DF91CF910895EF92FF927D
:100EB0000F931F93CF93DF93EC010E94F6047C0104
:100EC0000E9436078C0186E090E00E94410BFC01F5
:100ED000F182E0821383028315821482BC01CE0169
:100EE000DF91CF911F910F91FF90EF900C94D10063
:100EF000EF92FF920F931F93CF93DF93EC010E9429
:100F0000F6047C010E9436078C0186E090E00E9486
:100F1000410BFC01F182E08213830283158214826B
:100F2000BC01CE01DF91CF911F910F91FF90EF9007
:100F30000C94D100EF92FF920F931F93CF93DF9306
:100F4000CDB7DEB7EF88F88C60E0F70180810E94B2
:100F50003B0183E090E00197F1F761E0F7018081C8
:100F60000E943B0183E290E00197F1F760E0F70116
:100F700080810E943B01F701818190E0FC01E656EF
:100F8000FF4F6491FC01EA57FF4FE491F0E0EE0F50
:100F9000FF1FE859FF4F8591949100E412E42FE080
:100FA00030E0462F0E9453086115710581059105B7
:100FB00049F0DC01CB010196A11DB11DBC01CD01A1
:100FC0009F7003C060E070E0CB01F7016283738320
:100FD000848395830E94460A26E933E44BE05DE36F
:100FE0000E94AC0A20E030E040E05FE30E94AC0ADF
:100FF0000E94170A21E06630710508F020E0822F78
:10100000DF91CF911F910F91FF90EF9008950E9473
:10101000620C1F920F920FB60F9211242F933F93E1
:101020008F939F93AF93BF9380913B0290913C022B
:10103000A0913D02B0913E0230912C0223E0230F9B
:101040002D3720F40196A11DB11D05C026E8230F00
:101050000296A11DB11D20932C0280933B02909318
:101060003C02A0933D02B0933E0280912D029091EC
:101070002E02A0912F02B09130020196A11DB11D48
:1010800080932D0290932E02A0932F02B0933002F2
:10109000BF91AF919F918F913F912F910F900FBE74
:1010A0000F901F901895CF92DF92EF92FF920F93BF
:1010B0001F93E82FF92F05C00150110921093109AB
:1010C00061F1908196239417B9F305C0015011097D
:1010D0002109310911F1908196239413F7CFC12C86
:1010E000D12CE12CF12C0AC08FEFC81AD80AE80ADB
:1010F000F80A0C151D052E053F0579F08081862321
:10110000841791F36C2D7D2D8E2D9F2D1F910F91A6
:10111000FF90EF90DF90CF90089560E070E080E066
:1011200090E01F910F91FF90EF90DF90CF90089586
:10113000789484B5826084BD84B5816084BD85B5B2
:10114000826085BD85B5816085BD80916E008160BE
:1011500080936E0010928100809181008260809364
:101160008100809181008160809381008091800066
:101170008160809380008091B10084608093B10091
:101180008091B00081608093B00080917A0084608B
:1011900080937A0080917A00826080937A008091B7
:1011A0007A00816080937A0080917A0080688093D1
:1011B0007A001092C1000E9436073C0182E190E063
:1011C0000E94410BEC0128E9C22E21E0D22E02E957
:1011D00011E04C0138E9A32E31E0B32E84E090E019
:1011E0000E94410B7C01D6018D916D01F801219186
:1011F00031918F01D70113963C932E9312978C93C4
:1012000060E00E946A01F401E192F1924F01A016A0
:10121000B10621F781E090E00E94410B2BE0DC0158
:101220002C939F838E8381E090E00E94410B25E008
:10123000FC0120839B878A8781E090E00E94410B1C
:101240002AE0DC012C939987888781E090E00E9456
:10125000410B29E0FC0120839D878C8786E090E08C
:101260000E94410B8C0187E0D8018C9386E0119697
:101270008C9361E087E00E946A0160E0F80181815F
:101280000E946A011F870E8786E090E00E94410B52
:101290008C01DC011596DC93CE9314976D927C92B1
:1012A000F301208131818DB79EB742970FB6F89434
:1012B0009EBF0FBE8DBFADB7BEB7119682E1FE01D6
:1012C00001900D928A95E1F7D901ED91FC91C3014E
:1012D0000995198B088BD0932B02C0932A02EDB786
:1012E000FEB772960FB6F894FEBF0FBEEDBF90E04A
:1012F000C92E90E0D92EE0912A02F0912B02E088CD
:10130000F188D7010D911C9111971496AD90BC9066
:101310001597C0E0F8018581C81710F0B12C75C091
:1013200097818085E92FF82FEC0FF11DEC0FF11D4F
:1013300080819181FC01408151812DB73EB72251BE
:1013400031090FB6F8943EBF0FBE2DBFADB7BEB783
:10135000119622E1F50101900D922A95E1F7DA014B
:10136000ED91FC910995CF5FEDB7FEB772960FB680
:10137000F894FEBF0FBEEDBFCDCFCB2DD0E0CC0F8C
:10138000DD1F1996ED91FC911A97EC0FFD1F01904E
:10139000F081E02D80819181FC0140815181D70154
:1013A0001496ED91FC9115972DB73EB72251310956
:1013B0000FB6F8943EBF0FBE2DBFADB7BEB71196A6
:1013C00022E101900D922A95E1F7DA01ED91FC916D
:1013D0000995EDB7FEB772960FB6F894FEBF0FBE33
:1013E000EDBFD80119962D913C911A97C20FD31FCA
:1013F000E881F981882389F0628173816115710523
:1014000019F0C7010E948000B394D80116968C9100
:101410001697B81608F4B1CF03C064817581EECF7A
:10142000C114D10409F467CF0E94000064CF0E9468
:101430008B0A88F09F5798F0B92F9927B751B0F0D1
:10144000E1F0660F771F881F991F1AF0BA95C9F748
:1014500014C0B13091F00E94A50AB1E008950C9437
:10146000A50A672F782F8827B85F39F0B93FCCF3EA
:10147000869577956795B395D9F73EF490958095C5
:10148000709561957F4F8F4F9F4F0895E89409C0E5
:1014900097FB3EF490958095709561957F4F8F4FA7
:1014A0009F4F9923A9F0F92F96E9BB279395F695BD
:1014B000879577956795B795F111F8CFFAF4BB0F3B
:1014C00011F460FF1BC06F5F7F4F8F4F9F4F16C09F
:1014D000882311F096E911C0772321F09EE8872F29
:1014E000762F05C0662371F096E8862F70E060E0E5
:1014F0002AF09A95660F771F881FDAF7880F96955E
:10150000879597F9089557FD9058440F551F59F046
:101510005F3F71F04795880F97FB991F61F09F3FE0
:1015200079F087950895121613061406551FF2CF09
:101530004695F1DF08C0161617061806991FF1CF59
:1015400086957105610508940895E894BB27662780
:101550007727CB0197F908950E94BF0A0C94300BAE
:101560000E94220B38F00E94290B20F0952311F0E5
:101570000C94190B0C941F0B11240C94A60A0E94B6
:10158000830A70F3959FC1F3950F50E0551F629F3A
:10159000F001729FBB27F00DB11D639FAA27F00DCC
:1015A000B11DAA1F649F6627B00DA11D661F829FF3
:1015B0002227B00DA11D621F739FB00DA11D621FD8
:1015C000839FA00D611D221F749F3327A00D611DF5
:1015D000231F849F600D211D822F762F6A2F1124D7
:1015E0009F5750409AF0F1F088234AF0EE0FFF1F0A
:1015F000BB1F661F771F881F91505040A9F79E3F61
:10160000510580F00C94190B0C94A60A5F3FE4F38B
:10161000983ED4F3869577956795B795F795E795B6
:101620009F5FC1F7FE2B880F911D9695879597F9BF
:10163000089597F99F6780E870E060E008959FEF54
:1016400080EC089500240A94161617061806090659
:10165000089500240A941216130614060506089528
:10166000092E0394000C11F4882352F0BB0F40F4B0
:10167000BF2B11F460FF04C06F5F7F4F8F4F9F4FF0
:1016800008950F931F93CF93DF938230910510F449
:1016900082E090E0E0914102F091420220E030E0EF
:1016A000A0E0B0E0309719F14081518102811381AF
:1016B00048175907C8F08417950769F4109731F057
:1016C00012960C93129713961C9327C00093410215
:1016D0001093420222C02115310519F04217530719
:1016E00018F49A01BD01EF01DF01F801DBCF2115EC
:1016F0003105F9F0281B390B2430310580F48A813B
:101700009B816115710521F0FB019383828304C0E5
:101710009093420280934102FE01329644C0FE0142
:10172000E20FF31F8193919322503109398328836B
:101730003AC020913F0230914002232B41F4209186
:101740000201309103013093400220933F02209127
:101750000001309101012115310541F42DB73EB74B
:101760004091040150910501241B350BE0913F028B
:10177000F0914002E217F307A0F42E1B3F0B28174D
:10178000390778F0AC014E5F5F4F2417350748F0FA
:101790004E0F5F1F5093400240933F0281939193FD
:1017A00002C0E0E0F0E0CF01DF91CF911F910F91F7
:1017B0000895CF93DF93009709F481C0FC0132971D
:1017C00013821282A0914102B0914202109781F4DB
:1017D00020813181820F931F20913F02309140027E
:1017E0002817390751F5F0934002E0933F0267C094
:1017F000ED0120E030E0CE17DF0740F44A815B8145
:101800009E0141155105F1F0EA01F5CFD383C28362
:1018100040815181840F951FC817D90759F48881D9
:101820009981840F951F0296918380838A819B8181
:10183000938382832115310529F4F0934202E093CA
:1018400041023DC0E901FB83EA8349915991C40FEC
:10185000D51FEC17FD0761F480819181840F951FDE
:101860000296E90199838883828193819B838A838D
:10187000E0E0F0E012968D919C911397009719F09B
:10188000FD01DC01F7CF8D919C9111979D012E5F99
:101890003F4F820F931F20913F0230914002281743
:1018A000390769F4309729F41092420210924102EC
:1018B00002C013821282B0934002A0933F02DF91D4
:1018C000CF91089581E090E0F8940C94670CF8941F
:0218D000FFCF48
:1018D20000004302200000000000C4031904AF030B
:1018E200070807080000000009046E03AF03610542
:1018F2001106000000003F02000000002702000065
:101902000000AE0100000000C504A701AF035605A8
:10191200EF0500000000C601000000009404A701CA
:10192200AF034B05AD05000000009A070000000060
:10193200D903A701AF033804A60100000000F20298
:1019420000000000DE0100000000F903A701AF0360
:101952000E05780700000000E903A701AF03570452
:101962005607CF010802C1010E100F00000000D877
:101972000200000000EA0000000000F40000000085
:1019820000BE02000000006303416C69676E696E6D
:1019920067526967687400416C69676E696E674C6B
:1019A2006566740043757276656446726F6E744C38
:1019B2006566740043757276656446726F6E745222
:1019C200696768740053746174696F6E617279003B
:1019D200466F72776172640043656E7465720000CF
:00000001FF
