:100000000C9436000C945E000C945E000C945E0020
:100010000C945E000C945E000C945E000C945E00E8
:100020000C945E000C945E000C945E000C945E00D8
:100030000C945E000C945E000C945E000C945E00C8
:100040000C9472010C945E000C94E2010C94BC01BF
:100050000C945E000C945E000C945E000C945E00A8
:100060000C945E000C945E0062021B0311241FBE00
:10007000CFEFD8E0DEBFCDBF21E0AAE2B1E001C002
:100080001D92A63EB207E1F711E0A0E0B1E0E6EE76
:10009000FAE002C005900D92AA32B107D9F710E03C
:1000A000C5E3D0E004C02197FE010E946403C4337D
:1000B000D107C9F70E94A0020C9466050C940000B9
:1000C000CF92DF92EF92FF920F931F93CF93DF9324
:1000D0006C017A018B01C0E0D0E0CE15DF0581F024
:1000E000D8016D918D01D601ED91FC910190F081C7
:1000F000E02DC6010995892B11F02196EECF7E01E6
:10010000C701DF91CF911F910F91FF90EF90DF908A
:10011000CF900895089580E090E00895FC01538DFC
:10012000448D252F30E0842F90E0821B930B5417D1
:1001300010F0CF96089501970895FC01918D828D5E
:10014000981761F0828DDF01A80FB11D5D968C912B
:10015000928D9F5F9F73928F90E008958FEF9FEF36
:100160000895FC01918D828D981731F0828DE80FF2
:10017000F11D858D90E008958FEF9FEF0895FC01AC
:10018000918D228D892F90E0805C9F4F821B910979
:100190008F739927089583E391E00E94BF0021E0C7
:1001A000892B09F420E0822F0895FC01848DDF0162
:1001B000A80FB11DA35ABF4F2C91848D90E00196DA
:1001C0008F739927848FA689B7892C93A089B189C9
:1001D0008C91837080648C93938D848D981306C06A
:1001E0000288F389E02D80818F7D80830895EF92CE
:1001F000FF920F931F93CF93DF93EC0181E0888FE1
:100200009B8D8C8D981305C0E889F989808185FDC7
:1002100026C0F62E0B8D10E00F5F1F4F0F731127B6
:10022000E02E8C8DE8120CC00FB607FCFACFE889DF
:10023000F989808185FFF5CFCE010E94D500F1CFED
:100240008B8DFE01E80FF11DE35AFF4FF0829FB73F
:10025000F8940B8FEA89FB89808180620AC09FB77E
:10026000F894EE89FF896083E889F9898081837039
:10027000806480839FBF81E090E0DF91CF911F91E8
:100280000F91FF90EF900895CF93DF93EC01888D4D
:100290008823C9F0EA89FB89808185FD05C0A8898A
:1002A000B9898C9186FD0FC00FB607FCF5CF808110
:1002B00085FFF2CFA889B9898C9185FFEDCFCE015A
:1002C0000E94D500E7CFDF91CF91089580E090E0C4
:1002D000892B29F00E94CB0081110C940000089515
:1002E0000E9451051F920F920FB60F9211242F9367
:1002F0003F938F939F93AF93BF9380912F019091E2
:100300003001A0913101B091320130912E0123E0F2
:10031000230F2D3720F40196A11DB11D05C026E83D
:10032000230F0296A11DB11D20932E0180932F0152
:1003300090933001A0933101B093320180912A0152
:1003400090912B01A0912C01B0912D010196A11D3E
:10035000B11D80932A0190932B01A0932C01B0939F
:100360002D01BF91AF919F918F913F912F910F9050
:100370000FBE0F901F9018951F920F920FB60F92FD
:1003800011242F933F934F935F936F937F938F939A
:100390009F93AF93BF93EF93FF9383E391E00E940A
:1003A000D500FF91EF91BF91AF919F918F917F9178
:1003B0006F915F914F913F912F910F900FBE0F90D2
:1003C0001F9018951F920F920FB60F9211242F9322
:1003D0008F939F93EF93FF93E0914301F09144013A
:1003E0008081E0914901F0914A0182FD12C0908123
:1003F00080914C018F5F8F7320914D01821751F0D6
:10040000E0914C01F0E0ED5CFE4F958F80934C0144
:1004100001C08081FF91EF919F918F912F910F905B
:100420000FBE0F901F901895EF92FF920F931F939E
:10043000CF93DF93EC01198218821B821A821D82EE
:100440001C8261157105B9F17B01FB01019000204F
:10045000E9F731978F01061B170BB8016F5F7F4FCC
:1004600080E090E00E948B04009759F09983888384
:100470001B830A832C813D81232B81F4FC01108294
:100480000DC088819981009711F00E9402041982A1
:1004900018821D821C821B821A820DC01D830C8350
:1004A000B70188819981DF91CF911F910F91FF90C2
:1004B000EF900C945F05DF91CF911F910F91FF900A
:1004C000EF900895E3E3F1E01382128288EE93E067
:1004D000A0E0B0E084839583A683B7838AE091E0AF
:1004E0009183808385EC90E09587848784EC90E00D
:1004F0009787868780EC90E0918B808B81EC90E0F1
:10050000938B828B82EC90E0958B848B86EC90E0D1
:10051000978B868B118E128E138E148E68E171E08C
:1005200080ED91E00E9414026DE171E086ED91E0B2
:100530000E94140264E271E08CED91E00C941402CC
:10054000789484B5826084BD84B5816084BD85B5AE
:10055000826085BD85B5816085BD80916E008160BA
:1005600080936E0010928100809181008260809360
:100570008100809181008160809381008091800062
:100580008160809380008091B10084608093B1008D
:100590008091B00081608093B00080917A00846087
:1005A00080937A0080917A00826080937A008091B3
:1005B0007A00816080937A0080917A0080688093CD
:1005C0007A001092C100E0914301F091440182E071
:1005D0008083E0913F01F09140011082E091410160
:1005E000F09142018FEC808310924B01E091470122
:1005F000F091480186E08083E0914501F091460149
:10060000808180618083E0914501F0914601808185
:1006100088608083E0914501F09146018081806887
:100620008083E0914501F091460180818F7D808338
:100630000E946601FDCFCF93DF93C0EDD1E08C85A2
:100640009D850E9402048E819F810E940204888100
:100650009981DF91CF910C9402042F923F924F9297
:100660005F926F927F928F929F92AF92BF92CF9242
:10067000DF92EF92FF920F931F93CF93DF93CDB74B
:10068000DEB7CA1BDB0B0FB6F894DEBF0FBECDBFC3
:1006900009942A88398848885F846E847D848C8494
:1006A0009B84AA84B984C884DF80EE80FD800C819D
:1006B0001B81AA81B981CE0FD11D0FB6F894DEBF80
:1006C0000FBECDBFED010895EE0FFF1F0590F49111
:1006D000E02D09940F931F93CF93DF938230910500
:1006E00010F482E090E0E091E401F091E50120E077
:1006F00030E0A0E0B0E0309719F1408151810281F3
:10070000138148175907C8F08417950769F41097A3
:1007100031F012960C93129713961C9327C00093F6
:10072000E4011093E50122C02115310519F04217AB
:10073000530718F49A01BD01EF01DF01F801DBCF87
:1007400021153105F9F0281B390B2430310580F4CF
:100750008A819B816115710521F0FB01938382835E
:1007600004C09093E5018093E401FE01329644C0F9
:10077000FE01E20FF31F81939193225031093983D7
:1007800028833AC02091E2013091E301232B41F408
:1007900020910201309103013093E3012093E201A3
:1007A00020910001309101012115310541F42DB74F
:1007B0003EB74091040150910501241B350BE09197
:1007C000E201F091E301E217F307A0F42E1B3F0BC7
:1007D0002817390778F0AC014E5F5F4F24173507B3
:1007E00048F04E0F5F1F5093E3014093E201819365
:1007F000919302C0E0E0F0E0CF01DF91CF911F9133
:100800000F910895CF93DF93009709F481C0FC0105
:10081000329713821282A091E401B091E501109702
:1008200081F420813181820F931F2091E201309168
:10083000E3012817390751F5F093E301E093E20152
:1008400067C0ED0120E030E0CE17DF0740F44A81B9
:100850005B819E0141155105F1F0EA01F5CFD3838B
:10086000C28340815181840F951FC817D90759F45D
:1008700088819981840F951F0296918380838A8154
:100880009B81938382832115310529F4F093E5013F
:10089000E093E4013DC0E901FB83EA83499159916A
:1008A000C40FD51FEC17FD0761F480819181840F7F
:1008B000951F0296E90199838883828193819B83A6
:1008C0008A83E0E0F0E012968D919C911397009757
:1008D00019F0FD01DC01F7CF8D919C9111979D01DD
:1008E0002E5F3F4F820F931F2091E2013091E30171
:1008F0002817390769F4309729F41092E50110920E
:10090000E40102C013821282B093E301A093E201DA
:10091000DF91CF910895A0E0B0E0E1E9F4E00C941C
:100920003103EC01009721F4CB010E946A03B4C0AB
:10093000FC01E60FF71F9C0122503109E217F30773
:1009400008F4A8C0D9010D911C911197061717073B
:10095000B0F00530110508F49BC0C8010497861754
:10096000970708F495C002501109061B170B019355
:1009700011936D937C93CF010E94020489C05B01A7
:10098000A01AB10A4C01800E911EA091E401B09111
:10099000E501612C712CE12CF12C109709F446C073
:1009A0008D919C911197A815B905B1F56C0142E0A4
:1009B000C40ED11CCA14DB0478F14C018A189B08C0
:1009C000640142E0C40ED11C1296BC90129713969B
:1009D000AC91B5E0CB16D10440F0B282A3839182F2
:1009E0008082D9016D937C9309C00E5F1F4F800FE9
:1009F000911FF90191838083EB2DFA2FE114F1040B
:100A000031F0D7011396FC93EE93129741C0F09307
:100A1000E501E093E4013CC06816790608F43C0166
:100A20007D0112960D90BC91A02DB7CF8091E2016F
:100A30009091E30188169906E1F466167706C8F4EA
:100A40008091000190910101009741F48DB79EB70C
:100A50004091040150910501841B950BE817F9079B
:100A6000C8F4F093E301E093E201F901718360833C
:100A70000FC0CB010E946A037C01009759F0A801C6
:100A8000BE010E945605CE010E940204C70104C0A7
:100A9000CE0102C080E090E0CDB7DEB7EEE00C946E
:100AA0004D0381E090E0F8940C946605FB01DC01B5
:100AB00002C001900D9241505040D8F70895FB01BB
:100AC000DC0101900D920020E1F7089510E0C5E3EC
:100AD000D0E004C0FE010E9464032196C633D10712
:060AE000C9F7F894FFCFF6
:100AE6000000E601200000000000F70060008E0014
:100AF6004401BF009D00B1004C6566740043656EFD
:0A0B0600746572005269676874009C
:00000001FF
