:100000000C9462000C948A000C948A000C948A0070
:100010000C948A000C948A000C948A000C948A0038
:100020000C948A000C948A000C948A000C948A0028
:100030000C948A000C948A000C948A000C948A0018
:100040000C9492020C948A000C9402030C94DC022F
:100050000C948A000C948A000C948A000C948A00F8
:100060000C948A000C948A000000000024002700F1
:100070002A0000000000250028002B0000000000DE
:1000800023002600290004040404040404040202DA
:100090000202020203030303030301020408102007
:1000A0004080010204081020010204081020000012
:1000B0000008000201000003040700000000000027
:1000C0000000340311241FBECFEFD8E0DEBFCDBF48
:1000D00011E0A0E0B1E0E8ECFEE002C005900D9276
:1000E000A232B107D9F721E0A2E2B1E001C01D922E
:1000F000A73DB207E1F710E0C2E6D0E004C02197C7
:10010000FE010E948D05C136D107C9F70E947C030C
:100110000C9462070C940000833081F028F4813045
:1001200099F08230A1F008958730A9F08830B9F0B5
:100130008430D1F4809180008F7D03C08091800055
:100140008F7780938000089584B58F7702C084B53F
:100150008F7D84BD08958091B0008F7703C080911A
:10016000B0008F7D8093B0000895CF93DF93282F48
:1001700030E0F901E255FF4F8491F901E656FF4F57
:10018000D491F901EA57FF4FC491CC2391F081112A
:100190000E948C00EC2FF0E0EE0FFF1FE458FF4FA1
:1001A000A591B491EC91ED2381E090E021F480E001
:1001B00002C080E090E0DF91CF9108951F93CF932C
:1001C000DF93282F30E0F901E255FF4F8491F901C8
:1001D000E656FF4FD491F901EA57FF4FC491CC2363
:1001E000C1F0162F81110E948C00EC2FF0E0EE0F71
:1001F000FF1FEE58FF4FA591B4919FB7F8941111CE
:1002000004C08C91D095D82302C0EC91DE2BDC93F6
:100210009FBFDF91CF911F910895CF93DF9390E01F
:10022000FC01E656FF4F2491FC01EA57FF4F8491F1
:10023000882361F190E0880F991FFC01E859FF4F76
:10024000C591D491FC01EE58FF4FA591B491611175
:1002500009C09FB7F8948881209582238883EC9108
:100260002E230BC0623061F49FB7F8948881322F3F
:10027000309583238883EC912E2B2C939FBF06C04F
:100280008FB7F894E8812E2B28838FBFDF91CF9111
:1002900008953FB7F89480912B0190912C01A09183
:1002A0002D01B0912E0126B5A89B05C02F3F19F056
:1002B0000196A11DB11D3FBFBA2FA92F982F8827E6
:1002C000820F911DA11DB11DBC01CD0142E0660F41
:1002D000771F881F991F4A95D1F70895CF92DF9213
:1002E000EF92FF920F931F93CF93DF936C017A01EC
:1002F0008B01C0E0D0E0CE15DF0581F0D8016D9113
:100300008D01D601ED91FC910190F081E02DC601A7
:100310000995892B11F02196EECF7E01C701DF915F
:10032000CF911F910F91FF90EF90DF90CF900895A4
:10033000089580E090E00895FC01538D448D252FB1
:1003400030E0842F90E0821B930B541710F0CF966F
:10035000089501970895FC01918D828D981761F0A1
:10036000828DDF01A80FB11D5D968C91928D9F5FEC
:100370009F73928F90E008958FEF9FEF0895FC0197
:10038000918D828D981731F0828DE80FF11D858D4A
:1003900090E008958FEF9FEF0895FC01918D228DDD
:1003A000892F90E0805C9F4F821B91098F73992762
:1003B00008958FE291E00E94CD0121E0892B09F49C
:1003C00020E0822F0895FC01848DDF01A80FB11D6C
:1003D000A35ABF4F2C91848D90E001968F7399277B
:1003E000848FA689B7892C93A089B1898C91837059
:1003F00080648C93938D848D981306C00288F38952
:10040000E02D80818F7D80830895EF92FF920F937E
:100410001F93CF93DF93EC0181E0888F9B8D8C8DB0
:10042000981305C0E889F989808185FD26C0F62EDC
:100430000B8D10E00F5F1F4F0F731127E02E8C8D77
:10044000E8120CC00FB607FCFACFE889F989808161
:1004500085FFF5CFCE010E94E301F1CF8B8DFE0128
:10046000E80FF11DE35AFF4FF0829FB7F8940B8F0E
:10047000EA89FB89808180620AC09FB7F894EE897F
:10048000FF896083E889F989808183708064808333
:100490009FBF81E090E0DF91CF911F910F91FF907E
:1004A000EF900895CF93DF93EC01888D8823C9F0F6
:1004B000EA89FB89808185FD05C0A889B9898C916D
:1004C00086FD0FC00FB607FCF5CF808185FFF2CF08
:1004D000A889B9898C9185FFEDCFCE010E94E301F7
:1004E000E7CFDF91CF91089580E090E0892B29F04C
:1004F0000E94D90181110C9400000895009769F0C1
:10050000FC0101900020E9F73197AF01481B590B1E
:10051000BC018FE291E00C946E0180E090E00895C0
:100520000E945D071F920F920FB60F9211242F9316
:100530003F938F939F93AF93BF93809127019091A7
:100540002801A0912901B0912A013091260123E0D0
:10055000230F2D3720F40196A11DB11D05C026E8FB
:10056000230F0296A11DB11D209326018093270120
:1005700090932801A0932901B0932A0180912B0127
:1005800090912C01A0912D01B0912E010196A11DF9
:10059000B11D80932B0190932C01A0932D01B0935A
:1005A0002E01BF91AF919F918F913F912F910F900D
:1005B0000FBE0F901F9018951F920F920FB60F92BB
:1005C00011242F933F934F935F936F937F938F9358
:1005D0009F93AF93BF93EF93FF938FE291E00E94BD
:1005E000E301FF91EF91BF91AF919F918F917F9127
:1005F0006F915F914F913F912F910F900FBE0F9090
:100600001F9018951F920F920FB60F9211242F93DF
:100610008F939F93EF93FF93E0913F01F0914001FF
:100620008081E0914501F091460182FD12C09081E8
:10063000809148018F5F8F7320914901821751F09B
:10064000E0914801F0E0E15DFE4F958F8093480115
:1006500001C08081FF91EF919F918F912F910F9019
:100660000FBE0F901F901895CF93DF93EFE2F1E04C
:100670001382128288EE93E0A0E0B0E08483958339
:10068000A683B78384E091E09183808385EC90E03A
:100690009587848784EC90E09787868780EC90E04C
:1006A000918B808B81EC90E0938B828B82EC90E03D
:1006B000958B848B86EC90E0978B868B118E128EB7
:1006C000138E148ECCECD1E01A8287E0888386E00A
:1006D000898361E087E00E940D0160E089810E94CA
:1006E0000D0180E29EE4A0E0B0E08F839887A987A7
:1006F000BA87DF91CF910895CF93DF93CDB7DEB75F
:10070000A2970FB6F894DEBF0FBECDBF789484B524
:10071000826084BD84B5816084BD85B5826085BDFD
:1007200085B5816085BD80916E00816080936E008B
:10073000109281008091810082608093810080917D
:10074000810081608093810080918000816080932E
:1007500080008091B10084608093B1008091B000EE
:1007600081608093B00080917A00846080937A00E9
:1007700080917A00826080937A0080917A00816013
:1007800080937A0080917A00806880937A0010923A
:10079000C100E0913F01F091400182E08083E0914F
:1007A0003B01F0913C011082E0913D01F0913E014E
:1007B0008FEC808310924701E0914301F091440156
:1007C00086E08083E0914101F09142018081806167
:1007D0008083E0914101F0914201808188608083B3
:1007E000E0914101F0914201808180688083E09135
:1007F0004101F091420180818F7D80839AE0892EB2
:10080000912CA12CB12C8091CE01882329F061E09C
:100810008091CC010E940D0160E08091CC010E948A
:10082000DE0083E090E00197F1F761E08091CC0178
:100830000E94DE0083E290E00197F1F760E0809192
:10084000CC010E94DE008091CE01882329F060E077
:100850008091CC010E940D010E9449016093CF015B
:100860007093D0018093D1019093D2018091CD01FA
:100870000E94B500892BE9F40E9449010091CF0143
:100880001091D0012091D1013091D201DC01CB0136
:10089000801B910BA20BB30B0091D3011091D401DB
:1008A0002091D5013091D601081719072A073B0777
:1008B000E8F60E9449016093CF017093D0018093C4
:1008C000D1019093D2018091CD010E94B500892B76
:1008D000E9F00E9449010091CF011091D0012091CF
:1008E000D1013091D201DC01CB01801B910BA20B15
:1008F000B30B0091D3011091D4012091D501309117
:10090000D601081719072A073B07E8F60E94490194
:100910002091CF013091D001CB01821B930B68E372
:1009200070E00E94570580E090E00E9434066B0161
:100930007C016093220170932301809324019093A2
:1009400025019B01AC010E945807882319F082E120
:1009500091E01AC026013701E89477F82FEF3FEFB6
:100960004FE75FE7C301B2010E94580781110FC032
:100970002FEF3FEF4FE75FE7C301B2010E94000690
:1009800018162CF486E191E00E947E0289C02FEFB8
:100990003FEF4FE75FE4C701B6010E94E606181675
:1009A0001CF48AE191E0F0CF2FEF3FEF4FE75FECCF
:1009B000C701B6010E94000687FDF3CF2AE037ED9C
:1009C00043EA5BE3C701B6010E9494052B013C0199
:1009D0000E9405066B017C010E9434069B01AC015C
:1009E000C301B2010E9493051B012C0119A28E01C3
:1009F0000F5D1F4F0AA3712EC701B601A501940117
:100A00000E946B0569017A01605DF80162938F01B4
:100A1000232B242B252B81F7CF010E947E026EE22F
:100A20008FE291E00E94050283E0F82EFA94FF2005
:100A3000B9F120E030E040E251E4C201B1010E948E
:100A4000EB061B012C010E9405069B0140E050E0D3
:100A500019A20AA1172D662EC32ED42EE52ECA0187
:100A6000B901A50194010E946B05605DF8016293D4
:100A70008F01211531054105510589F7CF010E94EC
:100A80007E02662D7C2D8D2D9E2D0E9434069B01AD
:100A9000AC01C201B1010E9493051B012C01C6CF1C
:100AA0008EE191E00E947E020E947402ACCEAA1BED
:100AB000BB1B51E107C0AA1FBB1FA617B70710F049
:100AC000A61BB70B881F991F5A95A9F7809590957B
:100AD000BC01CD010895A1E21A2EAA1BBB1BFD018A
:100AE0000DC0AA1FBB1FEE1FFF1FA217B307E4070D
:100AF000F50720F0A21BB30BE40BF50B661F771F65
:100B0000881F991F1A9469F7609570958095909544
:100B10009B01AC01BD01CF010895EE0FFF1F0590B1
:100B2000F491E02D09945058BB27AA270E94AB05E9
:100B30000C94AC060E949E0638F00E94A50620F098
:100B400039F49F3F19F426F40C949B060EF4E095BB
:100B5000E7FB0C949506E92F0E94BD0658F3BA17DF
:100B6000620773078407950720F079F4A6F50C94C3
:100B7000DF060EF4E0950B2EBA2FA02D0B01B90164
:100B800090010C01CA01A0011124FF27591B99F003
:100B9000593F50F4503E68F11A16F040A22F232F0F
:100BA000342F4427585FF3CF469537952795A7955F
:100BB000F0405395C9F77EF41F16BA0B620B730B06
:100BC000840BBAF09150A1F0FF0FBB1F661F771F77
:100BD000881FC2F70EC0BA0F621F731F841F48F42C
:100BE000879577956795B795F7959E3F08F0B0CFB5
:100BF0009395880F08F09927EE0F9795879508959C
:100C00000E94710608F481E008950E94C50688F0EC
:100C10009F5798F0B92F9927B751B0F0E1F0660FC0
:100C2000771F881F991F1AF0BA95C9F714C0B13001
:100C300091F00E94DF06B1E008950C94DF06672F63
:100C4000782F8827B85F39F0B93FCCF38695779530
:100C50006795B395D9F73EF4909580957095619519
:100C60007F4F8F4F9F4F0895E89409C097FB3EF444
:100C700090958095709561957F4F8F4F9F4F9923E9
:100C8000A9F0F92F96E9BB279395F6958795779567
:100C90006795B795F111F8CFFAF4BB0F11F460FF27
:100CA0001BC06F5F7F4F8F4F9F4F16C0882311F07F
:100CB00096E911C0772321F09EE8872F762F05C093
:100CC000662371F096E8862F70E060E02AF09A952E
:100CD000660F771F881FDAF7880F9695879597F923
:100CE0000895990F0008550FAA0BE0E8FEEF1616BD
:100CF0001706E807F907C0F012161306E407F50710
:100D000098F0621B730B840B950B39F40A2661F083
:100D1000232B242B252B21F408950A2609F4A14026
:100D2000A6958FEF811D811D089597F99F6780E833
:100D300070E060E008959FEF80EC089500240A942D
:100D40001616170618060906089500240A941216A6
:100D50001306140605060895092E0394000C11F4D9
:100D6000882352F0BB0F40F4BF2B11F460FF04C086
:100D70006F5F7F4F8F4F9F4F089557FD9058440FDF
:100D8000551F59F05F3F71F04795880F97FB991FEA
:100D900061F09F3F79F087950895121613061406A7
:100DA000551FF2CF4695F1DF08C016161706180634
:100DB000991FF1CF86957105610508940895E8940F
:100DC000BB2766277727CB0197F908950E94710604
:100DD00008F48FEF08950E94FE060C94AC060E9462
:100DE0009E0638F00E94A50620F0952311F00C9481
:100DF00095060C949B0611240C94E0060E94BD06F7
:100E000070F3959FC1F3950F50E0551F629FF0015D
:100E1000729FBB27F00DB11D639FAA27F00DB11D76
:100E2000AA1F649F6627B00DA11D661F829F2227FF
:100E3000B00DA11D621F739FB00DA11D621F839F86
:100E4000A00D611D221F749F3327A00D611D231F5C
:100E5000849F600D211D822F762F6A2F11249F57AA
:100E600050409AF0F1F088234AF0EE0FFF1FBB1FAD
:100E7000661F771F881F91505040A9F79E3F51056C
:100E800080F00C9495060C94E0065F3FE4F3983EE6
:100E9000D4F3869577956795B795F795E7959F5F16
:100EA000C1F7FE2B880F911D9695879597F90895A8
:100EB0000E947106880B990B089581E090E0F894E8
:080EC0000C946207F894FFCFC7
:100EC8000000000005026E019C015202CD01AB0139
:100ED800BF016E616E00696E66006F7666000D0A6E
:020EE800000008
:00000001FF
