:100000000C9435000C945D000C945D000C945D0024
:100010000C945D000C945D000C945D000C945D00EC
:100020000C945D000C945D000C945D000C945D00DC
:100030000C945D000C945D000C945D000C945D00CC
:100040000C94A7010C945D000C9417020C94F10120
:100050000C945D000C945D000C945D000C945D00AC
:100060000C945D000C945D00490211241FBECFEF7B
:10007000D8E0DEBFCDBF11E0A0E0B1E0EEEBF8E0EC
:1000800002C005900D92A633B107D9F721E0A6E38F
:10009000B1E001C01D92A53EB207E1F710E0C5E353
:1000A000D0E004C02197FE010E943103C433D10780
:1000B000C9F70E9483020C945D040C9400003FB7C2
:1000C000F89480913B0190913C01A0913D01B09149
:1000D0003E0126B5A89B05C02F3F19F00196A11D32
:1000E000B11D3FBFBA2FA92F982F8827820F911DCE
:1000F000A11DB11DBC01CD0142E0660F771F881F15
:10010000991F4A95D1F70895CF92DF92EF92FF920F
:100110000F931F93CF93DF936C017A018B01C0E0A3
:10012000D0E0CE15DF0581F0D8016D918D01D601AB
:10013000ED91FC910190F081E02DC6010995892B8C
:1001400011F02196EECF7E01C701DF91CF911F9173
:100150000F91FF90EF90DF90CF900895089580E089
:1001600090E00895FC01538D448D252F30E0842FBD
:1001700090E0821B930B541710F0CF9608950197CF
:100180000895FC01918D828D981761F0828DDF01B9
:10019000A80FB11D5D968C91928D9F5F9F73928F7A
:1001A00090E008958FEF9FEF0895FC01918D828D6F
:1001B000981731F0828DE80FF11D858D90E008953C
:1001C0008FEF9FEF0895FC01918D228D892F90E094
:1001D000805C9F4F821B91098F73992708958FE34D
:1001E00091E00E94E30021E0892B09F420E0822FB6
:1001F0000895FC01848DDF01A80FB11DA35ABF4FE4
:100200002C91848D90E001968F739927848FA68915
:10021000B7892C93A089B1898C91837080648C9369
:10022000938D848D981306C00288F389E02D808118
:100230008F7D80830895EF92FF920F931F93CF934A
:10024000DF93EC0181E0888F9B8D8C8D981305C026
:10025000E889F989808185FD26C0F62E0B8D10E096
:100260000F5F1F4F0F731127E02E8C8DE8120CC00B
:100270000FB607FCFACFE889F989808185FFF5CFB1
:10028000CE010E94F900F1CF8B8DFE01E80FF11D28
:10029000E35AFF4FF0829FB7F8940B8FEA89FB89EE
:1002A000808180620AC09FB7F894EE89FF896083DD
:1002B000E889F98980818370806480839FBF81E0B1
:1002C00090E0DF91CF911F910F91FF90EF900895F3
:1002D000CF93DF93EC01888D8823C9F0EA89FB89ED
:1002E000808185FD05C0A889B9898C9186FD0FC0E4
:1002F0000FB607FCF5CF808185FFF2CFA889B989B9
:100300008C9185FFEDCFCE010E94F900E7CFDF9100
:10031000CF91089580E090E0892B29F00E94EF00B2
:1003200081110C940000089508950E94580440E142
:1003300050E062E271E08FE391E00E94840042E0CD
:1003400050E063E371E08FE391E00C9484001F922E
:100350000F920FB60F9211242F933F938F939F9379
:10036000AF93BF938091370190913801A0913901EB
:10037000B0913A013091360123E0230F2D3720F45C
:100380000196A11DB11D05C026E8230F0296A11DEF
:10039000B11D209336018093370190933801A093CB
:1003A0003901B0933A0180913B0190913C01A091B9
:1003B0003D01B0913E010196A11DB11D80933B010D
:1003C00090933C01A0933D01B0933E01BF91AF914A
:1003D0009F918F913F912F910F900FBE0F901F9083
:1003E00018951F920F920FB60F9211242F933F93DF
:1003F0004F935F936F937F938F939F93AF93BF932D
:10040000EF93FF938FE391E00E94F900FF91EF914A
:10041000BF91AF919F918F917F916F915F914F911C
:100420003F912F910F900FBE0F901F9018951F9224
:100430000F920FB60F9211242F938F939F93EF93E8
:10044000FF93E0914F01F09150018081E0915501BF
:10045000F091560182FD12C09081809158018F5F0A
:100460008F7320915901821751F0E0915801F0E00B
:10047000E15CFE4F958F8093580101C08081FF9110
:10048000EF919F918F912F910F900FBE0F901F9022
:100490001895EFE3F1E01382128288EE93E0A0E07A
:1004A000B0E084839583A683B7838AE091E091834B
:1004B000808385EC90E09587848784EC90E0978733
:1004C000868780EC90E0918B808B81EC90E0938B21
:1004D000828B82EC90E0958B848B86EC90E0978BFE
:1004E000868B118E128E138E148E82E090E00E9405
:1004F00037032CE131E0FC01318320839093DD014F
:100500008093DC010895789484B5826084BD84B5BD
:10051000816084BD85B5826085BD85B5816085BDFE
:1005200080916E00816080936E00109281008091B6
:10053000810082608093810080918100816080933E
:100540008100809180008160809380008091B10063
:1005500084608093B1008091B00081608093B0008E
:1005600080917A00846080937A0080917A00826022
:1005700080937A0080917A00816080937A008091E4
:100580007A00806880937A001092C100E0914F0158
:10059000F091500182E08083E0914B01F0914C0199
:1005A0001082E0914D01F0914E018FEC808310920A
:1005B0005701E0915301F091540186E08083E0916E
:1005C0005101F0915201808180618083E09151015D
:1005D000F0915201808188608083E0915101F09117
:1005E0005201808180688083E0915101F091520135
:1005F00080818F7D80838091DC019091DD01DC0121
:10060000ED91FC910280F381E02D60E009950E945C
:100610005F006B017C0188E8882E83E1982EA12C75
:10062000B12C0E945F00DC01CB018C199D09AE0941
:10063000BF09883E9340A105B10598F3B1E08B1A3C
:100640009108A108B10828EEC20E23E0D21EE11CD9
:10065000F11C81149104A104B10419F70E948A01CC
:10066000CACFEE0FFF1F0590F491E02D09940F9370
:100670001F93CF93DF938230910510F482E090E0D6
:10068000E091E301F091E40120E030E0A0E0B0E08F
:10069000309719F140815181028113814817590720
:1006A000C8F08417950769F4109731F012960C93EF
:1006B000129713961C9327C00093E3011093E40153
:1006C00022C02115310519F04217530718F49A0179
:1006D000BD01EF01DF01F801DBCF21153105F9F094
:1006E000281B390B2430310580F48A819B816115E8
:1006F000710521F0FB019383828304C09093E40190
:100700008093E301FE01329644C0FE01E20FF31F25
:100710008193919322503109398328833AC02091E3
:10072000E1013091E201232B41F42091020130914B
:1007300003013093E2012093E10120910001309107
:1007400001012115310541F42DB73EB74091040157
:1007500050910501241B350BE091E101F091E2017C
:10076000E217F307A0F42E1B3F0B2817390778F088
:10077000AC014E5F5F4F2417350748F04E0F5F1FE7
:100780005093E2014093E1018193919302C0E0E034
:10079000F0E0CF01DF91CF911F910F910895CF939A
:1007A000DF93009709F481C0FC0132971382128213
:1007B000A091E301B091E401109781F4208131818F
:1007C000820F931F2091E1013091E2012817390730
:1007D00051F5F093E201E093E10167C0ED0120E003
:1007E00030E0CE17DF0740F44A815B819E0141155E
:1007F0005105F1F0EA01F5CFD383C28340815181E5
:10080000840F951FC817D90759F488819981840FDF
:10081000951F0296918380838A819B819383828333
:100820002115310529F4F093E401E093E3013DC083
:10083000E901FB83EA8349915991C40FD51FEC1755
:10084000FD0761F480819181840F951F0296E90173
:1008500099838883828193819B838A83E0E0F0E09F
:1008600012968D919C911397009719F0FD01DC0170
:10087000F7CF8D919C9111979D012E5F3F4F820F75
:10088000931F2091E1013091E2012817390769F4A3
:10089000309729F41092E4011092E30102C0138210
:1008A0001282B093E201A093E101DF91CF9108950C
:0E08B00081E090E0F8940C945D04F894FFCF82
:1008BE000000E5012000000000001B018400B200D2
:1008CE006801E300C100D50000000000940197010B
:1008DE00940145737461646F206465206672656E61
:0608EE007465000D0A0014
:00000001FF
