:100000000C9495000C94BD000C94BD000C94BD00A4
:100010000C94BD000C94BD000C94BD000C94BD006C
:100020000C94BD000C94BD000C94BD000C94BD005C
:100030000C94BD000C94BD000C94BD000C94BD004C
:100040000C949B040C94BD000C940B050C94E504DB
:100050000C94BD000C94BD000C94BD000C94BD002C
:100060000C94BD000C94BD00456E7472616E646F9B
:1000700020656D20466F7277617264005361696E0E
:10008000646F20646520466F727761726400456E0C
:100090007472616E646F20656D205475726E696E46
:1000A000674C656674005361696E646F20646520F7
:1000B0005475726E696E674C6566740057616C6B3F
:1000C000696E670000000000250028002B0000007A
:1000D0000000240027002A00000000002300260062
:1000E00029000404040404040404020202020202BB
:1000F00003030303030301020408102040800102EC
:10010000040810200102040810200000000800026A
:1001100001000003040700000000000000004C651F
:100120006674696E6700B305680811241FBECFEFBF
:10013000D8E0DEBFCDBF22E0AAE5B1E001C01D924C
:10014000AC39B207E1F711E0A0E0B1E0E4E0F6E19C
:1001500002C005900D92AA35B107D9F710E0C4E9A5
:10016000D0E004C02197FE010E94F308C339D107F3
:10017000C9F70E9452070C94F50A0C9400000F93E3
:100180001F93CF93DF93EC018B0188819981DC0170
:100190004D915C91EC81FD812DB73EB72251310923
:1001A0000FB6F8943EBF0FBE2DBFADB7BEB71196C8
:1001B00022E101900D922A95E1F7DA011296ED9174
:1001C000FC9113970995888199819B838A83198370
:1001D0000883F80120813181EC81FD818DB79EB7C4
:1001E00042970FB6F8949EBF0FBE8DBFADB7BEB796
:1001F000119682E101900D928A95E1F7D901ED9176
:10020000FC91C8010995EDB7FEB7B4960FB6F89406
:10021000FEBF0FBEEDBFDF91CF911F910F910895EB
:1002200090E0FC01E65FFE4F2491FC01EA50FF4F95
:100230003491FC01EE51FF4FE491EE23B9F12223FA
:1002400039F1233091F038F42130A9F0223001F552
:1002500084B58F7D12C0273091F02830A1F0243072
:10026000B9F4809180008F7D03C0809180008F77EA
:10027000809380000DC084B58F7784BD09C08091C4
:10028000B0008F7703C08091B0008F7D8093B00065
:10029000F0E0EE0FFF1FE852FF4FA591B491EC91F3
:1002A000E32381E090E021F480E0089580E090E095
:1002B0000895CF93DF9390E0FC01EA50FF4F249123
:1002C000FC01EE51FF4F8491882361F190E0880F8B
:1002D000991FFC01E253FF4FC591D491FC01EC53EF
:1002E000FF4FA591B491611109C09FB7F89488811F
:1002F000209582238883EC912E230BC0623061F419
:100300009FB7F8948881322F309583238883EC91AE
:100310002E2B2C939FBF06C08FB7F894E8812E2B0D
:1003200028838FBFDF91CF910895EF92FF920F93B3
:100330001F93CF93DF93CDB7DEB7EB85FC8580812C
:100340000E9410017C01ED85FE8580810E941001D4
:100350008C01EF85F88980810E9410019C01EF28B3
:1003600029F0012B19F481E0232B09F080E0DF91C3
:10037000CF911F910F91FF90EF900895CF92DF9250
:10038000EF92FF920F931F93CF93DF936C017A014B
:100390008B01C0E0D0E0CE15DF0581F0D8016D9172
:1003A0008D01D601ED91FC910190F081E02DC60107
:1003B0000995892B11F02196EECF7E01C701DF91BF
:1003C000CF911F910F91FF90EF90DF90CF90089504
:1003D000089580E090E00895FC01538D448D252F11
:1003E00030E0842F90E0821B930B541710F0CF96CF
:1003F000089501970895FC01918D828D981761F001
:10040000828DDF01A80FB11D5D968C91928D9F5F4B
:100410009F73928F90E008958FEF9FEF0895FC01F6
:10042000918D828D981731F0828DE80FF11D858DA9
:1004300090E008958FEF9FEF0895FC01918D228D3C
:10044000892F90E0805C9F4F821B91098F739927C1
:1004500008958BE691E00E941D0221E0892B09F4AA
:1004600020E0822F0895FC01848DDF01A80FB11DCB
:10047000A35ABF4F2C91848D90E001968F739927DA
:10048000848FA689B7892C93A089B1898C918370B8
:1004900080648C93938D848D981306C00288F389B1
:1004A000E02D80818F7D80830895EF92FF920F93DE
:1004B0001F93CF93DF93EC0181E0888F9B8D8C8D10
:1004C000981305C0E889F989808185FD26C0F62E3C
:1004D0000B8D10E00F5F1F4F0F731127E02E8C8DD7
:1004E000E8120CC00FB607FCFACFE889F9898081C1
:1004F00085FFF5CFCE010E943302F1CF8B8DFE0137
:10050000E80FF11DE35AFF4FF0829FB7F8940B8F6D
:10051000EA89FB89808180620AC09FB7F894EE89DE
:10052000FF896083E889F989808183708064808392
:100530009FBF81E090E0DF91CF911F910F91FF90DD
:10054000EF9008950F931F93CF93DF938C01C0E03A
:10055000D0E0F801EC0FFD1F6491662341F08BE6BB
:1005600091E00E945502892B11F02196F2CF42E0D2
:1005700050E065E471E08BE691E00E94BE018C0FD3
:100580009D1FDF91CF911F910F910895CF93DF931E
:10059000CDB7DEB78EE191E0DF91CF910C94A2024E
:1005A000CF93DF93CDB7DEB78CEB90E0DF91CF91A7
:1005B0000C94A202CF93DF93CDB7DEB786EA90E02A
:1005C000DF91CF910C94A202CF93DF93EC01888D41
:1005D0008823C9F0EA89FB89808185FD05C0A88947
:1005E000B9898C9186FD0FC00FB607FCF5CF8081CD
:1005F00085FFF2CFA889B9898C9185FFEDCFCE0117
:100600000E943302E7CFDF91CF91089580E090E020
:10061000892B29F00E94290281110C940000089571
:10062000CF93DF93CDB7DEB78CE790E0DF91CF912A
:100630000C94A2020F931F93CF93DF93EC0182E1FE
:1006400091E09983888383E090E00E94F9088C010F
:1006500080E090E00E94F908F80191838083128283
:100660001B830A8383E090E00E94F9088C0180E0FC
:1006700090E00E94F908F8019183808312821D8323
:100680000C83DF91CF911F910F910895CF93DF934A
:1006900080915E0190915F01892B79F486E090E072
:1006A0000E94F908EC010E941A0380E291E099830C
:1006B0008883D0935F01C0935E0180915E01909129
:1006C0005F01DF91CF910895CF93DF9380915A011D
:1006D00090915B01892B79F486E090E00E94F90803
:1006E000EC010E941A038AE091E099838883D093F9
:1006F0005B01C0935A0180915A0190915B01DF9197
:10070000CF9108950E94E00AFC01808191810C94B0
:100710009109DF92EF92FF920F931F93CF93DF9394
:10072000EC017B01DA808D2D90E00196880F991FF6
:100730000E94F9088C01FC0190E0288139819D1507
:1007400061F0AF01401B510BD901A40FB51F2D91D2
:100750003C91219331939F5FF0CFF801E90FF11D98
:10076000E90FF11DF182E0822115310519F0C9016F
:100770000E949109198308838A818F5F8A83DF91A0
:10078000CF911F910F91FF90EF90DF900895AF925E
:10079000BF92CF92DF92EF92FF920F931F93CF936E
:1007A000DF93CDB7DEB78C018091690190916A012A
:1007B000892B69F482E090E00E94F90828E231E098
:1007C000FC013183208390936A01809369016091D9
:1007D000690170916A01F801828193810E94890305
:1007E00082E090E00E94F9087C018EE291E0F7013E
:1007F000918380830E9446035C010E9464036C0124
:1008000086E090E00E94F908FC01F182E082B38268
:10081000A282D582C482BC01F801848195810E94A4
:1008200089038EE890E0DF91CF911F910F91FF90A7
:10083000EF90DF90CF90BF90AF900C94A202AF9258
:10084000BF92CF92DF92EF92FF920F931F93CF93BD
:10085000DF93CDB7DEB78C0180915C0190915D0193
:10086000892B69F482E090E00E94F9082AE131E0E6
:10087000FC013183208390935D0180935C01609142
:100880005C0170915D01F801828193810E9489036E
:1008900082E090E00E94F9087C018EE291E0F7018D
:1008A000918380830E9446035C010E9464036C0173
:1008B00086E090E00E94F908FC01F182E082B382B8
:1008C000A282D582C482BC01F801848195810E94F4
:1008D000890388E690E0DF91CF911F910F91FF90FF
:1008E000EF90DF90CF90BF90AF900C94A202CF9288
:1008F000DF92EF92FF920F931F93CF938C016B01C6
:10090000C42F7C018FEFE81AF80A67E471E0C70191
:100910000E949E05B601C7010E947D05F801C083B3
:1009200060E08C2FCF911F910F91FF90EF90DF909F
:10093000CF900C9459011F920F920FB60F92112471
:100940002F933F938F939F93AF93BF9380916501B4
:1009500090916601A0916701B091680130916401A6
:1009600023E0230F2D3720F40196A11DB11D05C0F2
:1009700026E8230F0296A11DB11D209364018093E8
:10098000650190936601A0936701B093680180911F
:10099000600190916101A0916201B09163010196A3
:1009A000A11DB11D8093600190936101A09362012C
:1009B000B0936301BF91AF919F918F913F912F9120
:1009C0000F900FBE0F901F9018951F920F920FB6A9
:1009D0000F9211242F933F934F935F936F937F93C5
:1009E0008F939F93AF93BF93EF93FF938BE691E029
:1009F0000E943302FF91EF91BF91AF919F918F9130
:100A00007F916F915F914F913F912F910F900FBE0A
:100A10000F901F9018951F920F920FB60F921124EE
:100A20002F938F939F93EF93FF93E0917B01F0912E
:100A30007C018081E0918101F091820182FD12C0F0
:100A40009081809184018F5F8F732091850182173F
:100A500051F0E0918401F0E0E559FE4F958F8093CD
:100A6000840101C08081FF91EF919F918F912F911F
:100A70000F900FBE0F901F901895EF92FF920F935B
:100A80001F93CF93DF93EC017B018A0188819981C9
:100A9000009729F02A813B8124173507F8F4B80123
:100AA0006F5F7F4F0E941A0A009759F099838883DD
:100AB0001B830A832C813D81232B81F4FC0110824E
:100AC0000DC088819981009711F00E9491091982C7
:100AD00018821D821C821B821A8207C01D830C8310
:100AE000B701888199810E94EE0ACE01DF91CF91F2
:100AF0001F910F91FF90EF900895CF93DF93EC013A
:100B0000FB0186179707B1F060817181611571054E
:100B100029F0448155810E943D050CC0888199814E
:100B2000009711F00E949109198218821D821C827F
:100B30001B821A82CE01DF91CF910895FC011182B0
:100B4000108213821282158214826115710551F090
:100B5000FB0101900020E9F73197AF01461B570BCD
:100B60000C943D0508958F929F92AF92BF92CF92C1
:100B7000DF92EF92FF920F931F93CF93DF9300D0FA
:100B800000D000D0CDB7DEB768E471E086E892E02F
:100B90000E949E056DE471E08CE892E00E949E0543
:100BA00064E571E082E992E00E949E0568E471E0EC
:100BB00084E792E00E949E056DE471E08AE792E08E
:100BC0000E949E0564E571E080E892E00E949E0527
:100BD00068E471E082E692E00E949E056DE471E0B7
:100BE00088E692E00E949E0564E571E08EE692E060
:100BF0000E949E0568E471E080E592E00E949E05F7
:100C00006DE471E086E592E00E949E0564E571E086
:100C10008CE592E00E949E0510926E0110926D018B
:100C200088EE93E0A0E0B0E080936F0190937001B4
:100C3000A0937101B093720184E391E090936C01F1
:100C400080936B0185EC90E090937801809377011D
:100C500084EC90E090937A018093790180EC90E0AD
:100C600090937C0180937B0181EC90E090937E01D6
:100C700080937D0182EC90E09093800180937F01CE
:100C800086EC90E090938201809381011092840120
:100C900010928501109286011092870168E471E03C
:100CA0008EE392E00E949E056DE471E084E492E0A0
:100CB0000E949E0564E571E08AE492E00E949E0530
:100CC00068E471E08CE292E00E949E056DE471E0C0
:100CD00082E392E00E949E0564E571E088E392E081
:100CE0000E949E0568E471E08AE192E00E949E0500
:100CF0006DE471E080E292E00E949E0564E571E09F
:100D000086E292E00E949E050E9464037C018CE2D0
:100D1000C82E82E0D82E02E411E09AE0A92E92E0DB
:100D2000B92E1A8219821C821B821E821D82B60174
:100D3000CE0101960E947D0587E090E00E94F908AF
:100D40004C01D8014D918D01BE016F5F7F4F0E9414
:100D50007704F501819291925F01CE0101960E9484
:100D60008403F6E0CF0ED11C81E005341807C9F6E4
:100D700081E090E00E94F9082BE0DC012C93909335
:100D800011028093100281E090E00E94F90825E0B2
:100D9000FC012083909315028093140281E090E07F
:100DA0000E94F9082AE0DC012C93909313028093AF
:100DB000120281E090E00E94F90829E0FC01208302
:100DC000909317028093160282E090E00E94F90847
:100DD0006C018BE090E00E94F9088C01DC01129616
:100DE0001C92129787E08C9386E011968C9361E0B9
:100DF00087E00E94590160E0F80181810E94590159
:100E000080E29EE4A0E0B0E0F80187839087A187AC
:100E1000B287D6010D931C93D0920902C0920802AA
:100E200086E090E00E94F9088C0188E092E0F801E9
:100E300095838483F182E082D7012D913C91EDB7B7
:100E4000FEB772970FB6F894FEBF0FBEEDBFADB7F9
:100E5000BEB7119682E1E8E0F2E001900D928A952A
:100E6000E1F7D901ED91FC91C701099510931902A1
:100E7000009318020FB6F894DEBF0FBECDBF2696C2
:100E80000FB6F894DEBF0FBECDBFDF91CF911F919B
:100E90000F91FF90EF90DF90CF90BF90AF909F9019
:100EA0008F900895789484B5826084BD84B5816004
:100EB00084BD85B5826085BD85B5816085BD809125
:100EC0006E00816080936E0010928100809181009D
:100ED0008260809381008091810081608093810095
:100EE000809180008160809380008091B100846057
:100EF0008093B1008091B00081608093B0008091B8
:100F00007A00846080937A0080917A008260809376
:100F10007A0080917A00816080937A0080917A00D3
:100F2000806880937A001092C100E0917B01F0917B
:100F30007C0182E08083E0917701F091780110825A
:100F4000E0917901F0917A018FEC80831092830116
:100F5000E0917F01F091800186E08083E0917D0146
:100F6000F0917E01808180618083E0917D01F0912C
:100F70007E01808188608083E0917D01F0917E0117
:100F8000808180688083E0917D01F0917E01808185
:100F90008F7D80830091180210911902D801CD90A5
:100FA000DC9011971496ED90FC901597D60112964F
:100FB000ED91FC911397D081B180C0E0D6011296DB
:100FC000ED91FC9113978281C81758F5ED2FFB2DF9
:100FD000EC0FF11DEC0FF11D80819181FC0140812E
:100FE00051812DB73EB7225131090FB6F8943EBF5B
:100FF0000FBE2DBFADB7BEB7119622E1F70101902C
:101000000D922A95E1F7DA01ED91FC910995CF5FF8
:10101000EDB7FEB772960FB6F894FEBF0FBEEDBFE8
:10102000CDCFD6011496ED91FC911597E080B1805B
:10103000F12CD6011496ED91FC9115978281F8164A
:1010400008F043C0CE2DDB2DCF0DD11DCF0DD11D0E
:10105000E881F98180819181DC014D915C91D80119
:101060001496ED91FC9115972DB73EB72251310999
:101070000FB6F8943EBF0FBE2DBFADB7BEB71196E9
:1010800022E101900D922A95E1F7DA01ED91FC91B0
:101090000995EDB7FEB772960FB6F894FEBF0FBE76
:1010A000EDBFD8012D913C91E881F981882319F099
:1010B0006281738102C0648175816217730719F0C0
:1010C000C8010E94BF00F394B4CF0E94060362CF10
:1010D00086E292E00E94840380E292E00E94840310
:1010E0008AE192E00E94840388E392E00E948403F4
:1010F00082E392E00E9484038CE292E00E948403E7
:101100008AE492E00E94840384E492E00E948403D3
:101110008EE392E00E9484038CE592E00E948403B7
:1011200086E592E00E94840380E592E00E948403B9
:101130008EE692E00E94840388E692E00E94840397
:1011400082E692E00E94840380E892E00E94840399
:101150008AE792E00E94840384E792E00E9484037D
:1011600082E992E00E9484038CE892E00E9484036A
:1011700086E892E00C9484032F923F924F925F9204
:101180006F927F928F929F92AF92BF92CF92DF9297
:10119000EF92FF920F931F93CF93DF93CDB7DEB7FC
:1011A000CA1BDB0B0FB6F894DEBF0FBECDBF099490
:1011B0002A88398848885F846E847D848C849B84E7
:1011C000AA84B984C884DF80EE80FD800C811B81F5
:1011D000AA81B981CE0FD11D0FB6F894DEBF0FBE24
:1011E000CDBFED010895EE0FFF1F0590F491E02DA6
:1011F00009940F931F93CF93DF938230910510F4DE
:1012000082E090E0E0919A02F0919B0220E030E0D1
:10121000A0E0B0E0309719F1408151810281138143
:1012200048175907C8F08417950769F4109731F0EB
:1012300012960C93129713961C9327C000939A0250
:1012400010939B0222C02115310519F04217530754
:1012500018F49A01BD01EF01DF01F801DBCF211580
:101260003105F9F0281B390B2430310580F48A81CF
:101270009B816115710521F0FB019383828304C07A
:1012800090939B0280939A02FE01329644C0FE0125
:10129000E20FF31F81939193225031093983288300
:1012A0003AC02091980230919902232B41F4209169
:1012B000020130910301309399022093980220910A
:1012C0000001309101012115310541F42DB73EB7E0
:1012D0004091040150910501241B350BE0919802C7
:1012E000F0919902E217F307A0F42E1B3F0B281789
:1012F000390778F0AC014E5F5F4F2417350748F08F
:101300004E0F5F1F509399024093980281939193DF
:1013100002C0E0E0F0E0CF01DF91CF911F910F918B
:101320000895CF93DF93009709F481C0FC013297B1
:1013300013821282A0919A02B0919B02109781F4BD
:1013400020813181820F931F209198023091990260
:101350002817390751F5F0939902E093980267C076
:10136000ED0120E030E0CE17DF0740F44A815B81D9
:101370009E0141155105F1F0EA01F5CFD383C283F7
:1013800040815181840F951FC817D90759F488816E
:101390009981840F951F0296918380838A819B8116
:1013A000938382832115310529F4F0939B02E09306
:1013B0009A023DC0E901FB83EA8349915991C40F28
:1013C000D51FEC17FD0761F480819181840F951F73
:1013D0000296E90199838883828193819B838A8322
:1013E000E0E0F0E012968D919C911397009719F030
:1013F000FD01DC01F7CF8D919C9111979D012E5F2E
:101400003F4F820F931F2091980230919902281725
:10141000390769F4309729F410929B0210929A02CE
:1014200002C013821282B0939902A0939802DF91B6
:10143000CF910895A0E0B0E0E0E2FAE00C94C0089B
:10144000EC01009721F4CB010E94F908B4C0FC0123
:10145000E60FF71F9C0122503109E217F30708F449
:10146000A8C0D9010D911C91119706171707B0F06C
:101470000530110508F49BC0C8010497861797072B
:1014800008F495C002501109061B170B0193119324
:101490006D937C93CF010E94910989C05B01A01AD2
:1014A000B10A4C01800E911EA0919A02B0919B024C
:1014B000612C712CE12CF12C109709F446C08D9110
:1014C0009C911197A815B905B1F56C0142E0C40EC5
:1014D000D11CCA14DB0478F14C018A189B08640102
:1014E00042E0C40ED11C1296BC9012971396AC9198
:1014F000B5E0CB16D10440F0B282A3839182808202
:10150000D9016D937C9309C00E5F1F4F800F911F0F
:10151000F90191838083EB2DFA2FE114F10431F06E
:10152000D7011396FC93EE93129741C0F0939B0260
:10153000E0939A023CC06816790608F43C017D01EC
:1015400012960D90BC91A02DB7CF809198029091EA
:10155000990288169906E1F466167706C8F4809118
:10156000000190910101009741F48DB79EB7409121
:10157000040150910501841B950BE817F907C8F485
:10158000F0939902E0939802F901718360830FC090
:10159000CB010E94F9087C01009759F0A801BE0117
:1015A0000E94E50ACE010E949109C70104C0CE0144
:1015B00002C080E090E0CDB7DEB7EEE00C94DC082E
:1015C00081E090E0F8940C94F50AFB01DC0102C084
:1015D00001900D9241505040D8F70895FB01DC0175
:1015E00001900D920020E1F7089510E0C4E9D0E0E9
:1015F00004C0FE010E94F3082196C539D107C9F73E
:04160000F894FFCF8C
:1016040000009C022000000000001F0410030000E2
:1016140000008203820300000000D00200000000EA
:10162400C703DA0200000000C602000000009501B2
:10163400000000005502BE01EC01E4021D02FB01A2
:101644000F020E100F0D0A004C6566740043656EA0
:0A1654007465720052696768740043
:00000001FF
