:100000000C9462000C948A000C948A000C948A0070
:100010000C948A000C948A000C948A000C948A0038
:100020000C948A000C948A000C948A000C948A0028
:100030000C948A000C948A000C948A000C948A0018
:100040000C94D5080C948A000C9445090C941F0953
:100050000C948A000C948A000C948A000C948A00F8
:100060000C948A000C948A000000000023002600F3
:10007000290000000000240027002A0000000000E2
:10008000250028002B0004040404040404040202D4
:100090000202020203030303030301020408102007
:1000A0004080010204081020010204081020000012
:1000B0000008000201000003040700000000000027
:1000C0000000BC0911241FBECFEFD8E0DEBFCDBFBA
:1000D00012E0A0E0B1E0E8EBFAE102C005900D9279
:1000E000A232B107D9F723E0A2E2B2E001C01D922B
:1000F000A230B207E1F710E0C2E6D0E004C02197D9
:10010000FE010E94040BC136D107C9F70E94870A7D
:100110000C945A0D0C940000DC0116968C911697E5
:1001200019962C9119971A969C911A97E22FF92FEC
:10013000E80FF11DE80FF11D7183608316968C9115
:1001400016978F5F16968C930895CF93DF93CDB754
:10015000DEB72FB7F89440914B0250914C0260915A
:100160004D0270914E022FBFFC0153834283848164
:100170009581481B590B81E04B3F510508F480E005
:10018000DF91CF910895CF93DF93CDB7DEB7EF81A5
:10019000F8858181DF91CF910895833081F028F433
:1001A000813099F08230A1F008958730A9F088302D
:1001B000B9F08430D1F4809180008F7D03C08091AC
:1001C00080008F7780938000089584B58F7702C078
:1001D00084B58F7D84BD08958091B0008F7703C072
:1001E0008091B0008F7D8093B00008951F93CF93CE
:1001F000DF93282F30E0F901E255FF4F8491F90198
:10020000E656FF4FD491F901EA57FF4FC491CC2332
:10021000C1F0162F81110E94CD00EC2FF0E0EE0FFF
:10022000FF1FE458FF4FA591B4919FB7F8941111A7
:1002300004C08C91D095D82302C0EC91DE2BDC93C6
:100240009FBFDF91CF911F910895CF93DF9390E0EF
:10025000FC01E656FF4F2491FC01EA57FF4F8491C1
:10026000882361F190E0880F991FFC01EE58FF4F41
:10027000C591D491FC01E458FF4FA591B49161114F
:1002800009C09FB7F8948881209582238883EC91D8
:100290002E230BC0623061F49FB7F8948881322F0F
:1002A000309583238883EC912E2B2C939FBF06C01F
:1002B0008FB7F894E8812E2B28838FBFDF91CF91E1
:1002C0000895CF93DF93CDB7DEB7DF91CF91089537
:1002D000CF93DF93CDB7DEB7ED81FE819181EF81C2
:1002E000F8858181E985FA852181222329F08823F7
:1002F00021F081E0892701C080E0DF91CF9108954E
:10030000CF93DF93CDB7DEB7ED81FE818181EF81A1
:10031000F8852181E985FA859181882331F02111C1
:1003200003C081E0892701C080E0DF91CF9108956B
:10033000CF93DF93CDB7DEB7ED81FE819181EF8161
:10034000F8852181E985FA858181882331F02111A1
:1003500003C081E0892701C080E0DF91CF9108953B
:100360000895AF92BF92CF92DF92EF92FF920F93D8
:100370001F93CF93DF93CDB7DEB78E01035F1F4F7F
:100380006E0183E1C80ED11CF801E190F1908F015C
:10039000F701208130E0F901E255FF4F8491F90126
:1003A000E656FF4FB490F901EA57FF4FA490AA20F8
:1003B00079F081110E94CD00EA2DF0E0EE0FFF1FD1
:1003C000E859FF4FA591B491EC91BE2281E009F468
:1003D00080E08170F7018183C016D106A9F6DF9114
:1003E000CF911F910F91FF90EF90DF90CF90BF9032
:1003F000AF900895CF93DF93CDB7DEB7ED81FE8147
:100400008181EF81F8852181E985FA8591818823B1
:1004100031F0222319F081E0892701C080E0DF91CB
:10042000CF9108950F931F93CF93DF93D62F062F6D
:1004300010E0FC01C08161E08C2F0E9425010115B4
:10044000110509F447C00F3F110509F445C0EC2F11
:10045000F0E0E255FF4FE491E330F9F048F4E13089
:10046000B9F0E230A1F584B5806284BDD8BD3CC04E
:10047000E730E9F0E83019F1E43049F58091800087
:1004800080628093800010938B0000938A002CC0C0
:1004900084B5806884BDD7BD27C080918000806806
:1004A0008093800010938900009388001DC0809184
:1004B000B00080688093B000D093B30015C08091E5
:1004C000B00080628093B000D093B4000DC00038BB
:1004D000110514F460E001C061E08C2FDF91CF9131
:1004E0001F910F910C94F600DF91CF911F910F9106
:1004F0000895CF93DF93CDB7DEB760E08B859C8501
:100500000E94120268E28D859E850E94120268E2B6
:100510008F8598890E94120260E089899A89DF910B
:10052000CF910C941202CF93DF93CDB7DEB768E280
:100530008B859C850E94120260E08D859E850E94BD
:10054000120260E08F8598890E94120268E2898910
:100550009A89DF91CF910C941202CF93DF93CDB79C
:10056000DEB760E08B859C850E94120269E18D8573
:100570009E850E94120260E08F8598890E94120277
:1005800069E189899A89DF91CF910C9412023FB772
:10059000F89480913D0290913E02A0913F02B0916B
:1005A000400226B5A89B05C02F3F19F00196A11D5A
:1005B000B11D3FBFBA2FA92F982F8827820F911DF9
:1005C000A11DB11DBC01CD0142E0660F771F881F40
:1005D000991F4A95D1F70895CF92DF92EF92FF923B
:1005E0000F931F93CF93DF936C017A018B01C0E0CF
:1005F000D0E0CE15DF0581F0D8016D918D01D601D7
:10060000ED91FC910190F081E02DC6010995892BB7
:1006100011F02196EECF7E01C701DF91CF911F919E
:100620000F91FF90EF90DF90CF900895089580E0B4
:1006300090E00895FC01538D448D252F30E0842FE8
:1006400090E0821B930B541710F0CF9608950197FA
:100650000895FC01918D828D981761F0828DDF01E4
:10066000A80FB11D5D968C91928D9F5F9F73928FA5
:1006700090E008958FEF9FEF0895FC01918D828D9A
:10068000981731F0828DE80FF11D858D90E0089567
:100690008FEF9FEF0895FC01918D228D892F90E0BF
:1006A000805C9F4F821B91098F73992708958FE477
:1006B00092E00E944B0321E0892B09F420E0822F75
:1006C0000895FC01848DDF01A80FB11DA35ABF4F0F
:1006D0002C91848D90E001968F739927848FA68941
:1006E000B7892C93A089B1898C91837080648C9395
:1006F000938D848D981306C00288F389E02D808144
:100700008F7D80830895EF92FF920F931F93CF9375
:10071000DF93EC0181E0888F9B8D8C8D981305C051
:10072000E889F989808185FD26C0F62E0B8D10E0C1
:100730000F5F1F4F0F731127E02E8C8DE8120CC036
:100740000FB607FCFACFE889F989808185FFF5CFDC
:10075000CE010E946103F1CF8B8DFE01E80FF11DE8
:10076000E35AFF4FF0829FB7F8940B8FEA89FB8919
:10077000808180620AC09FB7F894EE89FF89608308
:10078000E889F98980818370806480839FBF81E0DC
:1007900090E0DF91CF911F910F91FF90EF9008951E
:1007A000CF93DF93EC01888D8823C9F0EA89FB8918
:1007B000808185FD05C0A889B9898C9186FD0FC00F
:1007C0000FB607FCF5CF808185FFF2CFA889B989E4
:1007D0008C9185FFEDCFCE010E946103E7CFDF91C1
:1007E000CF91089580E090E0892B29F00E94570373
:1007F00081110C9400000895DC0115968C911597D9
:1008000017962C91179718969C911897E22FF92F0D
:10081000E80FF11DE80FF11D7183608315968C912F
:1008200015978F5F15968C930895CF93DF93EC0106
:1008300061E08E819F810E94120261E08885998526
:100840000E94120261E08A859B850E94120261E08B
:100850008C859D85DF91CF910C941202CF93DF930D
:10086000CDB7DEB7CE0105960E941504DF91CF917A
:1008700008958F929F92AF92BF92CF92DF92EF92A4
:10088000FF92CF93DF93CDB7DEB7CE010D960E94D6
:1008900015040E94C7024B015C0184EFC82EDD24C1
:1008A000D394E12CF12C0E94C702DC01CB01881902
:1008B0009909AA09BB09883E9340A105B10598F39F
:1008C00021E0C21AD108E108F10888EE880E83E021
:1008D000981EA11CB11CC114D104E104F10419F744
:1008E000DF91CF91FF90EF90DF90CF90BF90AF90CE
:1008F0009F908F900895CF93DF93EC0181E08A83DE
:10090000E881F9810084F185E02DCE010995E88127
:10091000F9810680F781E02DCE01DF91CF91099416
:10092000CF93DF93CDB7DEB7DF91CF910895CF930B
:10093000DF93CDB7DEB7DC0112962C91129721110F
:1009400008C0ED91FC910480F581E02DDF91CF91FD
:100950000994DF91CF910895CF93DF93CDB7DEB7A0
:1009600022E1FE013596DF0101900D922A95E1F713
:10097000DF91CF910C949704CF93DF93CDB7DEB77F
:1009800022E1FE013596DF0101900D922A95E1F7F3
:10099000DF91CF910C949704CF93DF93CDB7DEB75F
:1009A00022E1FE013596DF0101900D922A95E1F7D3
:1009B000DF91CF910C949704CF93DF93CDB7DEB73F
:1009C00022E1FE013596DF0101900D922A95E1F7B3
:1009D000DF91CF910C9497048091490290914A0243
:1009E000892B69F486E090E00E94340C2EEA31E015
:1009F000FC013183208390934A02809349028091C5
:100A0000490290914A020895CF93DF93CDB7DEB7A4
:100A10002DB73EB7225131090FB6F8943EBF0FBE35
:100A20002DBFADB7BEB7119622E1FE0135960190FC
:100A30000D922A95E1F70E9497040E94EC042FB7CB
:100A4000F89440914B0250914C0260914D0270918C
:100A50004E022FBFFC01558344830FB6F894DEBFCE
:100A60000FBECDBFDF91CF910895CF93DF93CDB768
:100A7000DEB72DB73EB7225131090FB6F8943EBF0D
:100A80000FBE2DBFADB7BEB7119622E1FE01359660
:100A900001900D922A95E1F70E9497040E94EC04C0
:100AA0002FB7F89440914B0250914C0260914D0247
:100AB00070914E022FBFFC01558344830FB6F8940A
:100AC000DEBF0FBECDBFDF91CF910895809145026B
:100AD00090914602892B69F482E090E00E94340CE8
:100AE00022EA31E0FC013183208390934602809317
:100AF000450280914502909146020895CF93DF937D
:100B0000EC018091410290914202892B69F482E0CC
:100B100090E00E94340C26E931E0FC01318320830F
:100B2000909342028093410260914102709142028F
:100B3000CE01DF91CF910C94FC038091360290910D
:100B40003702892B69F482E090E00E94340C24E79C
:100B500031E0FC0131832083909337028093360289
:100B600080913602909137020895CF93DF93EC0184
:100B70008091470290914802892B69F482E090E0CD
:100B80000E94340C28EA31E0FC01318320839093E9
:100B90004802809347026091470270914802CE015B
:100BA0000E94FC030E949D05BC01CE01DF91CF9104
:100BB0000C94FC03CF93DF93EC018091430290915E
:100BC0004402892B69F482E090E00E94340C2CE905
:100BD00031E0FC01318320839093440280934302EF
:100BE0006091430270914402CE010E94FC030E9476
:100BF0009D05BC01CE01DF91CF910C94FC03809147
:100C0000340290913502892B69F482E090E00E94D1
:100C1000340C2EE631E0FC013183208390933502C1
:100C20008093340280913402909135020895CF93DD
:100C3000DF93EC010E94FF05BC01CE01DF91CF9153
:100C40000C94FC03CF93DF93EC010E94FF05BC01E1
:100C5000CE01DF91CF910C94FC03CF93DF93EC0195
:100C60000E94FF05BC01CE010E94FC030E949D056D
:100C7000BC01CE01DF91CF910C94FC03CF93DF93A5
:100C8000EC018AE091E0998388837C836B831A82EC
:100C90001D821E8288E290E00E94340C98878F8328
:100CA00088E290E00E94340C9A878987DF91CF9187
:100CB0000895CF93DF9380913A0290913B02892B64
:100CC00089F48BE090E00E94340CEC016BEC71E055
:100CD0000E943E0688E891E099838883D0933B0286
:100CE000C0933A0280913A0290913B02DF91CF91FA
:100CF0000895EF92FF920F931F93CF93DF93EC0130
:100D00000E94EC047C010E9459068C0186E090E070
:100D10000E94340CFC01F182E0821383028315826D
:100D20001482BC01CE01DF91CF911F910F91FF90F2
:100D3000EF900C948C00CF93DF93809138029091C8
:100D40003902892B89F48BE090E00E94340CEC018D
:100D500069ED71E00E943E068AE791E099838883FD
:100D6000D0933902C09338028091380290913902B1
:100D7000DF91CF910895EF92FF920F931F93CF933E
:100D8000DF93EC010E94EC047C010E949B068C0125
:100D900086E090E00E94340CFC01F182E082138333
:100DA000028315821482BC01CE01DF91CF911F9185
:100DB0000F91FF90EF900C948C00EF92FF920F93A5
:100DC0001F93CF93DF93EC01809124029091250231
:100DD000892B69F482E090E00E94340C26E231E035
:100DE000FC01318320839093250280932402E090BC
:100DF0002402F09025020E949B068C0186E090E080
:100E00000E94340CFC01F182E0821383028315827C
:100E10001482BC01CE010E948C0080912602909128
:100E20002702892B69F482E090E00E94340C2CE2C6
:100E300031E0FC01318320839093270280932602C6
:100E4000E0902602F09027020E9459068C0186E06D
:100E500090E00E94340CFC01F182E0821383028353
:100E600015821482BC01CE010E948C008091280260
:100E700090912902892B69F482E090E00E94340C61
:100E800022E331E0FC013183208390932902809397
:100E90002802E0902802F090290280912A02909185
:100EA0002B02892B91F48BE090E00E94340C8C0192
:100EB00066EE71E00E943E0688E391E0F8019183BE
:100EC000808310932B0200932A0200912A02109132
:100ED0002B0286E090E00E94340CFC01F182E0825B
:100EE0001383028315821482BC01CE010E948C0000
:100EF00080912C0290912D02892B69F482E090E080
:100F00000E94340C26E431E0FC013183208390936D
:100F10002D0280932C02E0902C02F0902D02809103
:100F20002E0290912F02892B91F48BE090E00E9489
:100F3000340C8C0166EF71E00E943E068CE491E077
:100F4000F8019183808310932F0200932E02009169
:100F50002E0210912F0286E090E00E94340CFC01DA
:100F6000F182E0821383028315821482BC01CE01D8
:100F70000E948C008091300290913102892B69F49B
:100F800082E090E00E94340C2AE531E0FC013183DC
:100F900020839093310280933002E0903002F090F1
:100FA00031028091320290913302892B91F48BE0CF
:100FB00090E00E94340C8C0167E072E00E943E06D3
:100FC00080E691E0F80191838083109333020093CF
:100FD0003202009132021091330286E090E00E94CA
:100FE000340CFC01F182E0821383028315821482A7
:100FF000BC01CE01DF91CF911F910F91FF90EF9037
:101000000C948C00CF93DF93809122029091230265
:10101000892B89F48BE090E00E94340CEC0162E1B2
:1010200072E00E943E0688E191E099838883D09324
:101030002302C09322028091220290912302DF9129
:10104000CF910895EF92FF920F931F93CF93DF9369
:10105000EC010E9466057C010E9402088C0186E07A
:1010600090E00E94340CFC01F182E0821383028341
:1010700015821482BC01CE01DF91CF911F910F9197
:10108000FF90EF900C948C00EF92FF920F931F93C0
:10109000CF93DF93EC010E9466057C010E94020859
:1010A0008C0186E090E00E94340CFC01F182E08229
:1010B0001383028315821482BC01CE01DF91CF918C
:1010C0001F910F91FF90EF900C948C00EF92FF9284
:1010D0000F931F93CF93DF93CDB7DEB7EF88F88CD4
:1010E00060E0F70180810E94F60083E090E00197C4
:1010F000F1F761E0F70180810E94F60083E290E061
:101100000197F1F760E0F70180810E94F600F70196
:10111000818190E0FC01E656FF4F6491FC01EA57A3
:10112000FF4FE491F0E0EE0FFF1FE859FF4F85916C
:10113000949100E412E42FE030E0462F0E947709FA
:10114000611571058105910549F0DC01CB0101961E
:10115000A11DB11DBC01CD019F7003C060E070E016
:10116000CB01F70162837383848395830E94390BDB
:1011700026E933E44BE05DE30E949F0B20E030E082
:1011800040E05FE30E949F0B0E940A0B21E06B305E
:10119000710508F020E0822FDF91CF911F910F9110
:1011A000FF90EF9008950E94550D1F920F920FB679
:1011B0000F9211242F933F938F939F93AF93BF93DD
:1011C00080914B0290914C02A0914D02B0914E0241
:1011D00030913C0223E0230F2D3720F40196A11D0E
:1011E000B11D05C026E8230F0296A11DB11D209355
:1011F0003C0280934B0290934C02A0934D02B0931B
:101200004E0280913D0290913E02A0913F02B0912A
:1012100040020196A11DB11D80933D0290933E02B4
:10122000A0933F02B0934002BF91AF919F918F91E5
:101230003F912F910F900FBE0F901F9018951F9206
:101240000F920FB60F9211242F933F934F935F93FA
:101250006F937F938F939F93AF93BF93EF93FF937E
:101260008FE492E00E946103FF91EF91BF91AF91F3
:101270009F918F917F916F915F914F913F912F91AE
:101280000F900FBE0F901F9018951F920F920FB6E0
:101290000F9211242F938F939F93EF93FF93E091DD
:1012A0005F02F09160028081E0916502F091660238
:1012B00082FD12C09081809168028F5F8F732091B0
:1012C0006902821751F0E0916802F0E0E15BFD4FA6
:1012D000958F8093680201C08081FF91EF919F916B
:1012E0008F912F910F900FBE0F901F901895CF9256
:1012F000DF92EF92FF920F931F93E82FF92F05C013
:10130000015011092109310961F190819623941747
:10131000B9F305C0015011092109310911F190817A
:1013200096239413F7CFC12CD12CE12CF12C0AC0B9
:101330008FEFC81AD80AE80AF80A0C151D052E0501
:101340003F0579F080818623841791F36C2D7D2DE4
:101350008E2D9F2D1F910F91FF90EF90DF90CF90DA
:10136000089560E070E080E090E01F910F91FF90A1
:10137000EF90DF90CF900895AF92BF92CF92DF921F
:10138000EF92FF920F931F93CF93DF93109252022D
:101390001092510288EE93E0A0E0B0E080935302F7
:1013A00090935402A0935502B093560284EB91E0BF
:1013B0009093500280934F0285EC90E090935C02F2
:1013C00080935B0284EC90E090935E0280935D02D8
:1013D00080EC90E09093600280935F0281EC90E05B
:1013E000909362028093610282EC90E09093640299
:1013F0008093630286EC90E090936602809365028E
:10140000109268021092690210926A0210926B02A6
:1014100088ECC82E81E0D82EC2ECD1E09CEEE92EFB
:1014200092E0F92E28ECA22E21E0B22E84E090E08A
:101430000E94340C8C01F60181916F012991399140
:10144000F80133832283808360E00E942501F70145
:10145000019311937F01AC16BD0641F781E090E046
:101460000E94340C2BE0FC0120839093F3028093C4
:10147000F20281E090E00E94340C25E0FC01208320
:101480009093F7028093F60281E090E00E94340C82
:101490002AE0FC0120839093F5028093F40281E01E
:1014A00090E00E94340C29E0FC0120839093F90223
:1014B0008093F80286E090E00E94340CEC0187E013
:1014C000888386E0898361E087E00E94250160E0EF
:1014D00089810E942501D093FB02C093FA0286E025
:1014E00090E00E94340C2CEE32E0FC013583248322
:1014F0009093FD028093FC02DF91CF911F910F9199
:10150000FF90EF90DF90CF90BF90AF9008957894C8
:1015100084B5826084BD84B5816084BD85B58260F8
:1015200085BD85B5816085BD80916E0081608093A9
:101530006E00109281008091810082608093810012
:101540008091810081608093810080918000816022
:10155000809380008091B10084608093B10080917D
:10156000B00081608093B00080917A0084608093A5
:101570007A0080917A00826080937A0080917A006C
:10158000816080937A0080917A00806880937A00ED
:101590001092C1000E940208E0915F02F091600287
:1015A00082E08083E0915B02F0915C021082E09126
:1015B0005D02F0915E028FEC808310926702E091F1
:1015C0006302F091640286E08083E0916102F09111
:1015D0006202808180618083E0916102F091620209
:1015E000808188608083E0916102F0916202808155
:1015F00080688083E0916102F091620280818F7D3A
:1016000080830E94F203FDCFEE0FFF1F0590F4913F
:10161000E02D09940E947E0B88F09F5798F0B92F17
:101620009927B751B0F0E1F0660F771F881F991F17
:101630001AF0BA95C9F714C0B13091F00E94980B16
:10164000B1E008950C94980B672F782F8827B85F26
:1016500039F0B93FCCF3869577956795B395D9F76F
:101660003EF490958095709561957F4F8F4F9F4F79
:101670000895E89409C097FB3EF490958095709585
:1016800061957F4F8F4F9F4F9923A9F0F92F96E9CE
:10169000BB279395F695879577956795B795F11143
:1016A000F8CFFAF4BB0F11F460FF1BC06F5F7F4FE0
:1016B0008F4F9F4F16C0882311F096E911C07723F2
:1016C00021F09EE8872F762F05C0662371F096E8FB
:1016D000862F70E060E02AF09A95660F771F881FCA
:1016E000DAF7880F9695879597F9089557FD9058E2
:1016F000440F551F59F05F3F71F04795880F97FBD6
:10170000991F61F09F3F79F087950895121613068F
:101710001406551FF2CF4695F1DF08C016161706BE
:101720001806991FF1CF86957105610508940895F3
:10173000E894BB2766277727CB0197F908950E9485
:10174000B20B0C94230C0E94150C38F00E941C0C58
:1017500020F0952311F00C940C0C0C94120C112415
:101760000C94990B0E94760B70F3959FC1F3950F23
:1017700050E0551F629FF001729FBB27F00DB11D15
:10178000639FAA27F00DB11DAA1F649F6627B00DA5
:10179000A11D661F829F2227B00DA11D621F739F8E
:1017A000B00DA11D621F839FA00D611D221F749F9C
:1017B0003327A00D611D231F849F600D211D822FE3
:1017C000762F6A2F11249F5750409AF0F1F088230A
:1017D0004AF0EE0FFF1FBB1F661F771F881F915037
:1017E0005040A9F79E3F510580F00C940C0C0C94CE
:1017F000990B5F3FE4F3983ED4F386957795679510
:10180000B795F795E7959F5FC1F7FE2B880F911D60
:101810009695879597F9089597F99F6780E870E006
:1018200060E008959FEF80EC089500240A94161656
:10183000170618060906089500240A9412161306BE
:10184000140605060895092E0394000C11F488234C
:1018500052F0BB0F40F4BF2B11F460FF04C06F5F68
:101860007F4F8F4F9F4F08950F931F93CF93DF9319
:101870008230910510F482E090E0E0910003F09155
:10188000010320E030E0A0E0B0E0309719F14081A2
:1018900051810281138148175907C8F084179507B1
:1018A00069F4109731F012960C93129713961C93CB
:1018B00027C0009300031093010322C021153105B6
:1018C00019F04217530718F49A01BD01EF01DF0127
:1018D000F801DBCF21153105F9F0281B390B243035
:1018E000310580F48A819B816115710521F0FB012E
:1018F0009383828304C09093010380930003FE01CD
:10190000329644C0FE01E20FF31F8193919322505F
:101910003109398328833AC02091FE023091FF02B9
:10192000232B41F420910201309103013093FF02F7
:101930002093FE0220910001309101012115310513
:1019400041F42DB73EB74091040150910501241B8D
:10195000350BE091FE02F091FF02E217F307A0F4CD
:101960002E1B3F0B2817390778F0AC014E5F5F4FF5
:101970002417350748F04E0F5F1F5093FF02409326
:10198000FE028193919302C0E0E0F0E0CF01DF918D
:10199000CF911F910F910895CF93DF93009709F492
:1019A00081C0FC01329713821282A0910003B09192
:1019B0000103109781F420813181820F931F2091C0
:1019C000FE023091FF022817390751F5F093FF020C
:1019D000E093FE0267C0ED0120E030E0CE17DF07A4
:1019E00040F44A815B819E0141155105F1F0EA0105
:1019F000F5CFD383C28340815181840F951FC817CF
:101A0000D90759F488819981840F951F0296918393
:101A100080838A819B81938382832115310529F4F8
:101A2000F0930103E09300033DC0E901FB83EA83E7
:101A300049915991C40FD51FEC17FD0761F48081BE
:101A40009181840F951F0296E90199838883828191
:101A500093819B838A83E0E0F0E012968D919C91C4
:101A60001397009719F0FD01DC01F7CF8D919C9140
:101A700011979D012E5F3F4F820F931F2091FE0211
:101A80003091FF022817390769F4309729F4109232
:101A900001031092000302C013821282B093FF026E
:101AA000A093FE02DF91CF91089581E090E0F89439
:081AB0000C945A0DF894FFCFCD
:101AB80000000203200000000000970490047B044B
:101AC800D308D30800000000DC0439047B042D0689
:101AD800DD06000000008001000000009801000001
:101AE8000000FA0100000000040561017B041706EC
:101AF800BB06000000006801000000003505610118
:101B08007B04220679060000000066080000000039
:101B1800CC0461017B047E05B00100000000AD0229
:101B280000000000B10100000000AC0461017B046A
:101B3800B505220800000000BC0461017B04DA0539
:101B48004408000000002E0400000000930200007A
:101B58000000C30000000000790200000000A5009A
:101B6800000000008303EC021A03D0034B0329038F
:101B78003D03E1011A02D3010E100F416C69676E33
:101B8800696E67526967687400416C69676E696E4F
:101B9800674C6566740043757276656446726F6E4D
:101BA800744C6566740043757276656446726F6E30
:101BB8007452696768740053746174696F6E6172F6
:101BC8007900466F72776172640043656E7465725E
:021BD80000000B
:00000001FF
